:020000040800F2
:1000000090300020E11A0008E3D90008CD1A00085A
:1000100000000000000000000000000000000000E0
:10002000000000000000000000000000C11B0008EC
:100030000000000000000000511B0008BD37000850
:10004000351D0008351D0008351D0008351D000848
:10005000351D0008351D0008351D0008351D000838
:10006000351D0008351D0008351D0008351D000828
:10007000351D0008351D0008351D0008351D000818
:10008000351D0008351D0008351D0008351D000808
:10009000351D0008351D0008351D0008351D0008F8
:1000A000351D0008351D0008351D0008351D0008E8
:1000B000351D0008351D0008351D0008351D0008D8
:1000C000002934D00123002210B488422CD301240B
:1000D0002407A14204D2814202D209011B01F8E7A0
:1000E000E400A14204D2814202D249005B00F8E759
:1000F000884201D3401A1A434C08A04202D3001B85
:100100005C0822438C08A04202D3001B9C082243B7
:10011000CC08A04202D3001BDC082243002803D0F5
:100120001B0901D00909E3E7100010BC704701B5B5
:10013000002000F05FF802BD0029F8D003B5FFF7FA
:10014000C1FF0EBC4243891A1847C046002941D05E
:1001500010B404004C40A44601230022002900D51D
:100160004942002800D5404288422CD3012424076C
:10017000A14204D2814202D209011B01F8E7E40046
:10018000A14204D2814202D249005B00F8E78842D2
:1001900001D3401A1A434C08A04202D3001B5C084A
:1001A00022438C08A04202D3001B9C082243CC08A7
:1001B000A04202D3001BDC082243002803D01B0905
:1001C00001D00909E3E710006446002C00D5404245
:1001D00010BC704701B5002000F00CF802BDC0460D
:1001E0000029F7D003B5FFF7B3FF0EBC4243891ACD
:1001F0001847C0467047C046844608006146FFE77E
:100200001FB500F042FF002801D40021C8421FBDE5
:1002100010B500F0C5FE4042013010BD10B500F031
:1002200034FF002801DB002010BD012010BDC046B6
:1002300010B500F02AFF002801DD002010BD0120CC
:1002400010BDC04610B500F0D2FE002801DC002031
:1002500010BD012010BDC04610B500F0C8FE00283A
:1002600001DA002010BD012010BDC0461C21012371
:100270001B04984201D3000C10391B0A984201D389
:10028000000A08391B09984201D30009043902A267
:10029000105C40187047C0460403020201010101CE
:1002A0000000000000000000414208401C21012322
:1002B0001B04984201D3000C10391B0A984201D349
:1002C000000A08391B09984201D30009043902A227
:1002D000105C401A7047C0461B1C1D1D1E1E1E1EB2
:1002E0001F1F1F1F1F1F1F1F002B15D1002A13D1F7
:1002F000002906DB01DC002806D00020C0434108AD
:1003000002E080210906002007B4024801A140183C
:10031000029003BDE1FEFFFF03B4684601B50298F9
:1003200000F026FE019B9E4602B00CBC7047C04602
:10033000002B11D1002A0FD1002900D1002802D0B2
:100340000021C943080007B4024802A140180290E6
:1003500003BDC046A1FEFFFF03B4684601B5029885
:1003600000F097FD019B9E4602B00CBC7047C04652
:10037000084A43081340C01A0200074B800818407F
:100380001A40121813099B18044A05481340584391
:10039000000E704755555555333333330F0F0F0F3C
:1003A0000101010103B47146490840004900095A9E
:1003B00049008E4403BC7047D0400B00D1409C469E
:1003C000203AD34018435242634693401843704743
:1003D0009140030090409C46203A9340194352427A
:1003E0006346D3401943704710B5002903D1FFF786
:1003F0003DFF203002E00800FFF738FF10BDC04687
:1004000002B4714649084900095C49008E4402BCA7
:100410007047C04603685A0004D580221206134371
:10042000C01870475B005B08FAE7F0B585B01500AF
:100430000E1E029015D000274B1E01930093009BC7
:10044000FB18DC0FE4186410E3000393029BE20046
:100450009E183000FFF7DEFF019BA34204D1A842A3
:1004600004D8300005B0F0BDA84204D9A7420DD091
:10047000631E0093E3E70398029B08301818FFF708
:10048000C9FF0138A842ECD2671CD8E70026E8E78C
:1004900003000548012B06D00448022B03D000209E
:1004A000834200D102487047A30A0008AD0A000841
:1004B000990A00081E4B37B505008C1E002B08D08A
:1004C000200001A900E000BF002807D10023092077
:1004D00024E0184B18481B1ADB10019322000199E5
:1004E000FFF7A3FF041EF1D0FFF794FF6268A86432
:1004F000012A1AD00123201D002A02DBFFF78AFF00
:1005000000232B650368E864002B09DA1801000F4B
:10051000FFF7BEFF030000208342D7D02B613EBD12
:10052000FFF778FF03000020F8E700230520F5E738
:1005300000000000DC0E0108040E0108036810B57D
:100540000400DA0704D448309B0719D500F0F0FB0B
:1005500023685B0703D42000D03000F0EDFB236854
:100560001B0704D420005130FF3000F0E9FB236862
:10057000DB0604D42000D130FF3000F0E5FB10BDD5
:1005800000F0D2FBE4E70920704703000068002870
:1005900000D0C0187047704770B505000C002800E7
:1005A000216CFFF787FF061E01D001F0E7FB236CEB
:1005B00022006B61290001202B6998470828EED0A2
:1005C0000728F2D13000216CFFF7E5FF201D00F075
:1005D00095FBF0B52A4CC368A544049383690500D4
:1005E00014000431402207A805930FF0C8FF002330
:1005F00006AE069302932800316CFFF75BFF0934C7
:1006000007000390E4B200282FD1F022336C3100B0
:100610006B6152007EA80FF0B2FF2B692900200009
:100620007EAA98478C9B02907364059B21000193DE
:100630002A002B000120049C0096A047002818D116
:10064000002F18D1F022300052007EA90FF097FF42
:10065000029B3C00082BCED0072B0AD13800316C0E
:10066000FFF799FF07A800F049FB10231C43B36B69
:10067000DAE7092303930398F7239B009D44F0BD19
:1006800024FCFFFF406C704770B5CB6BF8B00B6477
:1006900004000D004022043101A80FF070FF012377
:1006A0005B42009320001099FFF704FF00280FD150
:1006B0006A4621002369984706000828F2D0684658
:1006C000FFF73CFF062E03D129002000FFF764FF4F
:1006D000092078B070BD10B58261DA6BC1601A6410
:1006E00019000022FFF775FF10BD70B54369C66899
:1006F00005000C000B64002E04D00122FFF769FFF7
:1007000001F03CFB0A00036901000220984707281A
:1007100005D00828F4D121002800FFF73DFF300064
:10072000216CFFF738FF201D00F0E8FAC36810B510
:10073000002B02D1FFF7A8FF10BDCB6B00220B648A
:10074000FFF747FFF8E770478368010010B5002BFB
:1007500001D00120984710BD10B504000800012900
:1007600007D007D901230338C0B2834280414042F9
:10077000C01810BD0220002BFBD10F2AF9D88240EF
:10078000A4186168029A18001160F2E71FB503AB64
:10079000009300230A001900FFF7DEFF039805B05D
:1007A00000BD10B504000800012907D007D90123B6
:1007B0000338C0B2834280414042C01810BD0220BD
:1007C000002BFBD10F2AF9D882400299A41809689E
:1007D00018006160F2E71FB503AB0093002303929A
:1007E0000A001900FFF7DDFF05B000BD70B5184C19
:1007F000D36BA544136404000D0017A8111D4022FB
:100800000FF0BDFE01235B42169368462699FFF761
:1008100051FE002813D10C2116A86A46FFF7DBFF12
:10082000290016A8A047002809D16946049B16AAEA
:10083000083098470600052802D00928E5D1092686
:1008400016A8FFF77BFE30008E239B009D4470BDF1
:10085000C8FDFFFFF0B58BB00393009203000322A5
:10086000CD6C13400C000193039908CD0895002925
:100870002DD11B02079306AB5973130007AA1372FD
:10088000019B022B00D1A56B01220121236D1A408F
:100890000B4226D108231840059004922B6802933E
:1008A000002B27D1009807A900F008FD002857D198
:1008B000049B002B1BD00F210098FFF767FF0E2130
:1008C00002000098FFF787FF724A0F218EE01A0C92
:1008D00006A94A73D2B21B0492000793AD180223F3
:1008E000CCE7009807A900F0E9FC002838D10820DF
:1008F0000BB0F0BD039B022B34D16E68083501228A
:100900003700A36C97430F210098FF18FFF73EFFB5
:100910000023874206D80122029B9343DB199842A9
:100920009B415B420222012176001640029A0A4056
:1009300016438E421DD0022E5FD0002E10D1019A98
:100940002F1D002A13D0002B11D02800FFF762FDC5
:10095000A7630500200000E000BF2A000028B4D1F2
:100960000920C5E72B8802936E880435C7E73D0050
:1009700094E7019A002A25D1002B3CD02F686B68A0
:10098000FF0F9A1CECD022005832069201330AD095
:10099000281DFFF7FAFD3A00010006AB200000E039
:1009A00000BF061E27D00D210098FFF7EFFE069B23
:1009B0002062022E02D1E36223002C330620636200
:1009C000A56295E70D210098266AFFF7DFFE8642B3
:1009D00011D1A36A9D420ED12800FFF71BFD0F2104
:1009E00002000098FFF7F7FE220000210098FFF7B1
:1009F000F2FE07207CE7083550E72A6852005708C6
:100A0000019A002A2AD1002B16D0059B002B1BD05F
:100A1000002F11D1019E18E023000136B000583399
:100A200028180693FFF7B1FD0022010006AB200055
:100A300000E000BF002808D02B68002B00DA043546
:100A40000137BF00ED1929E7059EBE42E4D10D2113
:100A50000098FFF79BFE069B2062AFE70D210098F0
:100A6000266AFFF793FE8642E6D1A36A9D42E3D150
:100A7000042300262363EB18A762E66263632B68F6
:100A8000B34203DA0137B8002818A6E7012304931C
:100A9000D6E7C0460000000010B50023FFF7DAFEDD
:100AA00010BD10B50123FFF7D5FE10BD10B5022310
:100AB000FFF7D0FE10BDF0B50500140008001E00C1
:100AC000C5B0042924D8FFF76DFC05001C002300E5
:100AD000C800F100002B1BD1AB6B92B2281D01277F
:100AE000B7403A4204D080CBBC466146B700C15102
:100AF0000136102EF3D1A40400D4AB63002045B01E
:100B0000F0BD170C94B2012B04D13B19102B3AD92C
:100B10000220F4E7052BFBD139192029F8D80F2F33
:100B200049D9002CEAD004222B68134271D0280046
:100B300093432B60D03000F001F90F2F69D822A821
:100B400000F0F8F802A800F0F9F81023DB1B5B00B6
:100B5000F90022A8AA6B4118013B002001339B0039
:100B6000019313580B50019B04308342F9D1D218E2
:100B7000002C52D1012E18D0AA630F2FBED822A864
:100B800000F0D6F8BAE7102FC2D02B68334206D057
:100B90000322280093432B60483000F0C7F822A8B6
:100BA00000F0C4F8AA6B002C19D10432AA6322A861
:100BB00000F0BAF8A2E701222B68102907D91039F2
:100BC0000C0013421BD15A07B9D50422AFE71342D8
:100BD0000CD122A800F0AEF8AA6B002CCFD0630095
:100BE000F90022A800244118013BB6E793430222F2
:100BF000280013432B60483000F09CF8E9E793434A
:100C00000222280013432B60483000F093F82B6831
:100C1000D9E702A800F092F8AA6B3B006400102FFD
:100C200000D21023103B02A9DB005B180021013C1D
:100C30000134A4005058585004318C42FAD1121992
:100C4000012EB2D0AA630F2F03D902A800F074F8C6
:100C500054E722A800F06CF8F7E7032B00D057E721
:100C6000160C94B23319102B00D951E708222B68C7
:100C7000134206D02800934351302B60FF3000F020
:100C800061F822A800F05EF8AB6BF600E400F61AFB
:100C900022AA1C1992199C4204D1AC6322A800F02C
:100CA0004FF82BE71968D1500433F4E7002B00D03C
:100CB0002EE7102A00D92BE710222B68134206D00A
:100CC00028009343D1302B60FF3000F03FF822AE74
:100CD000300000F03BF800220121AB6B080090408F
:100CE000044202D080CB900037500132042AF5D163
:100CF0003000AB6300F028F800E7C0460100343153
:100D000038C9043B9C461D60A646010020313CC901
:100D100090469946A246AB4601000831FCC941689D
:100D20000068E54600BDC0467047C0467047C046F3
:100D30007047C0467047C0467047C0467047C046BF
:100D40007047C0467047C0467047C0467047C046AF
:100D500001B401A801B585B0FFB408A841464A46D0
:100D600053465C4665463EC001A83EC80F980090B9
:100D700000230CB401A9FFF787FC109B12B01847A1
:100D800001B401A801B585B0FFB408A841464A46A0
:100D900053465C4665463EC001A83EC80F98009089
:100DA00000230CB401A9FFF7A0FC109B12B0184758
:100DB00001B401A801B585B0FFB408A841464A4670
:100DC00053465C4665463EC001A83EC80F98009059
:100DD00000230CB401A9FFF7A9FC109B12B018471F
:100DE00001B401A801B585B0FFB408A841464A4640
:100DF00053465C4665463EC001A83EC80F98009029
:100E000000230CB401ABFFF766FC109B12B018472F
:100E100001B401A801B585B0FFB408A841464A460F
:100E200053465C4665463EC001A83EC80F980090F8
:100E300000230CB401AAFFF7D9FC109B12B018478D
:100E4000F7B5040C0D0091B20F0061438C4606000B
:100E5000019383B2100C5F43444358433B0C6044FE
:100E60001B18994202D980214902641801995543FF
:100E70007143180C04191B04BFB24919D819091978
:100E800003B0F0BD10B5002802D0FFF70DFA013015
:100E900010BDF0B506000F0015001C0085B08B4298
:100EA00063D801D1824260D821002800FFF79CFA64
:100EB000390000903000FFF797FA009B21001B1AC1
:100EC0001A0028000393FFF783FA00900191B942BA
:100ED00045D801D1B04242D8009B019C012000219D
:100EE000039AF61AA741FFF773FA04000D00039B5B
:100EF000002B2BD0019B009ADB0750081843019B65
:100F00005908039B9C46B9422CD801D1B04229D83C
:100F100032003B00121A8B41012692185B410027D8
:100F2000B6185F4101235B429C446346002BEAD123
:100F300030003900039AFFF73FFA039AA4197D4164
:100F400006000F00FFF744FA241A8D410A9B002B7C
:100F500001D01E605F602000290005B0F0BD0024B4
:100F60000025C4E7B6197F41DCE700240025EDE742
:100F7000F7B517001E0004000D0000F0D6F80200BF
:100F80000B000090019138003100FFF759FF241A3F
:100F90008D41089B009801991C605D6003B0F0BD15
:100FA00070B54A02440245004E00C30F640A012096
:100FB0002D0E520A360EC90FFF2D02D0FF2E07D17B
:100FC00070BDFF2EFCD12243FAD14B401800F7E749
:100FD0000120B542F4D19442F2D18B4205D0002DCC
:100FE000EED12000431E9841EAE70020E8E730B543
:100FF0004A0244024500C30F4800640A2D0E520AFB
:10100000000EC90FFF2D0ED1002C38D1FF2804D0BF
:101010000120002B06D0023804E0002A2FD1100056
:101020008B42F5D130BDFF280BD1002A27D1002DEE
:1010300001D1002C1FD08B42EAD1002B1DD018000B
:10104000F0E7002D0ED00028E2D08B42E0D185429F
:10105000DEDCF2DB9442DBD800209442E2D2834211
:10106000EDD10AE00028E4D1002A02D1002CD9D029
:10107000CEE7002C06D1081ED4D1012000E00220CA
:101080004042CFE78B42E5D0C2E730B54A02440286
:101090004500C30F4800640A2D0E520A000EC90F06
:1010A000FF2D0FD1002C3BD1FF2804D00120002BB5
:1010B00007D0023805E00220002A02D110008B423E
:1010C000F4D130BDFF280CD1FD38002AF9D1002D14
:1010D00001D1002C1FD08B42E8D1002B1DD018006D
:1010E000EFE7002D0ED00028E0D08B42DED1854204
:1010F000DCDCF2DB9442D9D800209442E1D2834276
:10110000EDD10AE00028E4D1002A02D1002CD8D089
:10111000CCE7002C06D1081ED3D101204042D0E7F5
:101120000220CEE78B42E5D0C0E7F0B504000D0009
:101130001000190085B0002D11DB002B00DA82E0D1
:1011400026002F0014001D00BD4204D800D080E00E
:10115000B44200D87DE00020002105B0F0BD00239E
:101160006242AB41002968DB16001F0004000D003D
:10117000BD4278D801D1B44275D801235B42290021
:1011800020000393FFF730F9390002903000FFF799
:101190002BF9029B29001B1A1A0020000293FFF76B
:1011A00017F904000D00B94255D801D1B04252D808
:1011B00001200021029AFFF70BF9361BAF41009086
:1011C0000191029B002B2CD0EB0760081843029B77
:1011D00069089C4601240025B94241D801D1B0429A
:1011E0003ED832003B00121A8B4192185B41121913
:1011F0006B4116001F0001235B429C446346002B99
:10120000EAD1009C019D029A30003900FFF7D4F822
:10121000029AFFF7DDF8A4197D41241A8D4100944C
:10122000019500980199039B002B00D195E70300DD
:101230000C0000215842A1418FE716001F00002535
:1012400044428D4180E726002F00002544428D4115
:101250008EE7002393E70022002300920193B0E77A
:10126000B6197F41C7E700200021E0E7027A0300BA
:10127000002A11D1427AB020002A0CD0013A5A72C9
:101280005A68111D126859601A6003221A721A688E
:10129000100E12021A607047013AD2B2F6E71FB57B
:1012A00003AB009300230C221900FFF755FA0398B3
:1012B00005B000BD10B5FFF7F2FF10BDF0B500237B
:1012C000050087B0029103930298FFF7CFFF040057
:1012D000B02813D1039B002B0DD105AC19000E22B1
:1012E00028000094FFF738FA039B0F22190028000A
:1012F0000094FFF756FA002007B0F0BD030619D49A
:10130000FF2386001E40002305AF0D221900280090
:101310000097FFF721FA059A0436B318640600D542
:10132000931B059300230D22190000972800FFF757
:1013300038FAC9E703000F229343DBB2802B18D1A0
:1013400004020298FFF792FF802620433602B04243
:1013500001D10920D0E7002307010005020C190084
:101360002800FFF7A8FB0028F3D13742ACD00123B7
:10137000A9E7902B0ED10D2603003340B342E8D0ED
:1013800000230F2205AF0240190028000097FFF745
:10139000E3F9C7E7A02B14D1FF2109010A00993B0B
:1013A00083431A410A40240702D58023DB011A43F4
:1013B000002319002800FFF77EFB002800D183E7F7
:1013C000C7E7B02B4AD1B12808D10298FFF74EFFEA
:1013D000431EDBB202000E2BEAD9BAE7B22824D1B1
:1013E000002305AC0D22190028000094FFF7B4F982
:1013F0000298FFF73BFF022680277F23010003406E
:10140000B340059A3940384208D181208000121833
:10141000D21805920B000D22009487E7D21802988B
:1014200005920736FFF722FFE7E7B3280CD10298B1
:10143000FFF71CFFF0220303120313400F220240A8
:1014400001321A430123B4E7FC230340B42B80D0BC
:1014500007238022034001331203F2E7C02B47D158
:10146000C6280CD10298FFF701FFF02203031203F4
:1014700013400F22024001321A43032399E7C72881
:101480000BD10298FFF7F2FE431EDBB202000E2BD7
:1014900000D95EE7002304218CE7F8230340C02B2A
:1014A00005D1A022B13B034001331203E4E7C82871
:1014B0000ED10298FFF7DAFE0F2302009A43D2B250
:1014C000184010321203013002430A3B012171E738
:1014D000C92800D03DE70298FFF7C8FEF0220303B9
:1014E000120313400F22024001321A430523EDE795
:1014F000072203009343DBB2D02B00D029E714402E
:101500008022013412032243CB3BDFE71FB50300E7
:10151000DA6C080053680832190201910292694698
:1015200003221B0E0A734B7301A9FFF7C7FE05B018
:1015300000BD10B5FFF7BEFE806C10BD10B5FFF703
:10154000B9FEC06C43681B0E02339B00C01810BD6F
:1015500070B50400456A6B6A012B17D9AA6A9342D9
:1015600014D9144912018E18B37ADB06DB0E012060
:1015700098406861B07B2023E8545058290010310E
:1015800083689B680022984700280FD1A369002B2D
:101590000CD0A96A00290AD1696A01396A6A8A42AB
:1015A00004D960694A00825EA06A984770BD01391B
:1015B000F4E7C0464018010870B50B689C68636A80
:1015C0009A6A596A8A4204D2616952001025605FA2
:1015D00088522022A25C022A23D0596A012914D001
:1015E0009A6A01329A62914226D920220021A1549E
:1015F000E569002D1CD0996A62691F4BCB185B000E
:10160000D25E0139A06AA8470BE020230122E254F0
:10161000E369002B08D062690021525EA06A0021B4
:1016200098472023E05C70BD200002F0B7FDF8E78A
:10163000200002F0B3FDF4E72022A25C012A06D0CC
:1016400020220121A1549A6A013A9A62E9E7002214
:10165000202162549A62E569002D09D0596A6269B5
:10166000054BCB185B00D25E0139A06AA847D8E7CA
:10167000200002F093FDD4E7FFFFFF7F0048704792
:101680004018010870B558200EF09FFA051E07D0CB
:1016900001234362002406E028000EF08EFA0025A4
:1016A000280070BD0134686AA04212D91F4B220184
:1016B000D0580DF0AEFE0028EED023011B481818BC
:1016C0000BF00FFF0028EDDA28000EF076FA002567
:1016D000E6E740000EF079FA041E286401D00023EA
:1016E0000AE028000EF069FA2500D9E72A6C5900B3
:1016F00052180021118001336A6A9A42F6D80024F8
:10170000AC62AC876C64AC6400224C23EA542D6557
:101710006C6507492E002C3630000DF044FF2C601C
:10172000044B6B60AE60AC81BAE7C046401801085C
:1017300051150008B9150008F8B5041E2BD0866AAB
:10174000406A86422AD22160164836018719B97A42
:10175000C906C90E01258D4029003C25AC46A4448C
:10176000BD7B246161616146A1610221E1611E319D
:101770006554002121256155013561556164A264DC
:101780004C22A154636530582100103183689B6856
:1017900000229847F8BD16204042FBE71620404241
:1017A000F8E7C0464018010810B507480DF031FEB3
:1017B000002805D0044883681B680449984710BD79
:1017C00013204042FBE7C04684100108501801086E
:1017D00010B50200024883685B680121984710BD7C
:1017E0008410010810B505480DF013FE002801D043
:1017F000002010BD13204042FBE7C046D410010872
:1018000010B503000A00034881684C6C1900A0471A
:1018100010BDC046D410010810B5024883689B6A09
:10182000984710BDD410010810B50100024B1800F4
:101830000BF071FE10BDC046D410010810B5024B6C
:101840001B68984710BDC04680010020014B1860FE
:101850007047C0468001002030B585B004000D00FF
:101860001022002168460AF0C9FA02236A469370E2
:10187000044B01932A00210068460BF0C9FB05B018
:1018800030BDC0463D18000870B506000D000024AC
:1018900004E0305D034B1B6898470134AC42F8D339
:1018A00070BDC04680010020F0B5C64600B50400FA
:1018B000884616001F0003F097F803000FF09CFA0B
:1018C000054D2B503A0031004046A0470FF094FAE6
:1018D000285800F01FF9C0460800000082B00B4BEA
:1018E0009A698021C9030A439A619A690A40019260
:1018F000019A07494A68022002434A609A690549E9
:101900000A409A61002002B07047C04600100240B1
:1019100000580140FFFFBFFF10B5064A0649521AA2
:1019200006480EF02CFE064A136803218B430B4336
:10193000136010BDC0000008000000080000002077
:1019400000000140044A136810210B431360034B4D
:10195000034A1A607047C046002002403C02002043
:1019600000127A0030BFFDE770B50400054D06494E
:101970002A000EF004FE6019044A00210AF03EFA23
:1019800070BDC046000000002413010808000000DC
:1019900070B50600054C064BE4180D1B2800FFF738
:1019A000E3FF083DB5662000083070BD0000000070
:1019B00008000000054B5A699B689A4205D0044A0A
:1019C000516880235B050B435360704790060020ED
:1019D00000ED00E070B50C0083690F4A9A4202D80E
:1019E0000E4A934207D30E4A93420DD30D4A9342B7
:1019F00001D3002509E0023B1A880B4B9A4201D023
:101A0000002502E0056800E0002501210BF0EFFF52
:101A10002070280070BDC046C0000008040E0108F8
:101A2000C0000020C000002002DF0000F0B58BB035
:101A30000C00204B5968C905C90D62B6BFF36F8F02
:101A4000130E1B06FF252D06AB4215D10C231340A8
:101A5000082B14D012070CD5002727256D442A0027
:101A600020000BF0C6FF06002B78002B0AD00BB02D
:101A7000F0BD04000127F0E700270024EDE7002770
:101A80000024EAE72022210001A80EF078FD002FB3
:101A900006D0089BDA0507D1074A1343089303E0F1
:101AA000089B5B0A5B02089301A930000BF08AFFD8
:101AB000DDE7C04600ED00E0FF010000024A536987
:101AC00008218B435361704700ED00E0EFF308807D
:101AD000EFF3098101B57246FFF7A8FF01BDC046CB
:101AE000094880F3088872B608480949401880F30D
:101AF0000988EFF314800221084380F31488BFF3B0
:101B00006F8F0BF08CFF00009030002090170020AA
:101B10000008000010B50B4B9B68834202D002F016
:101B200069FF10BDEFF30583002BF8D0064B596811
:101B3000802252050A435A605A6A04490A405A628E
:101B4000EDE7C0469006002000ED00E0FF7FFFFFBC
:101B500015498A6815481044EFF3098CF0C04346D4
:101B60004C4655465E466746F8C072B6104F114E59
:101B70004A698A603E60104C141920680F4C20603E
:101B8000D06E0023D366002800D162B6074C10192E
:101B90001030F8C89846A146AA46B346BC46243839
:101BA000F0C88CF3098870479006002030000000D0
:101BB00004ED00E00000000868000000A804002018
:101BC00004207146014202D0EFF3098001D1EFF306
:101BD00008808169023909780229FFD001B572466F
:101BE0000BF0F9FE01BDC04670B5002811DB83087B
:101BF000134DC0339B005C5903221040C000FC32DF
:101C000016008640B44389010A40824022435A515B
:101C100070BD0F230340083B9B0806339B00094A15
:101C2000944663445C6803221040C000FC321500F7
:101C30008540AC4389010A40824022435A60E7E76D
:101C400000E100E000ED00E043B2000605D41F22F1
:101C50001A4001239340014A1360704700E100E0FD
:101C600010B5203A094991610124A14391611360A3
:101C7000029B5360039B9360049BD36080235B04AF
:101C8000D36102650023C36610BDC046A9180008D1
:101C900070B50E001500084B9860826E074B1A60F5
:101CA0002C1C86F309880020054B9847201C002136
:101CB00000220023034C204790060020A8040020A7
:101CC00035DA0008A9180008014B10221A61704784
:101CD00000ED00E070B5002811DB8308134DC03320
:101CE0009B005C5903221040C000FC321600864065
:101CF000B44389010A40824022435A5170BD0F23E8
:101D00000340083B9B0806339B00094A9446634402
:101D10005C6803221040C000FC3215008540AC43D3
:101D200089010A40824022435A60E7E700E100E06F
:101D300000ED00E010B5EFF30582103A044BD2003D
:101D4000D0589B185B689847FFF734FE10BDC0461B
:101D5000E810010810B5024B1B689847002010BD21
:101D6000AC040020034B1860034A937802210B4314
:101D700093707047AC0400208401002010B5044823
:101D80000BF013FE62B6BFF36F8F0423181C02DF43
:101D90005418010810B5034801225242D3170BF022
:101DA00066FE10BD9401002010B505490723994334
:101DB000044A521A04480BF0A9FD002010BDC04689
:101DC000973C002000400020B004002070B50500C2
:101DD000FFF7E0FF09482A0008210BF022FD041E4E
:101DE00004D0074802F016F8200070BD002DF8D08E
:101DF0000FF002F8034B0C221A50F2E7B004002057
:101E0000940100200C00000010B50400FFF7C2FF91
:101E1000034821000BF0C2FC024801F0FBFF10BD9B
:101E2000B00400209401002030B5FF230B40064D84
:101E300002339B005A59090C0F248C40A24388405E
:101E400002435A5130BDC0460000014070B5050044
:101E5000002401E00134E4B26B78A34214D32B7860
:101E6000E318DAB201209040084A526902408242E7
:101E7000F0D1064A5061064AD9008E58002EE9D0AA
:101E800052185168B047E5E770BDC04600040140F4
:101E9000BC04002030B5002303E0C418024D2A55CD
:101EA00001339942F9DC30BDA801002010B5041EB1
:101EB0000ED0FEF7DBF9C0B21F231B1ADBB2054AB6
:101EC000D056054B1A6814431C60FFF7BDFE10BDC9
:101ED000FF23F4E7A801002000040140024A136830
:101EE000834313607047C0460004014002291ED09E
:101EF0000BD8002913D0012918D1114B9A6802433D
:101F00009A60DA688243DA6010E003290ED10C4B44
:101F10009A6802439A60DA681043D86006E0084B7A
:101F20009A6882439A60DA688243DA607047044BA9
:101F3000DA680243DA609A6882439A60F6E7C0463C
:101F40000004014070B50D001400002814D0FEF705
:101F50008DF9C0B21F231B1ADBB21A000D49D8003D
:101F60004158A9420AD0002910D10A4BD200D550BD
:101F70009B185C60002070BDFF23EEE70548DB0086
:101F8000C0184368A342EED10020F4E7102040427D
:101F9000F1E7C046BC04002010B500280CD0FEF7C5
:101FA00065F9C0B21F231B1ADBB2044ADB00002113
:101FB0009950D218516010BDFF23F6E7BC040020F1
:101FC000032303409B0480080343FF221A4002328C
:101FD0009200044952581B0C0F2098401040D840E2
:101FE0007047C0460000014043681A68936803497F
:101FF0000B4004210B4393607047C046E8FFFF7F0E
:102000008368DB0714D583685B0708D58368094AB2
:10201000134010221343836083685B07FCD48368FA
:10202000044A13400222134383608368DB07FCD415
:102030007047C046E8FFFF7F00B583B043689968EA
:102040000A4B9B68DB68002B02D0084801AA98471E
:102050000199002908D0064B1868FEF731F84000B6
:1020600000E001380028FCDA03B000BD940F01083D
:102070003C02002043681A689168044B19401833E9
:102080000B4393609368002BFCDB7047E8FFFF7FF6
:1020900010B54468002913D00B4B994212D0002090
:1020A00007280ADC03000C335B001A5B074B134361
:1020B0009BB28B4203D00130F2E71620404210BDA4
:1020C0000020FCE70720FAE7FF3F000000C0FFFF09
:1020D00070B544682568A168074883681B689847FD
:1020E000002806D122692B699B009B0813432B61B2
:1020F00070BD05204042FBE7940F010870B5040055
:102100008368012215001D401A421BD102608368BA
:102110000F490B401343836005E0013564200DF047
:1021200068F9092D10D82368DB0709D4A368DB07F9
:10213000F3D4A368064A134001221343A360ECE7DB
:10214000002003E0002001E07420404270BDC04642
:10215000E8FFFF7F10B502480BF039FF10BDC04605
:1021600070100108F8B5040005694668376815481D
:102170000DF04FF9002822D0A823EC505733BE228F
:10218000AB540132AB542000FFF7A2FF706900216D
:102190000BF040FF00280FDB7368002B00D098473E
:1021A00020000BF0B3FDFB68074A1340FB602800DA
:1021B0000BF07DFE0020F8BD831CFCD1ECE7132062
:1021C0004042F8E7940F01083FF2FFFF70B513009B
:1021D00085680469DA0208D5C0221203134204D0CC
:1021E000DA0702D5C02212035340094A1A40DB071E
:1021F00007D5236801268E40334323602B68984718
:1022000070BD236801268E40B3432360F6E7C046C5
:10221000FFFFEFFF70B50B00150044682069217DBA
:102220001A000BF021FFA069002803D0217F2A00AB
:102230000BF01AFF7823E05A0021054A002380188A
:102240005941044A0023FEF773F802F085FB70BD84
:102250009F860100A0860100F8B54668306A370005
:102260002037397901220BF0FFFE7423F05A002148
:102270000D4C0025001969410C4A0023FEF758F85F
:1022800002F06AFB306A397900220BF0EDFE76230A
:10229000F05A002100196941044A0023FEF748F86A
:1022A00002F05AFBF8BDC0469F860100A0860100DF
:1022B00082B00B881B051B0D0C4A9A181205120DD3
:1022C000082A10D80A4A944663444A6818680243A8
:1022D0001A600B881B051B0D63441B680193019B4F
:1022E000002002B0704786204042FAE7EC0F000061
:1022F000001002400B881B051B0D094A9A18120595
:10230000120D082A08D8074A9446634449681A6897
:102310008A431A600020704786204042FBE7C0468F
:10232000EC0F0000001002400B4B1B689B0708D409
:10233000094A136801210B431360074B1B689B0775
:10234000FBD5054A536803218B435360024B5B68FE
:102350000C221A42FAD1704700100240064B1B684B
:102360009B0708D4044A136801210B431360024BF6
:102370001B689B07FBD570470010024070B50C002E
:102380001500224B1E68022130000CF036F923881C
:102390001B051B0D072B2DD023881B051B0D1C2B8C
:1023A0002BD89B001A4AD3589F462E602268802360
:1023B0005B019A4227D32868110B0131FDF780FE9B
:1023C000286000201BE02860F0E72860EEE72E6020
:1023D000ECE700F0F9F8002812D000F0F5F82860DA
:1023E000E4E700232B60E1E700232B60DEE7094BE5
:1023F0002B60DBE78620404201E08620404270BD32
:1024000005204042FBE70020F9E7C0463C020020DF
:102410008019010800127A0010B5124B5A680C237B
:102420001340082B15D00F4A13680F490B40136057
:102430000C4B1B689B01FBD400F0B4F8094A1168EF
:1024400080235B040B431360064B1B689B01FBD589
:1024500010BDFFF769FF034A5368F0218B435360B7
:10246000E1E7C04600100240FFFFFFFE10B50C0080
:1024700008880005000D0CF0C4F800281EDB636816
:10248000FF2B1CD01A04120C0E498C466244980D86
:102490001F2101401B0C3F20034099400B00116895
:1024A0009943116061680B041B0C6344CA0E090C4C
:1024B0000840824019680A431A60002010BD0020BD
:1024C000FCE7C0460010024010B508880005000D6A
:1024D0000C4BC3181B051B0D082B0BD80A4B9C4635
:1024E000604403684A6813409A4201D0012010BD3D
:1024F0000220FCE70CF085F8002801D00120F6E767
:102500000230F4E7EC0F00000010024070B500F05C
:102510005FF81F4C20000CF083F801F02FFA1D4BE0
:102520005A6812090F2313401B4AD35CD840050098
:1025300013781C41A04223D3FFF710FFFFF76CFF75
:10254000144A5368F0218B4353605368ED398B4331
:1025500001390B4353600F4B5A680C231340082B6F
:10256000F9D1A54210D20D4B094A1A6009494A68AF
:102570000B4B1A408023DB0013434B60002070BDDF
:10258000200001F037FAD7E7200001F033FAEAE73C
:10259000006CDC0200100240101D01083C0200200B
:1025A000FFF8FFFF064B5968064A11408422520388
:1025B0000A435A60DA6A0F218A43DA627047C046DA
:1025C00000100240FF7FC2FF00487047006CDC0231
:1025D00082B00A4BDA69802149050A43DA61DA6977
:1025E0000A400192019A99690122114399619B69FC
:1025F0001A400092009B02B07047C0460010024093
:1026000010B504000A2806D0E1B2064883685B686A
:102610009847200010BD034883685B680D219847E8
:10262000F2E7C0464810010810B5044C2000FFF73F
:1026300099FB2000FFF70AF910BDC04601260008EB
:1026400010B506480CF0E5FE002803D0FFF7ECFFBC
:10265000002010BD13204042FBE7C046481001088F
:1026600010B5036944681878884230D3002931D006
:102670005878012383409A422FD2082803D00C288F
:1026800013D0002010BD236801391548890009586E
:102690000833090E89003C2001405B181968C330DB
:1026A00081430A431A600020ECE7236801390C4893
:1026B000890009580833090C89003C2001405B1847
:1026C0001968090B09030A431A600020DAE716208B
:1026D0004042D7E716204042D4E716204042D1E7D7
:1026E0003C1A010870B5026945680B78107883427E
:1026F00027D8002B28D04B78082B01D00C2B26D1C3
:1027000053700B78013B154A9B009C588B78DB0774
:1027100015D500202E6833681022224002249440F0
:10272000A3439040034333608B789B0712D42868FF
:102730000368012191400B430360002070BD02201B
:10274000E8E716204042F9E716204042F6E78620E7
:102750004042F3E786204042F0E7C0463C1A0108B9
:1027600070B545680E480CF054FE002812D0291DA3
:102770000B4883681B689847041E0ED1E868002147
:102780000BF04FFF002801DB200070BD831CFBD045
:102790000400F9E713246442F6E705246442F3E7F2
:1027A000940F010870B5836805699C69002C10D0EE
:1027B000130207D52D6801238B402B4202D0C02382
:1027C000DB045A40044B134096252D052A40A047B0
:1027D00070BD58204042FBE74000000670B5130072
:1027E00085680469DA0208D5C0221203134204D0B6
:1027F000DA0702D5C02212035340094A1A40DB0708
:1028000007D5236801268E40334323602B68984701
:1028100070BD236801268E40B3432360F6E7C046AF
:10282000FFFFEFFF70B54468056960680CF0F1FDCB
:10283000002824D0E068002824D00CF0EAFD00280D
:1028400022D0802120000C3049020BF01DFF00280F
:102850001DD1E068217CB822D204FFF7A3FF002835
:1028600018D129003C31227C012393400C4A2A6470
:102870006B64E0680BF012FF00280ED170BD1320CE
:102880004042FBE70020F9E713204042F6E705202D
:102890004042F3E705204042F0E705204042EDE7E3
:1028A000EDE9000810B54368002906D00C33190083
:1028B000054883681B68984710BD0C33190002480F
:1028C00083685B689847F7E7940F0108F8B5CE4630
:1028D000474680B50F0014001D0043689846036901
:1028E0009946434698680BF0EAF8060082231B05D8
:1028F0009C421AD084231B059C421AD080239B0340
:102900009C421AD08023DB039C423AD08023DB0414
:102910009D4232D0C023DB049D4230D080239B04F3
:102920009D4211D01624644222E0FFF7D7FA00241A
:102930001EE0FFF7BBFA00241AE04346986839000E
:102940000CF0FCF9002413E0022511494A4630003E
:10295000FFF7F8FA041E17D14346996838000BF0C8
:10296000B1F829003000FFF7C1FA3000FFF79EFAF6
:102970002000C0BCB946B046F8BD0125E5E70325F7
:10298000E3E786246442F3E710246442F0E7C0469C
:10299000D3EA000810B504000369586007480CF03A
:1029A00038FD002807D001212000FFF77BFF002819
:1029B00000DB002010BD13204042FBE7940F01080C
:1029C0000E4B984210D007D90D4B984212D00D4BA8
:1029D000984211D10A2006E00B4B984206D00B4BCF
:1029E000984205D1042070470620FCE70220FAE750
:1029F0000020F8E70820F6E70020F4E740420F0047
:102A000040E13300404B4C00A0860100801A0600D4
:102A100030B544680569E0684468E40107D54A6850
:102A2000436826490B4012041343436030BD2C6BAE
:102A3000E40719D54568224C2540802424012C4305
:102A400044604468A40AA402234343600B7A9B07B2
:102A500015D4002A13D013785B0710D44268802362
:102A60005B04134343600EE04468154D2C40446002
:102A70005B004468A40AA40223434360E6E743687A
:102A8000104A1340436043680F4A13404360436851
:102A90000E4A1340039A134343604A684368074948
:102AA0000B40120413434360036801221343036085
:102AB000426880239B0113434360B7E7FFFF00FF99
:102AC000FFF7FFFFFFFFFFFEFFFFFFFDFFFBFFFF25
:102AD00070B543680569DC680CF061F96368DB0177
:102AE00003D56368074A134063605D23EB5C002BEA
:102AF00003D12368012293432360280001F0E6F903
:102B000070BDC046FFFFFFFE10B543680469DB6877
:102B1000626D002A11D09A69920702D5A26D1278CF
:102B20009A629A69520702D5A26D596A1170A26D14
:102B30000132A265626D013A62659A69D20612D4C9
:102B40009A6992061BD49A69520602D49A691206AF
:102B500014D5226D127A92071CD559688022D201B1
:102B60000A435A600AE0DA6910210A43DA61012255
:102B7000A26459688022D2010A435A6010BDDA6902
:102B800020210A43DA615A6805490A405A60FFF772
:102B90009FFFF3E70CF003F9200001F097F9EDE750
:102BA000FFFFFFFE70B582B0050040682C69C66863
:102BB000486860650868A065012020640020A06462
:102BC000E064216500902800FFF722FF28000CF048
:102BD00006F933680222134333601A4A00232000A7
:102BE00001F0C2F900280DD10021A36C002B14D1F3
:102BF000E26C002A11D1626C002A0ED100290CD19E
:102C000000201DE02800FFF763FF01225242D31786
:102C1000200001F0A9F90121E7E7626C002A01D048
:102C200000226264002B01D00023A364E36C002B1C
:102C300004D00023E3640520404201E00520404227
:102C400002B070BD8813000070B582B00500406806
:102C50002C69C668486860650868A0650020206423
:102C60006064E064A06421658020C00000902800BA
:102C7000FFF7CEFE28000CF0B2F8336804221343AD
:102C800033601A4A0023200001F06EF900280DD1AC
:102C90000021A36C002B14D1E26C002A11D1626CCC
:102CA000002A0ED100290CD100201DE02800FFF7DA
:102CB0000FFF01225242D317200001F055F90121E4
:102CC000E7E7626C002A01D000226264002B01D089
:102CD0000023A364E36C002B04D00023E3640520ED
:102CE000404201E00520404202B070BD8813000060
:102CF000F0B5DE4657464E464546E0B585B00E0077
:102D0000476803699846FB689B46002400E001344D
:102D1000FB69A34216D9BD6963001B199B00ED181E
:102D20006868FFF74DFE400843461B6B5B08584040
:102D30004007ECD12B68B342E9D1AB685A46136126
:102D4000002063E043461A6B520807231340012B0F
:102D50000DD0022B65D1364B9A4696239B0099469F
:102D6000643B98467823FF33039301270DE0314BF2
:102D70009A46FA231B0199462F4B9846FA235B008B
:102D80000393F2E701370F2F49D839003000FDF7E0
:102D900097F901002948FDF793F90500010048461D
:102DA000FDF78EF9040029005046FDF789F90190DE
:102DB00029000398FDF784F9029029004046FDF7A9
:102DC0007FF9013CFF2CDDD8019B013BFF2BD9D8BB
:102DD000029A0F2A21D801380F281ED87A1E12070E
:102DE0000005F02109040840024302990904F0207B
:102DF000000301400A432406240C2243FF210B4018
:102E000013430F2F10D85A461361002005B0F0BCB1
:102E1000BB46B246A946A046F0BD0137B3E7002342
:102E2000EFE716204042F1E716204042EEE7C046A9
:102E3000140500005C120000E204000000CA9A3B86
:102E40000E4B984210D007D90D4B984212D00D4B23
:102E5000984211D10A2006E00B4B984206D00B4B4A
:102E6000984205D1042070470620FCE70220FAE7CB
:102E70000020F8E70820F6E70020F4E740420F00C2
:102E800040E13300404B4C00A0860100801A060050
:102E900010B54468606900210CF090F8002806DB4A
:102EA0006168054883681B689847002800D110BDF9
:102EB00005204042FBE7C046940F010843680069C3
:102EC000DB685E228154002903D11A6801490A4057
:102ED0001A607047FFFFCFFFF0B583B004000E000B
:102EE00043680569DF68002201929A68012A33D994
:102EF000596808311F4B9B68DB68002B29D01D489F
:102F000001AA9847002824DB2E632E0018360122E0
:102F10005242D317300001F027F83B680122934357
:102F20003B605E23E95C2000FFF7C8FF01992000A9
:102F3000FFF7DEFE04005D23EB5C002B03D03B6853
:102F4000012213433B60300000F0C0FF200003B0BB
:102F5000F0BD05246442F9E75968064B9B68DB68BD
:102F6000002B04D0034801AA98470028CCDA052496
:102F70006442EBE7940F010870B5040046680569E8
:102F800001225242002128000CF0A3FA33682000ED
:102F9000984700235C22AB540232AB54280018300F
:102FA0005D3A01210CF095FA15480CF032FA002830
:102FB00023D02000FFF76CFFB368012B0BD9716899
:102FC00008310F4B9B689B69002B13D00C480022E3
:102FD000984700280EDB3069FFF732FF10210143CC
:102FE0002000FFF779FF002803DB5C230122EA546D
:102FF000002070BD05204042FBE713204042F8E767
:10300000940F0108F8B505000E0017000409102CF4
:1030100014D80C4BA400E458002C0CD020000CF069
:10302000F8F9002807D00F2129403B00320020008A
:103030000BF09CFEF8BD13204042FBE716204042F7
:10304000F8E7C046F41B010830B583B00C004368B4
:103050001D6802691068D9688368DB68002B10D08E
:1030600001AA984700280CDB2B68074A13402B6005
:1030700001986308C0182100FDF722F80004000C35
:10308000E86003B030BDC046FF7FFFFF4368002902
:1030900006D01A6891688023DB010B439360704768
:1030A0001A68936801490B409360F8E7FFBFFFFF80
:1030B000F8B5DE4657464E464546E0B504000D00DD
:1030C00043689C4603695E680979012916D0022984
:1030D00017D18023DB006A79012A17D0022A17D082
:1030E000002A10D080229201A879022813D0042847
:1030F00018D0002900D07FE0002015E0C023DB00BD
:10310000E9E70023E7E780225201EDE70022EBE741
:10311000C0229201E8E7002901D0002004E08020CD
:10312000400501E080204001E979012967D00027AE
:10313000BA4603390F0079427941C9B28B46AE4293
:1031400061D067463F68B8463F68BC46C027FF006D
:10315000B946674649460F40BB420AD04146096816
:103160008C463B49894661464F4639400B434146B0
:103170000B6063681B689C465B68C02189010B403B
:103180009A4206D063465B6832490B401A43634655
:103190005A6063681A6813682F490B40984204D03C
:1031A00013682E490B401843106063681A689368CF
:1031B000C020800003409A4505D09368284803400A
:1031C00057461F43976063681B6898688022D20146
:1031D00003001340104200D001235A1E9341DBB27A
:1031E0009B452AD12968336899422BD1F0BCBB4654
:1031F000B246A946A046F8BD8020400194E7C0270A
:10320000BF00BA4695E761460E683168154F3940F0
:1032100003430B43336073680E490B4013437360E1
:1032200063681A6893680E490B4051460B439360DC
:1032300029682000FFF708FFD8E759462000FFF76C
:1032400025FFCFE72000FFF7FFFE2B683360CDE7B7
:10325000FFF9FFFFFFCFFFFF00100010FFEFFFEFB0
:10326000FFFCFFFFFFE9FFEFF8B5CE46474680B50C
:1032700006000C0043681D6803695B6899460B797A
:10328000012B17D0022B19D18022D20094466279EB
:10329000012A19D0022A19D0002A12D08027BF0192
:1032A000A1798846022914D0042919D0002B5AD1BB
:1032B000002017E0C022D2009446E8E7002294469E
:1032C000E5E780277F01EBE70027E9E7C027BF019B
:1032D000E6E7002B01D0002004E08020400501E05B
:1032E00080204001D91EC9B2012952D9002B02D039
:1032F0004346042B50D080235B019F4238D0C0232B
:103300009B019F4236D0002F30D003239A4246D1F2
:1033100061460BF0EBFE804544D1E379002B0FD0E2
:10332000012B29D0032B40D1234B9D4208D0234BA6
:103330009D4205D0224B9D4202D0224B9D4237D167
:103340002B680127BB432B6021003000FFF7B0FE44
:103350002B683B432B604B4606CC06C30020C0BC09
:10336000B946B046F8BD80204001BBE70123CDE758
:103370000023CBE70223C9E70F4A9542E0D00F4A6A
:103380009542DDD00E4A9542DAD00E4A9542C9D117
:10339000D6E786204042E2E786204042DFE78620EB
:1033A0004042DCE786204042D9E786204042D6E70B
:1033B00086204042D3E7C046003801400044004028
:1033C00000480040004C004070B504000D00036947
:1033D0005B681B680B6043681B681B68C022D200D7
:1033E00013408022D200934236D0C022D2009342B2
:1033F00034D101232B7163681B685B68C022920182
:1034000013408022520193422CD0C0229201934259
:103410002AD0002B24D003236B7163681B681868C3
:10342000134A10401968C023DB0019400BF05EFE00
:10343000A87163681B689B68C02292001340934286
:1034400014D00023EB7163681B689B685B0401D593
:103450000323EB71002070BD0223CBE70023C9E7F3
:103460000133D9E70023D7E70223D5E70123E9E7B2
:103470000010001010B5024A0BF052FE10BDC046FD
:1034800075F1000810B5024A0BF05BFE10BDC04696
:103490007BF1000870B504000D00160043681B683E
:1034A00018680A4A10401968C023DB0019400BF065
:1034B0001DFE042806D0064B3200290020000BF028
:1034C00093FE70BD86204042FBE7C046001000100E
:1034D0003BF2000870B504000D00160043681B683D
:1034E00018680A4A10401968C023DB0019400BF025
:1034F000FDFD042806D0064B3200290020000BF009
:103500009FFE70BD86204042FBE7C04600100010C1
:103510007DF2000843681B68EFF31080012181F3FE
:1035200010889A680A439A6080F310880A4A934286
:1035300002D00A4A934203D15A6840210A435A6092
:10354000EFF31081012282F310881868FF320243E2
:103550001A6081F310887047003801400044004031
:1035600043681B68EFF31080012181F310889A688B
:103570008A439A6080F310880A4A934202D00A4A2A
:10358000934203D15A6840218A435A60EFF3108175
:10359000012282F310881A68044802401A6081F3FD
:1035A000108870470038014000440040FFFEFFFFD4
:1035B00070B545680469074820600BF02AFF0028B1
:1035C00005D02068E96883681B68984770BD1320A0
:1035D0004042FBE7940F0108F8B5060045682C68E7
:1035E00003695F68236801229343236068680BF0D6
:1035F00010FF002800D183E06868A9680BF06CFD1B
:10360000EFF31081012383F3108823680C22934386
:103610001343236081F3108839003000FFF748FD21
:103620002B7D002B03D0A36808221343A3606B7D7E
:10363000002B06D06268354B1A4080231B021343CF
:103640006360AB7D002B06D06268314B1A4080234B
:103650005B0213436360EB7D002B06D062682D4B49
:103660001A4080239B02134363602B7E002B2AD0D9
:10367000294B9C4208D0294B9C4205D0284B9C42A8
:1036800002D0284B9C423ED173681A68916880230F
:10369000DB010B4393606A7E236823490B4052058C
:1036A00013432360AA7E236820490B40120413436E
:1036B0002360EB7E002B06D0A268144B1A408023B7
:1036C0001B021343A360236801221343236001E01C
:1036D000002B0AD1E169802292030B0013401142B2
:1036E000F6D00123F4E7002808D1E1698022D20353
:1036F000080010401142F6D01800F4E70020F8BD91
:1037000013204042FBE716204042F8E7FF7FFFFF0F
:10371000FFFFFEFFFFFFFDFF0038014000440040B7
:1037200000480040004C0040FFFF1FFCFFFFE0FF8F
:103730000F4B9A6819689B68002A01D10D4A1268DC
:10374000002B01D10B4B1B68C90301D49A4207D24D
:1037500009490A680748006812180A60044A126892
:10376000044A1068C01A044B1B68C0187047C04652
:1037700010E000E08C060020800600200A4A136A50
:103780001B021B0A1362094B962252011A60084B56
:1037900000221A60074B084959609A601A6807218D
:1037A0000A431A600020704700ED00E08C060020FC
:1037B0008006002010E000E0BF12000070B5FFF7A7
:1037C000B7FF0D4B18680D4A1168401810600022B1
:1037D0001A600B4D2C68001B96214901FCF770FC08
:1037E0008200121813019B1A9B01E4182C6001F04F
:1037F0004FFBFEF7DFF870BD800600208806002032
:1038000084060020F8B5CE46474680B5002948D04A
:10381000431C3CD03A4B1F68012848DD394B984285
:1038200000DD1800441EEFF3108372B69846FFF7D0
:103830007FFF354B9B689946344B1D6845191D60C9
:10384000334B00221A60334B1E68A81B31D4A200F0
:10385000121913019B1A9B01C0182F4B9C46604400
:1038600096214901FCF72CFC8300181803011B1A50
:103870009B01761BF61833008022D200964200D2BC
:103880001300264A964231D91D4B1A6015E01E4A94
:10389000136801218B431360194BFF2212061A6033
:1038A00020E0174B1F68431CB6D11D48B6E7002423
:1038B000B9E7134B8022D2001A60134B9968104A63
:1038C0001268013A5A6000229A60894511D27F1A23
:1038D0004F440E4BEF191F604346002B02D162B6D6
:1038E000BFF36F8FC0BCB946B046F8BD044A136041
:1038F000E3E74B46591A054A6D181560ECE7C046D8
:103900008C060020A70D000010E000E088060020D3
:103910008006002084060020BF12000080E8FF001F
:10392000A60D000070B5EFF3108572B6084B1C6849
:10393000084B1B68E41AFFF7FBFE0019002D02D1AB
:1039400062B6BFF36F8F96214901FCF7B9FB70BDDA
:10395000880600208406002070B5EFF3108572B64B
:10396000054B1C68FFF7E4FE2018002D02D162B65B
:10397000BFF36F8F70BDC0468806002010B5184B8E
:103980005A680C231340082B03D00C2B25D1154863
:1039900010BD910C0F2319401348445C1049C96AAB
:1039A0000B401249C95CC0235B021A4080235B02B2
:1039B0009A4208D0C0235B029A4209D00C48FCF717
:1039C0007FFB6043E4E70A48FCF77AFB6043DFE7EC
:1039D0000448FCF775FB6043DAE70548D8E7C046C2
:1039E00000100240006CDC02301D0108201D01089F
:1039F00000127A0000281BD00E4B984214D90121E6
:103A00000D4A1368012083430B43136002220A4BC3
:103A1000186801230340013A994201D0002AF6D1E7
:103A2000994203D0012004E00021E9E7002000E0F2
:103A30000120704700366E0100200240034B00E079
:103A40001433034A9342FBD37047C046940F0108D6
:103A5000E810010870B5EFF3108572B6064B9C684C
:103A60000BF0ECFC002D02D162B6BFF36F8F20008B
:103A7000FEF750F870BDC0469006002070B50500F6
:103A80000A4B8200D45802E02368984708346B1C24
:103A9000064A9B009B58A34206D96368002BF3D0CB
:103AA00020000BF0CEFCF1E770BDC046481D0108B8
:103AB000F0B5C64600B588B0040005012F1AFF0016
:103AC000124EBF190102124BC91880000019800064
:103AD000104BC018104B0793802294460022059289
:103AE000012304930E330393029201920090079BEB
:103AF00062465200380000F0ADFB7B7B042293430A
:103B00007B7308B080BCB846F0BDC0468802002078
:103B1000901F00209006002087F4000810B51900BF
:103B2000114302D100F040FF10BD0249183001F0EE
:103B300023F9F9E717F8000830B587B0184C14E0FE
:103B4000E368A26861682068656A0595256A04953E
:103B5000E5690395A5690295656901952569009553
:103B600000F078FB23685C6530340E4B9C42E7D351
:103B700000F008FE0A4C03E02068FFF7CFFF303466
:103B8000084B9C4207D2A26AE36A1900501CF3D189
:103B90000131F4D0F0E700F00BFE07B030BDC046B5
:103BA000E8110108E811010810B50B4B01241C7045
:103BB0000320FFF763FF01F013FB0BF063FC04200D
:103BC000FFF75CFFFFF7B8FF09F0AFFC034A137B78
:103BD000A343137310BDC0468817002000030020C4
:103BE00010B50100024A034B1800FEF751F8C04619
:103BF000A93B00080003002010B5034A0348121A2D
:103C000000210BF037FC10BD8C170020880200202B
:103C100010B50400FFF74CFF23011B1BDB000A4A11
:103C20009B180A4AA100081980001018C360047488
:103C3000E30207481B1880200001844663440919E9
:103C400089005218536010BD8802002090060020A1
:103C50009017002030B587B000F0E2FD104B114CFA
:103C60005C61114B8022114911480590012004909C
:103C7000002003900290019000905201200000F07B
:103C8000E9FA0500637B04229343637320000BF081
:103C90005EFD0020FFF7BCFF280007B030BDC04626
:103CA0009006002000030020A93B0008902000207F
:103CB000401D010810B50020FFF7E0FE0F4B83F315
:103CC00008880F490A6A0F4B1A40C0231B0413438C
:103CD0000B62FDF7F3FEFDF7F7FF0B4800F0EAFA81
:103CE000FFF7ACFEFDF72EFE0120FFF7C7FE022016
:103CF000FFF7C4FEFFF7AEFFFFF772FF901F002033
:103D000000ED00E0FFFF00FF78030020F0B5C6469D
:103D100000B582B0040016001D00EFF3108772B6E4
:103D20003B00C168002915D1002953D1374A926858
:103D3000927B52B222610131E160344A9268A26002
:103D4000002B02D162B6BFF36F8F002002B080BC9F
:103D5000B846F0BD82682D4880688242E4D02900D0
:103D6000314339D0807B40B20E23D3569846190098
:103D70000BF092FB0100804536DC00239846244876
:103D8000009601952200390000F03EFC0028DDD0AD
:103D9000EFF3108672B63500A368002B2BD0236892
:103DA0009C4226D0002B24D00E20185621690BF0FF
:103DB00073FB010020000BF07AFB00281ED1434664
:103DC000002B1BD1002D02D162B6BFF36F8F0B20E9
:103DD0004042BBE72269ADE7002F02D162B6BFF3D4
:103DE0006F8F10204042B1E720000BF060FB80464F
:103DF000C5E72169DEE74346002BE3D004483100E4
:103E000000F090FC0B204042A0E7C0469006002046
:103E1000B0060020F0B5C64600B504008368002B4C
:103E20004AD0284A9268934249D1C368012B06D9E7
:103E3000013BC3600025280080BCB846F0BDEFF30D
:103E4000108772B6B84601690BF031FB2668B442A0
:103E500011D033005A1E9341DDB2002B0DD1A66064
:103E6000002D1BD10023E3604346002BE3D162B653
:103E7000BFF36F8FDFE70026EBE7726833681360EC
:103E80005A60002333607360727B02218A4372732D
:103E9000B360300018300BF05CFDE0E70E23F35602
:103EA00023610023336730000BF051FC06483900D2
:103EB00000F038FC0025BEE716256D42BBE7012562
:103EC0006D42B8E790060020B0060020F0B5C64667
:103ED00000B50400EFF3108672B637000568A842FB
:103EE0001FD02B005A1E9341DAB29046002B1AD1F4
:103EF0004346002B28D1A368E26893422BD00122CD
:103F00009B18A3602000103002210BF01EFE002839
:103F100023D1002F02D162B6BFF36F8F80BCB846A9
:103F2000F0BD0025DDE76A682B6813605A60002346
:103F30002B606B606A7B02218A436A73AB60280046
:103F400018300BF006FDD3E700232B6728000BF099
:103F5000FEFB0120DBE70022D2E70248310000F03F
:103F6000E1FBDBE7B006002030B583B0EFF3108152
:103F700072B68468002C09D0013C8460002902D10B
:103F800062B6BFF36F8F002003B030BD1C00144336
:103F900007D0084C009201930200200000F034FB8F
:103FA000F2E7002902D162B6BFF36F8F10204042C2
:103FB000EAE7C046B006002070B504000D000028F6
:103FC0002CD01C4B9B6883421DD0002601219023DE
:103FD000E25893080B40D0080840114221D0002B32
:103FE00001D0002E20D0002801D0002B1FD00023AC
:103FF0002B60E36F002B0ED01D60E56720000BF0F7
:104000008FFA012070BD0BF003FB002801D10126BF
:10401000DCE70026DAE7E567A567EFE71620404210
:10402000F0E713204042EDE710204042EAE710207D
:104030004042E7E79006002010B5C3680222934390
:10404000C360154B1C68002C11D02368002B01D0D5
:10405000002C01D000210FE02300FBE70E482200D6
:104060000BF04BFA20000830FFF730FF10BD2300A3
:10407000F0E71A001C001300002CF7D0626882429F
:10408000ECD02100002BF4D01A68002AF2D0002BCB
:10409000F0D11A00EEE7C046B006002070B584B03B
:1040A00005003BE090202B5804221C009443220082
:1040B0002C505B070DD4D20614D590230022EA5071
:1040C000002E02D162B6BFF36F8F04B070BDEB67F4
:1040D00030E02C0088340022012120000BF0ECFBA2
:1040E0000028F8D1290080312B48002302930122B7
:1040F0005242D317009201930A00310000F02EFDC6
:104100000CE020000BF046FA34E02000FFF794FFAB
:1041100033E062B6BFF36F8F002B39D0EFF3108618
:1041200072B63100AC6F002CBCD02368AB67EA6F6D
:104130009442CCD09022AB5802200343AB50E368AA
:104140008F3A18001043E060042083431343E36078
:104150006368002902D162B6BFF36F8F20009847D1
:10416000EFF3108672B6E36801229343E3601B0904
:104170001A42C6D1E3689B07C7D49022AB580221EC
:104180008B43AB501B0A8F3A1340002EC1D0C3E7BC
:1041900000F04EFBC2E7C046B806002010B5010093
:1041A000024B18000BF019FA10BDC0461004002095
:1041B000F0B589B004009C460E9D00238367C36759
:1041C00003008033802023505B6008330830235085
:1041D0005B60002D29D02B79002B28D187389023C4
:1041E000E050144B01267642F717069607970020F9
:1041F00004906646039602900190009420000BF014
:104200001AFA002D0CD02968002902D020000BF0EA
:1042100005FA6B79002B03D0237B01221343237310
:10422000200000F0C1FB09B0F0BD0120D7E702205B
:10423000FF30D4E79D40000810B51900114302D1AA
:1042400000F0B2FB10BD0249183000F095FDF9E70F
:1042500017F80008F0B585B004000E0015001F0027
:10426000030058338365C3650E9B04220D990BF040
:10427000D8F92A00310020000BF0BCF905000C9B96
:1042800002930B9B01930A9B00933B0002003100B9
:104290002000FDF7E5FC00236365054B9B68002BC0
:1042A00004D05B6E6366280005B0F0BD6366FAE774
:1042B0009006002010B5040001234373037300F03F
:1042C00089FF014B9C6010BD90060020084A93684E
:1042D000D8660B21494219670649486880235B0567
:1042E00003434B6062B6BFF36F8F9368186F7047DC
:1042F0009006002000ED00E010B5427B0D23C35670
:10430000002B51DBD3064FD180235B421343437311
:10431000264A9369183293420FD100230DE05A6860
:1043200042600360106058601FE01A001F49C969AD
:104330008A4210D01B68002B0FD0002B0DD00E210D
:1043400041560E229A569142EFD0521A002AE6DCCC
:104350001A1EEBD1EFE70023EDE7144BDA691900E1
:104360001831016042601060D861104B9C691833AD
:104370009C420FD0002C0DD00C4B9B685A7BD20670
:104380000BD1DA897F2A08D9A269002A05D1074A08
:10439000536109E0054BDC68EEE7A34202D0200040
:1043A00000F02CFC014B5C6110BDC0469006002063
:1043B00010B5427B0D23C356002B15DB154B9A68B5
:1043C0009C6918339C421AD0002C18D0824219D014
:1043D000537BDB0616D1D3897F2B13D9A369002B1E
:1043E00010D10C4B5A6114E07F2313404373426891
:1043F000036813605A60002303604360DEE7054BE7
:10440000DC68E3E7A24202D0200000F0F7FB014B9A
:104410005C6110BD90060020F0B5C64600B50500F1
:104420000C003D4B9E68737B60221A4222D09A0694
:1044300026D508273B421DD13B4373735AB2002A4D
:1044400020DB082F29D000239846334B9E69183370
:104450009E4248D0002E46D02F4B9B68B34202D0DC
:10446000300000F0CBFB2C4B5E61102F02D0434696
:10447000002B3BD1002C40D162B6BFF36F8F3CE0E4
:104480001027D7E77F221340737372683368136075
:104490005A60002333607360D3E7B368002B0BD0FE
:1044A0007268336813605A60002333607360727BF4
:1044B00002218A437273B36030000BF013F93000AD
:1044C00058300BF014F9144B9B689E4202D0002325
:1044D0009846BAE7EFF30583002B01D19846B4E77D
:1044E00001239846B1E70C4BDE68B5E70B48FFF7B0
:1044F000E1FEBFE762B6BFF36F8F6B7B60221A42AB
:1045000007D0EFF3108472B60AF0C4FF002CF1D08C
:10451000F3E780BCB846F0BD900600207803002089
:1045200010B51900541C01D1013103D002491830D3
:1045300000F022FC10BDC04617F8000810B5427B01
:104540000D23C356002B0BDB427B80235B421343BE
:1045500043732C4A9369183293421AD1002318E00E
:104560007F23134043734268036813605A6000233B
:1045700003604360E8E75A68426003601060586077
:104580001FE01A001F49C9698A4210D01B68002B1E
:104590000FD0002B0DD00E2141560E229A5691427B
:1045A000EFD0521A002AE6DC1A1EEBD1EFE7002307
:1045B000EDE7144BDA6919001831016042601060B0
:1045C000D861104B9A689C6918339C420FD0002C1C
:1045D0000DD082420ED0537BDB060BD1D3897F2BCB
:1045E00008D9A369002B05D1064B5A6109E0054B98
:1045F000DC68EEE7A24202D0200000F0FFFA014B97
:104600005C6110BD9006002010B50C001100084B35
:104610009868084A1060EFF3108272B69868029AA0
:10462000039B0BF088F82000FFF750FE10BDC0463A
:1046300090060020B8060020F0B5C64600B504007C
:104640000F000023EFF3108672B6002555E07F338C
:10465000134063736268236813605A600023236009
:10466000636079B2A173627B803B134363732C4A0E
:104670009369183293420FD100230DE05A686260AB
:10468000236014605C601DE01A002548C069824206
:104690000ED01B68002B0DD0002B0BD00E229A568B
:1046A0009142F1D0521A002AE8DC1A1EEDD1F1E74E
:1046B0000023EFE71A4BDA691900183121606260B4
:1046C0001460DC61164B9A69904618339A420CD0FC
:1046D000002A0AD0124B9B68984502D0404600F051
:1046E0008DFA0F4B42465A6112E00D4BDB6898463B
:1046F000F0E762B6BFF36F8F0123002B0BD1627B13
:104700001F2313405D425D41EDB2002B9FD0A77384
:10471000002EEED0F0E7280080BCB846F0BDC046C1
:104720009006002010B500290CD1EFF30583002B73
:1047300008D1074B5A699B689A4203D00800FFF7DB
:10474000C5FD04E0002902D162B6BFF36F8F10BD32
:104750009006002010B500280BD1EFF30583002B45
:1047600007D1074B5A699B689A4202D0FFF7AEFD0A
:1047700004E0002802D162B6BFF36F8F10BDC046BF
:10478000900600200023EFF3108172B600E00123B1
:10479000002B0AD1054B9A68D37B013BD3730029C8
:1047A000F5D162B6BFF36F8FF1E770479006002036
:1047B00070B50023EFF3108572B60FE0174BDC687D
:1047C00019E0A24202D0200000F018FA134B5C61FD
:1047D000002D02D162B6BFF36F8F0123002B16D1DB
:1047E0000E4B9A68D17B0131D1739C6918339C427E
:1047F000E4D0002CE2D0537BDB06E2D1D3897F2BBF
:10480000DFD9A369002BDCD1044B5A61E0E7EFF359
:10481000108072B6FFF79EFF70BDC0469006002064
:1048200010B502480BF044F810BDC046A4060020A5
:1048300070B5EFF3108472B6234B9A68DB699A4225
:1048400005D01368516812680A60516006E00023C1
:10485000F8E71D4AD269934213D01B68002B12D08F
:10486000194A90680E2141560E229A569142F0D074
:10487000521A002AEDDD5A684260036010605860E9
:104880000AE00023EAE7104B9A68D969180018304B
:10489000106051600A60DA610B4B9D6918339D42CC
:1048A0000ED0002D0CD0084B9B689D4202D02800F2
:1048B00000F0A4F9044B5D612000FFF707FD70BD17
:1048C000014BDD68EFE7C04690060020F0B5C64614
:1048D00000B504000D0003000B432AD0022252420F
:1048E000D317121BAB41002B27DD02267642361B65
:1048F000EFF3108872B6154FB868154B1860FFF7C4
:1049000057FDB8681349183022002B0000F034FA24
:10491000BA68537B04210B4353734046FFF7D6FC20
:104920000BF03CF8301A002800DC002080BCB846B0
:10493000F0BDFFF77DFF0020F8E7002B01D1002A32
:10494000D3D10BF02BF80619D2E7C0469006002011
:10495000B806002017F8000870B505000C00FFF736
:10496000B5FF6B1C16D00200C31709200021801868
:104970005941002902D110D109280ED904290FD894
:1049800002D103000B330BD80A220023FBF7D0FC23
:10499000050003E00134E6D100E00025280070BDE9
:1049A000004DFBE7FFFFFF7F70B50400EFF31085BC
:1049B00072B6437B5B0705D4002D02D162B6BFF30C
:1049C0006F8F70BD18300AF0C4FF637B04229343DD
:1049D00063732000FFF790FC02482900FFF7A2FE56
:1049E000EFE7C046B8060020014B98687047C04604
:1049F00090060020F0B5CE4600B582B00400077BDB
:104A000001221740EFF3108572B6467B32071ED4A1
:104A100001955823994681440AF02EFE002825D09E
:104A2000202333436373EFF30583002B15D0290054
:104A30002000FFF7F1FC002F05D062B6BFF36F8FA7
:104A40000423181C02DF02B080BCB946F0BD002D63
:104A5000F9D162B6BFF36F8FF5E73E4B98684946D0
:104A60000AF00CFE2800FFF731FCE4E7082333438B
:104A7000DBB263735BB2002B35DBA368002B0BD07A
:104A80006268236813605A60002323606360627B5E
:104A900002218A436273A360200018300AF059FF94
:104AA00048460AF024FE2B4B9A68944228D00026F0
:104AB000284B9D6918339D422AD0002D28D0AA4248
:104AC00002D0280000F09AF8224B5D61002E22D11E
:104AD000204B9B689C4222D0019B002BABD162B63D
:104AE000BFF36F8FA7E77F2333400822134363731D
:104AF0006268236813605A60002323606360BCE728
:104B0000EFF30583002B01D10026D1E70126CFE783
:104B1000104BDD68D3E71048FFF7CCFBD8E7EFF385
:104B20000583002BD8D1237BDB070FD5019B002BFE
:104B300002D162B6BFF36F8F62B6BFF36F8F0423EB
:104B4000181C02DFEFF3108372B601930198FFF790
:104B5000BDFB70E7900600207803002070B582B09E
:104B6000089C069D079E00950196FFF74DFD002CC1
:104B700003D0034B9B681B69236002B070BDC04625
:104B800090060020084BC01AC01083001B181A01A1
:104B90009B181A029B181A049B185B001B18034AE7
:104BA0000121D1547047C046F0030020BC0600200C
:104BB000C3897F2B11D80E4B1B68002B0ED00E2201
:104BC00082560C4B1B689A420BDB437BDB060AD1F7
:104BD000094B984209D0012300E00023012018402E
:104BE00070470023FAE70023F8E70023F6E7C04602
:104BF000C4060020C00600208802002070B5050011
:104C00000D4B1E7C7400A419E4000C4BE41820002A
:104C10000AF09FFE0A4B00229A552800FFF7C8FFB2
:104C2000002800D170BD074B1A68013AD317064916
:104C3000200000F0A1F8F5E790060020F003002026
:104C4000BC060020C4060020854B000870B5EFF3B9
:104C5000108572B6164B9C68164B1B68A34219D080
:104C6000144B00221A60124B1B7C134AD35C002B9E
:104C70000AD02000FFF79CFF002805D0637BDB06ED
:104C800011D02000FFF7BAFF002D02D162B6BFF3AA
:104C90006F8F70BD2000FFF7B1FF002DF9D162B614
:104CA000BFF36F8FF5E72000FFF748FCE9E7C04648
:104CB00090060020B8060020BC06002010B5064A69
:104CC0000648121A06490AF0D9FB064A0648121A83
:104CD00006490AF0D3FB10BD88020020C000002066
:104CE000FC3B0108C0000020C0000020FC3B010884
:104CF000034B1868984200D070470020FCE7C0467C
:104D000040020020002804D0034A5268904201D09B
:104D1000006870470020FCE74002002010B5044BFB
:104D20001B68002B01D0002010BDFEF7FBFDFBE748
:104D3000C806002070B5FFF7DBFF0400FFF7EEFFA9
:104D4000002C14D0226963690400C517121BAB4103
:104D5000002B08DC03D01000002B06DB70BD802187
:104D600009068A42F7D30348F8E70020F6E701482E
:104D7000F4E7C046FFFFFF7FD0B5CE4600B585B053
:104D8000040000920193009E019F3B00320001321B
:104D900006D0A1600023EFF3108272B691464AE07C
:104DA0000133F6D105B080BCB946D0BD002B01D18E
:104DB000002A57D10122002354E001260027009A3F
:104DC000019BB6185F41FFF7A9FF0290C317039339
:104DD000029A039BB6185F412661676144E0921B0B
:104DE000BB4122616361FFF78DFF002812D0066985
:104DF0004769226963699F4202DCF0D19642EED98D
:104E0000B61A9F41066147614368636020601C6079
:104E1000446005E01B4B5A682360626014605C606C
:104E2000FFF766FF844222D04B46002B02D162B6C8
:104E3000BFF36F8F0123002BB4D102225242D3174C
:104E400000980199121A8B41002BB6DB0E4B1E689D
:104E50005F6836184F4102225242D317921BBB4162
:104E6000002BA3DD22616361FFF742FFBDE7074B23
:104E70001B68002BD8D1FFF75DFF0021FEF7C2FCB5
:104E8000D2E7C0464002002008040020C8060020E7
:104E9000F0B5C64600B5EFF3108572B62F4B18601B
:104EA000FFF726FF04000DE0A36820009847EFF30A
:104EB000108572B6294A136841465B1A1360FFF7E2
:104EC00017FF0400002C20D0236998466269234B09
:104ED0001968CB179A4218DC15D021494646F717B6
:104EE0000A684B6892197B410A604B6000220023DC
:104EF0002261636120000AF016FD002DD4D162B654
:104F0000BFF36F8FD0E78845E7D9002C09D022691D
:104F1000636912490E683000F117121A8B41226141
:104F200063610F4E0D4C23681800D91732687368FF
:104F300012184B413260736000232360FFF7FAFEC2
:104F40000021FEF75FFC002D02D162B6BFF36F8F28
:104F5000FFF77CFE80BCB846F0BDC046C806002006
:104F60000804002070B50023EFF3108672B600200D
:104F7000002100E00123002B0ED1FFF7CFFE04003B
:104F8000C517064B1868596800196941002EF1D100
:104F900062B6BFF36F8FEDE770BDC0460804002016
:104FA000F8B50400EFF3108572B60368002B05D046
:104FB000002D02D162B6BFF36F8FF8BD836AC26A5B
:104FC000190011431DD0591C01D1511C19D01800D2
:104FD000111E3CDD01267642F71736184F410AF0C4
:104FE000E1FC0122002380185941801979410029F0
:104FF00036DC33D002225242D31723492000FFF778
:10500000BBFE236B01332363236A002B0AD0002DE0
:1050100002D162B6BFF36F8F236A20009847EFF387
:10502000108572B623001833A469A34226D0002C41
:1050300024D020000AF0A5FB00232367002D02D115
:1050400062B6BFF36F8F20000AF081FBB5E7002A3C
:1050500001D1002BBED101200021BBE70028C9D01F
:105060000AF0A0FC012200238018594180197941DF
:1050700002225242D317121A8B41BEE7002D9CD157
:1050800062B6BFF36F8F98E7A14F0008F8B5CE4620
:10509000474680B5804614001D00EFF3108372B6BA
:1050A00099462B00511C20D002267642F717B61ADB
:1050B0009F41002F22DB40460AF04BFC4146089AF4
:1050C000099B8A62CB6200230B63144922002B00E8
:1050D0004046FFF751FE4B46002B02D162B6BFF3AC
:1050E0006F8FC0BCB946B046F8BD691CDCD14B46D9
:1050F000002BF6D162B6BFF36F8FF2E7002B05DD10
:1051000001246442E517A4185D41D4E7002B01D1C6
:10511000002AF5D101220023F2E7C046A14F000882
:1051200070B504000D008668002E1FD07378012B27
:1051300012D0022B17D00023337000200023A3606D
:10514000E368D902490E29437F2211408903084AA6
:1051500013400B43E36070BD0AF0C6FC00233370BC
:105160000028EBDAF7E70AF0DAFCF7E70020E5E7DA
:10517000FF3FE0FF70B50300EFF3108572B6C1602A
:10518000012282600068834210D042680368136085
:105190005A600023036043600121FFF7C1FF040050
:1051A00006482900FFF7BEFA200070BD002D02D18D
:1051B00062B6BFF36F8F0024F6E7C046CC0600202E
:1051C00010B50A00024B010018000AF0DAFC10BD0D
:1051D00074020020014B43667047C04674020020F1
:1051E00010B5024808F0E1FB10BDC046601D010883
:1051F00010B5064C05E0A268616820000AF0EBFCDF
:105200001434034B9C42F6D3002010BD74020020DE
:105210008802002010B584B002AC084B220003CBFA
:1052200003C2012380220649064800945B42D20053
:10523000FEF7BEFF002004B010BDC04628130108D1
:105240009038002010040020F0B503AF87B004466A
:105250000AF056FD2821114D6E5C002E01D000256C
:1052600001E001226A540AF052FD002E09D12846BD
:105270000ECC0EC00ECC0EC04ECC4EC0284607B091
:10528000F0BD002005900121029105490191049093
:105290000420039001A803490AF0C5FD4807002037
:1052A000A81D0108B01D0108F0B503AF87B0044682
:1052B0000AF026FD104D2E7E002E01D0002501E0C3
:1052C000012129760AF023FD002E07D128460ECCB5
:1052D0000EC00ECC0EC0284607B0F0BD00200590D1
:1052E000012102910549019104900420039001A835
:1052F00003490AF098FDC04628070020A81D0108B0
:10530000B01D0108F0B503AF87B004460AF0F8FC01
:105310005821104D6E5C002E01D0002501E00122C5
:105320006A540AF0F4FC002E07D158222846214680
:105330000BF060FA284607B0F0BD0020059001216F
:1053400002910549019104900420039001A80349AA
:105350000AF069FDCC060020A81D0108B01D010857
:10536000D0B502AF82B004460AF0CAFC0A490A6806
:10537000002A01D10C600024002C03D10AF0C7FCE4
:1053800002B0D0BD0194054800900548242101AA2F
:10539000044B05F0B9FAC04644070020181E010866
:1053A0002A290108E01D0108D0B502AF82B00446E9
:1053B0000AF0A6FC0A490A68002A01D10C60002400
:1053C000002C03D10AF0A3FC02B0D0BD0194054823
:1053D00000900548252101AA044B05F095FAC04626
:1053E00078070020081E010805290108D01D0108C2
:1053F000F0B503AF8DB08A6AE44BD518012395420E
:1054000000D7DD078D624A6AE14C121900D7E14AE4
:105410004A62854200DA8862824200DD48628A8FF1
:10542000521C8A8792B2322A04D23E2000220A54A9
:105430000DB0F0BD4E6A8A6A3E240B55B418DD07E4
:10544000B44201D7E4176C406410001B0B910C951B
:1054500001D7C0176840440CC517ED03921B02D753
:10546000D2170C994A402919C003DB0309939A42C9
:1054700000DC099A00242346FAF736FF0B9DE96AFF
:105480000891401A02D7C0170C994840C117C24A68
:105490002346FBF7D5FC4904C00B4018296B0A9141
:1054A000401A02D7C0170C994840C1179D225600D8
:1054B000BA4A3346FBF7C4FC0846C9170D252A46ED
:1054C0002346FBF7BDFC4904C00B401808990A1895
:1054D00002D7D2170C9842400B98C262D11706929D
:1054E00010460591AD4A3346FBF7AAFC0846C9179A
:1054F0002A462346FBF7A4FC4904C00B40180A992E
:10550000091802D7C9170C9841400B980491016300
:10551000006AC117A24A39230790FBF791FC08469D
:10552000C917A04A2346FBF78BFC4904C00B40185F
:105530009D4C00902146FAF753FE002900D5091929
:105540009A4808189A4A551C9B4E9C4B0195A842B4
:1055500003D29848401A099A0DE0881990421A46D9
:1055600009D3974881421A4600DC099A814201DC3E
:10557000084600E0601A08930392C117914A00237D
:105580000A93FBF75DFC4904C00B4518EA0BCB17E7
:1055900059048E184404204631462A46FBF750FC35
:1055A0000846C91722463346FBF74AFC0846C91786
:1055B000854A0A9BFBF744FC4904C00B4018291A92
:1055C00002D7C9170C984140794D029100984019B3
:1055D000754C794E00D76F487349FAF701FE0846BB
:1055E000002900D50019754A70494118019B99425C
:1055F00004D27049081A099908910CE08119A9424E
:1056000001D2084607E06E49884200DC099A8842C8
:1056100000DD201A0892C1176A4A0A9BFBF710FCAA
:105620004904C00B4618F20BCB1759048D184404DB
:10563000204629463246FBF703FC0846C917224696
:105640002B46FBF7FDFB0846C9175F4A0A9BFBF791
:10565000F7FB4904C00B4018321A02D7D2170C9836
:1056600042400B9DD3170898C117FBF7E9FBC00B0D
:1056700049040818C917049AD317FBF7E1FB49043A
:10568000C00B44180398C117029AD317FBF7D8FB35
:10569000C00B49040818C917069A059BFBF7D0FBF5
:1056A0004904C00B4018201A02D7C0170C99484073
:1056B0000A99814201D7374800E04042C117AA68E1
:1056C000D3170A900891FBF7BBFB4904C00B4018A5
:1056D00029680991401802D7C0170C9948406A6997
:1056E0009042014600DC11460692AE69B042344653
:1056F00000DC0C46201A02D7C0170C99484068609D
:10570000C1172A69D317FBF79BFB4904C00B2A4634
:105710004518D268D3170A980899FBF791FB4904FA
:10572000C00B4018401902D7C0170C99484009997E
:1057300008180B9D02D7C0170C9948402860B0424A
:1057400002DC069EB04200DA2E600A986863EC61C3
:10575000E1170D2200232046FBF772FB4904C00B22
:1057600040180799081802D7C0170C9948400E4BEB
:10577000164A904203DB0146984203DC03E0C1185D
:10578000984200DD811829620DB0F0BD96CBFFFF75
:105790006A340000FFFFFF7F04B500000000C62848
:1057A0000000B84B3B0200003F240300F136FFFF2E
:1057B0000FC900001F920100E16DFEFF0080FFFF96
:1057C0002D5B02008764000055150000C1DBFCFF63
:1057D000F0B503AF91B0002801D011B0F0BD0D4677
:1057E0000AF08EFA8F490E68002E00D1E0E0069094
:1057F000304600F035FBC00700D0EEE007F0A5FE14
:1058000004463146183128B2C003FFF7F1FD07F016
:105810009CFE001B844A002421462346FBF710FB14
:10582000824A07942346FAF783FD30658048006872
:10583000002800D1B6E0039000F012FBC00700D0B2
:10584000CBE0B06B7B4C001900D77B487B4D2946E1
:10585000FAF7C6FC0846002900D5401978494118D6
:10586000621C9142059605D27949081A0121C903A3
:10587000049110E073494118734AA14202D2049284
:10588000084608E07149884201DC0122D2038842BF
:1058900000DD281A0492C1176E4A079BFBF7D0FA65
:1058A0004904C00B4618F20BCB1759048D18440459
:1058B000204629463246FBF7C3FA0846C917224656
:1058C0002B46FBF7BDFA0846C917634A079BFBF74F
:1058D000B7FA4904C00B4118701A01220292D4078A
:1058E0008E4201D7C0176040049AC117D317FBF747
:1058F000A7FA4904C00B40180AF01FFE0721CE0684
:1059000031460AF0AEFF04900599C86B096C081A7D
:1059100001D7C01760400AF010FE31460AF0A1FF1F
:105920003F2109060AF09DFF45210D0629460AF090
:1059300098FF29460AF0E7FD04990AF092FF2946EC
:105940000AF03CFF0646079D2946FAF767FC002847
:1059500000D13546414E28463146FAF773FC0028FF
:1059600000D12E4630460799FAF776FC05463046B8
:1059700006F0B6FA0446002D00D12C4638493046D0
:10598000FAF760FC002801D00798C443059E204622
:10599000FBF71EFF089000280ED1039800F06EF967
:1059A00001282CD0304600F069F9012806981DD056
:1059B0000AF0ADF911B0F0BD00200D9002990A91E6
:1059C000284809900C910FA80B902748109008A820
:1059D0000F9009A825490AF026FA09912748009056
:1059E00027482B2109AA274B04F08EFF089100209D
:1059F0000D9001200A901E4909910C9007E0089132
:105A000000200D9002990A91194809900C910FA855
:105A10000B901848109008A80F9009A816490AF092
:105A200002FAC0467807002000CA9A3B006CDC02EC
:105A3000440700200FC90000FFFFFF7F3F24030041
:105A4000F136FFFFE16DFEFF0080FFFF2D5B0200DE
:105A50001F920100876400005515000000F07F458B
:105A6000FFFF7F4FFC240108E9B900080425010865
:105A7000F01D0108495C0008F81D010844260108D2
:105A8000223701083426010880B500AFA8B006F01F
:105A90006DFC3E2018A900240C548C8726481E90CB
:105AA00026481D90052000041C900F20C0031B9069
:105AB0004B2000041A9019941894229420482190A5
:105AC000209420481F90239424942594269402AD7A
:105AD00028460AF0D0FE2846FFF714FCFFF764FCC6
