:020000040800F2
:1000000080400020211A0008055A00080D1A000837
:100010000D1A00080D1A00080D1A00080000000053
:10002000000000000000000000000000E91A0008C5
:100030000D1A000800000000891A00087930000835
:100040007D1C00087D1C00087D1C00087D1C00082C
:100050007D1C00087D1C00087D1C00087D1C00081C
:100060007D1C00087D1C00087D1C00087D1C00080C
:100070007D1C00087D1C00087D1C00087D1C0008FC
:100080007D1C00087D1C00087D1C00087D1C0008EC
:100090007D1C00087D1C00087D1C00087D1C0008DC
:1000A0007D1C00087D1C00087D1C00087D1C0008CC
:1000B0007D1C00087D1C00087D1C00087D1C0008BC
:1000C0007D1C00087D1C00087D1C00087D1C0008AC
:1000D0007D1C00087D1C00087D1C00087D1C00089C
:1000E0007D1C00087D1C00087D1C00087D1C00088C
:1000F0007D1C00087D1C00087D1C00087D1C00087C
:100100007D1C00087D1C00087D1C00087D1C00086B
:100110007D1C00087D1C00087D1C00087D1C00085B
:100120007D1C00087D1C00087D1C00087D1C00084B
:100130007D1C00087D1C00087D1C00087D1C00083B
:100140007D1C00087D1C00087D1C00087D1C00082B
:100150007D1C00087D1C00087D1C00087D1C00081B
:100160007D1C00087D1C00087D1C00087D1C00080B
:100170007D1C00087D1C00087D1C00087D1C0008FB
:040180007D1C0008DA
:100184004FF0FF3C06E000BF4FF0010C02E000BF5F
:100194004FF0010C4DF804CD4FEA40024FEA410301
:1001A4007FEA226C18BF7FEA236C11D001B052EAB7
:1001B400530C18BF90EA010F58BFB2EB030088BF7D
:1001C400C81738BF6FEAE17018BF40F001007047EC
:1001D4007FEA226C02D15FEA402C05D17FEA236CCE
:1001E400E4D15FEA412CE1D05DF8040B704700BF15
:1001F400844608466146FFE70FB5FFF7C9FF0028AC
:1002040048BF10F1000F0FBD4DF808EDFFF7F4FFE4
:100214000CBF012000205DF808FB00BF4DF808ED7D
:10022400FFF7EAFF34BF012000205DF808FB00BFA0
:100234004DF808EDFFF7E0FF94BF012000205DF8C2
:1002440008FB00BF4DF808EDFFF7D2FF94BF012073
:1002540000205DF808FB00BF4DF808EDFFF7C8FF6C
:1002640034BF012000205DF808FB00BF7BB972B9E0
:100274000029BEBF00204FF0004106E008BF00285F
:100284001CBF6FF000414FF0FF3000F057B8ADF1E4
:10029400080C6DE904CE002909DB002B1ADB00F001
:1002A400B8FDDDF804E0DDE9022304B07047404204
:1002B40061EB4101002B1BDB00F0ABFDDDF804E03A
:1002C400DDE9022304B0404261EB4101524263EB99
:1002D40043037047524263EB430300F09AFDDDF899
:1002E40004E0DDE9022304B0404261EB41017047C0
:1002F400524263EB430300F08CFDDDF804E0DDE9DA
:10030400022304B0524263EB4303704753B94AB922
:10031400002908BF00281CBF4FF0FF314FF0FF3009
:1003240000F00CB8ADF1080C6DE904CE00F071FDDD
:10033400DDF804E0DDE9022304B07047704700BF34
:1003440003685A004CBF43F0004323F000431844B1
:1003540070472DE9F0470646174641B301398846F0
:100364004FF0000909EB080404EBD474641006EBA5
:10037400C4052846FFF7E4FFA1424FEAC40A04D1AA
:10038400B84204D82846BDE8F087B84204D9A1454C
:100394000DD004F1FF38E5E70AF108003044FFF717
:1003A400CFFF0138B842EDD204F10109DAE70025A4
:1003B400E8E7012806D0022806D00028034818BF21
:1003C400002070470248704702487047CD09000872
:1003D400D1090008D50900081F4B37B504468D1E06
:1003E4004BB1284601A9AFF3008048B90023092086
:1003F400236103B030BD1948194B1B1ADB1001935C
:1004040001992A46FFF7A5FF01460028EED0FFF721
:1004140097FF4B68A064012B1AD0002B01F1040054
:1004240010DBFFF78DFF0023C4E913030368002BDF
:100434000ADAC3F30360FFF7BCFF03460028D5D0F4
:100444000020D5E70123EFE7FFF77AFF0346F7E73C
:1004540000230520CCE700BF00000000041E0108B3
:10046400CC1E0108036810B5DA07044605D49B07BF
:1004740000F1480018D500F0F7FB2368590703D4AE
:1004840004F1D00000F0F8FB23681A0703D404F544
:10049400A87000F0F9FB2368DB0608D404F5E870C3
:1004A400BDE8104000F034BC00F0D6FBE5E710BD19
:1004B400092070470346006800B11844704770472C
:1004C40070B505460C462846216CFFF785FF0646A5
:1004D40008B101F0BBFC236C22466B612946012064
:1004E4002B6998470828EED00728F2D13046216CB2
:1004F400FFF7E5FF201D00F0A3FB2DE9F047ADF564
:10050400727D03AD0C1DD0F80C90D0F818A00746EE
:1005140016460FCC0FC50FCC0FC50FCC0FC594E8F2
:100524000F0085E80F0000250DF10808C8F80050F9
:100534003846D8F84010FFF74FFF09360446F6B2A4
:1005440068BBD8F840304FF4F07241467B617AA81A
:1005540010F08BFB3B69394630467AAA984705462A
:10056400889BC8F844303A463B4631460120CDE9E1
:10057400008AC847C0B9C4B94FF4F07240467AA99A
:1005840010F073FB082D2646D2D0072D0CD120463F
:10059400D8F84010FFF793FF03A800F051FBD8F8F8
:1005A400383046F01006DCE7092420460DF5727D4C
:1005B400BDE8F087406C7047F0B5CB6BF9B00B64C5
:1005C40001AC0D1D06460F460FCD0FC40FCD0FC451
:1005D4000FCD0FC495E80F0084E80F004FF0FF33F0
:1005E400009330461099FFF7F7FE78B96A46314612
:1005F4003369984708280446F3D06846FFF732FF6A
:10060400062C03D139463046FFF75AFF092079B04A
:10061400F0BD10B48261DA6BC16010BC1A64194673
:1006240000226AE770B54369C66804460D460B6448
:1006340026B10122FFF761FF01F008FC0A460369B5
:10064400014602209847072805D00828F4D12946F6
:100654002046FFF735FF3046296CFFF730FF281D91
:1006640000F0EEFAC26802B9A6E7CA6B0A64002277
:1006740043E77047836801460BB101201847704770
:10068400012910B50446084605D005D9C81E01281D
:100694008CBF0220012010BD43B90F2A06D804EBF9
:1006A40082046168029A18461160F4E70220F2E7B6
:1006B4001FB503AB009300230A461946FFF7E0FF7A
:1006C400039805B05DF804FB012910B504460846FB
:1006D40005D005D9C81E01288CBF0220012010BDF9
:1006E40043B90F2A06D8029904EB82040968184614
:1006F4006160F4E70220F2E71FB503AB0093002327
:1007040003920A461946FFF7DFFF05B05DF804FBC4
:10071400F0B5D36BADF50F7D136417AD141D06460C
:100724000F460FCC0FC50FCC0FC50FCC0FC594E8E7
:100734000F0085E80F004FF0FF33169368462699A3
:10074400FFF74AFE90B90C2116A86A46FFF7D4FFBA
:10075400394616A8B04748B969460820049B16AA2A
:1007640098470528044602D00928E7D1092416A889
:10077400FFF778FE20460DF50F7DF0BD2DE9F04F13
:10078400CD6C174655F8042B87B00C469A4600F0FA
:10079400030904953BBB8DF8153003231202039221
:1007A4008DF81430236DB9F1020F08BFA56B13F057
:1007B400010322D100F0080800932B6843BB38469C
:1007C40003A900F09BFC002840F0FA80009BDBB1F9
:1007D4000F213846FFF76CFF0E2102463846FFF71B
:1007E4008BFF784A54E0130C8DF815301204DBB2F9
:1007F40005EB830503920223D2E7384603A900F0F0
:100804007DFC002840F0DC80082007B0BDE8F08FB4
:10081400BAF1020F0EBFD5F804B0B5F802B02B88B8
:10082400A26C0CBF05F108062E1D0F2138462BF0D3
:10083400010501931544FFF73BFF8542019B29D82D
:1008440023F001022A44824294BF002201224FEA8B
:100854004B0000F0020003F0010340EA0305012D00
:100864001AD0022D5ED0002D40F0AA80351DB9F1BA
:10087400000FA2D0002AA0D03046FFF761FDA56387
:1008840006462046AFF30080002800F099803246E7
:100894000F213FE00022DAE7B9F1000F26D1002A48
:1008A4003DD073683268991C4FEAD27200F0888098
:1008B40004F158010133029109D0301DFFF7FAFD0C
:1008C40002AB01462046AFF30080054638B30D2144
:1008D4003846FFF7EDFE022D029B206202D1E3624F
:1008E40004F12C030620C4E909368EE70D213846AD
:1008F400FFF7DEFE256A854211D1A36A9E420ED11E
:100904003046FFF71DFD0F2102463846FFF7F4FE7F
:10091400224600213846FFF7EFFE072075E706F16F
:1009240008054AE7356825F00045B9F1000F2AD1DA
:10093400A2B1B8F1000F19D085B9CB4617E0019BDD
:100944000BF1010B06EB8B000293FFF7B3FD0022C2
:10095400014602AB2046AFF3008058B13368002B48
:1009640000DA0436013506EB850526E7C34604F1B3
:1009740058030193AB45E2D10D213846FFF798FEA9
:10098400029B2062AEE70D213846FFF791FED4F8B2
:1009940020B08345E2D1A36A9E42DFD14FF0000B21
:1009A4000423C4E90BB3F318A562636333685B459E
:1009B40003DA681C06EB8000A3E701230093D1E768
:1009C400092022E7000000000023D7E60123D5E632
:1009D4000223D3E62DE9F041054614461E46C2B073
:1009E400042925D8DFE811F005001C002400D600F6
:1009F4000401EEB90121836B92B2043001FA06F7C7
:100A040017421CBF53F8047B40F826700136102EA1
:100A1400F4D1A60400D4AB63002042B0BDE8F08159
:100A2400012E4FEA124794B204D13B19102B41D93D
:100A34000220F2E7052EFBD107EB0408B8F1200FE2
:100A4400F6D80F2F4DD9002CE6D00368A0465807DE
:100A540008D5284623F0040340F8D03B00F010F9F1
:100A64000F2F48D9684600F00BF9AB6B102F3A46AC
:100A740038BF10221C4642A901EBC2024FEA4808C3
:100A8400A2F5C47208F1FF38101F4FEA880102EB87
:100A9400880254F804CB40F804CF8242F9D10A1DED
:100AA400012E134417D00F2FAB636FD9684600F0A3
:100AB400E3F8B1E7102FBBD00368DA0705D523F0BC
:100AC400030340F8483B00F0CBF820A800F0C8F836
:100AD400AB6B002C3FD10433AB6320A800F0BCF80F
:100AE4009AE7B8F1100F03682DD9DC07A8F11008B4
:100AF40042D45807ADD420A800F0BAF8C7F11004C6
:100B0400684600F0BDF8640020AAAB6B02EBC70294
:100B1400013C101FA10002EB84021C4654F804CBD4
:100B240040F804CF9042F9D10A1D1344B8F1000FE4
:100B34009CD1012ECFD00F2FAB633FF66DAF20A811
:100B440000F092F868E7D9070DD420A800F090F8D7
:100B5400AB6B002CF3D0640020AA4FF0000802EB2A
:100B6400C702013CD5E723F0010343F0020340F838
:100B7400483B00F07DF8E8E723F0010343F002036B
:100B840040F8483B00F074F82B68B2E720A800F066
:100B94006BF88BE7032E7FF44BAF97B207EB12444D
:100BA400102C4FEA12463FF643AF0368190706D5E7
:100BB40023F00803036000F5A87000F087F820A86C
:100BC40000F084F8AA6B20AB03EBC603F900D41A37
:100BD40003EBC707BB4203EB040005D10A44AA6335
:100BE40020A800F051F817E7006843F8040BF1E778
:100BF400002E7FF41DAF102A3FF61AAF0368DA0601
:100C040006D523F01003036000F5E87000F08AF8BD
:100C140020AE304600F086F800220121AB6B01FAC9
:100C240002F020421CBF53F8040B46F822000132A4
:100C3400042AF4D13046AB6300F06AF8ECE600BF56
:100C440000F1340191E838009C46A6464CF8045D56
:100C540090E8FF0FE54600BD90EC210B704700BF04
:100C640080EC210B704700BF90EC200B704700BF55
:100C740080EC200B704700BFD0EC200B704700BF06
:100C8400C0EC200B704700BFF0EC0201F0EC021145
:100C9400F0EC0221F0EC0231F0EC0241F0EC0251F4
:100CA400F0EC0261F0EC0271F0EC0281F0EC0291E4
:100CB400F0EC02A1F0EC02B1F0EC02C1F0EC02D1D4
:100CC400F0EC02E1F0EC02F1704700BFE0EC02014D
:100CD400E0EC0211E0EC0221E0EC0231E0EC024134
:100CE400E0EC0251E0EC0261E0EC0271E0EC028124
:100CF400E0EC0291E0EC02A1E0EC02B1E0EC02C114
:100D0400E0EC02D1E0EC02E1E0EC02F1704700BF5C
:100D1400B0FC0181B0FC0191B0FC01A1B0FC01B1B7
:100D2400704700BFA0FC0181A0FC0191A0FC01A1BF
:100D3400A0FC01B1704700BFEC4600B52DE900509E
:100D44002DE9FF1F4FF000032DE90C0001A9FFF767
:100D540033FCDDF840E012B0704700BFEC4600B54C
:100D64002DE900502DE9FF1F4FF000032DE90C0081
:100D740001A9FFF757FCDDF840E012B0704700BF4F
:100D8400EC4600B52DE900502DE9FF1F4FF000039C
:100D94002DE90C0001A9FFF765FCDDF840E012B075
:100DA400704700BFEC4600B52DE900502DE9FF1F48
:100DB4004FF000032DE90C0001ABFFF72AFCDDF82E
:100DC40040E012B0704700BFEC4600B52DE900507A
:100DD4002DE9FF1F4FF000032DE90C0001AAFFF7D6
:100DE40097FCDDF840E012B0704700BF430803F001
:100DF4005533C01A00F03333800800F03330184400
:100E04004FF0013300EB101000F00F305843000E88
:100E140070472DE9F04786468C46084615467446C9
:100E24001946089E002B40F0C2808542B2FA82F235
:100E340045D94AB1C2F1200300FA02FC2EFA03F3A9
:100E4400954043EA0C0C94404FEA154EBCFBFEF867
:100E5400A8B20EFB18CC08FB00F9230C43EA0C43A0
:100E6400994528D9EB1808F1FF3704D2994502D9DE
:100E7400A8F102072B44A3EB0903B3FBFEFC0EFB12
:100E84001C330CFB00F0A4B244EA0344A04214D97E
:100E94002C190CF1FF3304D2A04202D9ACF10203A5
:100EA4002C44241A43EA07401EB10023D440346082
:100EB4007360BDE8F0874746DDE76346F1E792BB20
:100EC4000121431B4FEA154EB3FBFEFCAFB20EFBF0
:100ED4001C330CFB07F8200C40EA0343984562D905
:100EE400EB180CF1FF3004D2984502D9ACF10200A2
:100EF4002B44A3EB0803B3FBFEFC0EFB1C330CFBDF
:100F040007F7A4B244EA0344A7424ED92C190CF1C2
:100F1400FF3304D2A74202D9ACF102032C44E41BF0
:100F240043EA0040C0E7C2F12003954020FA03F1F0
:100F34002EFA03F34FEA154EB1FBFEFC9040034337
:100F4400AFB20EFB1C100CFB07F8190C41EA004170
:100F5400884504FA02F422D969180CF1FF3004D24E
:100F6400884502D9ACF102002944A1EB0801B1FB88
:100F7400FEFC0EFB1C110CFB07F79BB243EA01437A
:100F84009F420ED9EB180CF1FF3104D29F4202D9D3
:100F9400ACF102012B44DB1B41EA004192E76046BD
:100FA400E3E76146F7E76046A3E76346B7E78342B2
:100FB40006D916B9002108467BE7C6E900E0F9E73F
:100FC400B3FA83F78FB9834201D3724508D8BEEBD5
:100FD400020460EB030301209C461EB9002168E76C
:100FE4003846FAE7C6E9004CF8E7C7F1200CBB40E5
:100FF40022FA0CF41C434FEA144920FA0CF3B3FB15
:10100400F9F8B8402EFA0CF101430EFA07F509FB82
:1010140018301FFA84FE08FB0EFA0B0C43EA004357
:101024009A4502FA07F240D9E31808F1FF3004D2D6
:101034009A4502D9A8F102002344A3EB0A03B3FBA7
:10104400F9F809FB183308FB0EFE89B241EA0341A3
:101054008E452CD9611808F1FF3304D28E4502D98C
:10106400A8F10203214443EA0040A0FB0298A1EB4B
:101074000E014145CE46434602D306D14D4504D226
:10108400B9EB020E68EB04030138002EA6D0B5EBD1
:101094000E0261EB030101FA0CFC22FA07F34CEA9D
:1010A4000303F940C6E9003198E74046C5E74346E3
:1010B400D9E7027A03467AB9427A82B1013A427296
:1010C4004268111D12684160026003221A721A6894
:1010D400100E12021A607047013AD2B2F6E7B0203D
:1010E40070471FB503AB009300230C221946FFF78A
:1010F400C7FA039805B05DF804FBF2E72DE9F04365
:1011040005460E464FF0000885B03046FFF7D1FF84
:10111400B028044615D1B8F1000F0ED103AC4346F4
:101124000E22414628460094FFF7AAFA43460F22AE
:10113400414628460094FFF7C7FA002005B0BDE8F1
:10114400F08302061DD4002303AF19464FEA800939
:101154000D2228460097FFF793FA5FFA89F9039B5B
:1011640009F1040914F0400F14BFA3EB09034B4425
:101174000393002300970D2219462846FFF7A4FA8B
:10118400C3E700F0F003802B18D104023046FFF7C8
:1011940090FF0443B4F5004F01D10920CEE70023AA
:1011A400240119462846A2B2FFF714FC0028F4D102
:1011B40014F4004F18BF4FF00108A6E7902B0DD18F
:1011C40000F00D030D2BE8D0002303AF00F00F0255
:1011D400194628460097FFF753FACAE7A02B13D104
:1011E400C3434FF47F6203F007031A41030702F479
:1011F4007F6201D542F48042002319462846FFF756
:10120400E9FB002881D0C8E7B02B46D1B12808D12A
:101214003046FFF74EFF431EDBB20E2B0246EBD9DE
:10122400BBE7B22820D1002303AC0D22194628467F
:101234000094FFF725FA3046FFF73BFF022700F042
:101244007F0110F08003039A01FA07F105D102F53A
:1012540001720A44039200948DE70A4430460392D3
:101264000737FFF726FFEAE7B3280BD13046FFF72D
:1012740020FF0123020300F00F0002F4702201306A
:101284000243BAE700F0FC03B42B86D000F0070257
:101294000132012342F40022AFE7C02B44D1C62817
:1012A4000AD13046FFF705FF020300F00F000323C5
:1012B40002F470220130E3E7C7280BD13046FFF770
:1012C400F8FE431EDBB20E2B02463FF666AF002348
:1012D400042193E700F0F803C02B06D100F00F02BD
:1012E4000132032342F4202287E7C8280DD1304677
:1012F400FFF7DFFE052300F0F00200F00F001032CC
:10130400013040EA0232012178E7C9287FF445AF71
:101314003046FFF7CEFE020300F00F0002F4702205
:10132400013005230243EEE700F0F803D02B7FF4ED
:1013340034AF00F007020132052342F40022E2E751
:101344001FB50346DA6C084653680832029203223A
:10135400190201911B0E01A98DF80C208DF80D3096
:10136400FFF7CCFE05B05DF804FB08B5FFF7C5FE3A
:10137400806C08BD08B5FFF7C0FEC06CC3790233AA
:1013840000EB830008BD000038B50446456A6A6A6C
:10139400012A19D9AB6A9A4216D914484FEA031C98
:1013A40000EB0313997A01F01F0101228A406A615C
:1013B4009B7B85F8203050F80C0005F11001836800
:1013C4009B680022984768B9A3695BB1A96A51B9BF
:1013D400696A01396A6A8A4204D9626932F9112058
:1013E400A06A984738BD0139F4E700BF982901087D
:1013F400004870479829010870B5582007F0BAF8DA
:10140400054638B101234362002406E0284607F06C
:10141400A8F80025284670BD0134686AA04212D994
:1014240023011E4AD05806F06EFC0028EED01B485B
:1014340000EB041003F0FDFF0028EDDA284607F066
:1014440090F80025E6E7400007F094F80446286485
:1014540008B1002309E0284607F083F82546D9E7B8
:101464002A6C002122F8131001336A6A9A42F7D8D1
:101474000024AC62AC876C64AC6485F84C402D6588
:101484006C6505F12C060649304606F00FFD2C600C
:10149400044B6B60AE60AC81BCE700BF98290108C7
:1014A4008D1300085154000878B370B515460446EE
:1014B400806A626A90422BD2224642F83C1B164E46
:1014C4004FEA001E06EB001090F80AC00CF01F0C47
:1014D400012101FA0CF1807B24616161A261022285
:1014E400E26184F82000002284F8212084F822207C
:1014F4006264A56484F84C20636556F80E0004F118
:10150400100183689B68984770BD6FF015007047A1
:101514006FF01500F8E700BF9829010808B50648E0
:1015240006F0F1FB28B1044883681B680349984717
:1015340008BD6FF01200FBE7A4200108A8290108E8
:1015440008B50246024883685B680121984708BDD4
:10155400A420010808B5044806F0D5FB08B1002012
:1015640008BD6FF01200FBE7E020010810B5034648
:101574000A46034881684C6C1946A04710BD00BF59
:10158400E020010808B5024883689B6A984708BDB3
:10159400E020010808B50146014803F0C3FF08BD77
:1015A400E020010808B5024B1B68984708BD00BF3E
:1015B400C0000020014B1860704700BFC00000202D
:1015C40000B585B00A460023009301930293039368
:1015D40002238DF80230044B01930146684603F060
:1015E400CBFC05B05DF804FBA915000870B50646F0
:1015F4000D46002404E0044B1B68305D9847013419
:10160400AC42F8D370BD00BFC000002080B50546D1
:101614000E461746984602F0FBFE034610F0DEFB2A
:101624000446DFF8189049F80030424639463046FF
:10163400A84754F8090000F00BFA00BF08000000A6
:10164400034A536843F0020353600020704700BF0D
:10165400002004E0084B1A6842F400721A601A6809
:1016640042F480621A601A6842F480721A60034B72
:10167400034A1A60704700BF003C02405C0100202E
:101684000024F400014B036000207047AC290108DA
:1016940030BFFFF7FDBF00BF38B50446054D2A46ED
:1016A40005490FF0E2FA054A002160190FF0DCF950
:1016B40038BD00BF000000008024010808000000BD
:1016C40070B50646054D064B1D444C1B2046FFF7DE
:1016D400E3FF083C746705F1080070BD00000000DA
:1016E40008000000054B5A699B689A4204D0044ADA
:1016F400536843F080535360704700BF780600205E
:1017040000ED00E038B515461D4B9B6A13F4805F6D
:1017140019D116241A4B9B6A13F4006F00D01824B5
:10172400174B9B6A13F4007F10D0154B9A6B9B6A7E
:1017340013F4004F09D001B3114A936A23F4004310
:101744009362192402E01724E4E719240C4B9B6AE2
:1017540013F4806F00D01A24094B9B6A13F4807F22
:1017640000D01B24064A936A43F47F439362012109
:1017740004F04CF92870204638BD1924E6E700BF70
:1017840000ED00E0174B9B6A13F0007F25D11D206C
:10179400144B9B6A13F0807F00D01F20114B9B6A6F
:1017A40013F4002F00D021200E4B9B6A13F4802FDA
:1017B40000D022200B4B9B6A13F4003F00D023205F
:1017C400084B9B6A13F4803F09D1064A936A6FEA77
:1017D40003436FEA1343936270471E20D8E7242023
:1017E400F3E700BF00ED00E081690D4B5A6942F454
:1017F40080725A61BFF34F8FBFF36F8F31F8021CB1
:101804005A6922F480725A61BFF34F8FBFF36F8F0E
:101814004DF60273994201D00020704701207047B1
:1018240000ED00E070B504461546294B9B6A13F0A1
:10183400100F19D11026264B9B6A13F0080F00D005
:101844001226234B9B6A13F0020F0FD0204B586BC8
:101854009B6A13F0800F2CD079B31D4A936A23F04E
:1018640080039362132603E01126E4E76FF015006A
:10187400174B9B6A13F0010F00D01426144B9B6A7C
:1018840013F0100F04D1124B9B6A13F0020F04D013
:101894000F4B5B6813F4006F11D10D4A936A43F048
:1018A400FF0393620121204604F0B0F8287030460B
:1018B40070BD6FF015001326DAE71326D8E721462A
:1018C40000F07CF90028E8D080F309880226E4E7D8
:1018D40000ED00E038B5054600230B701A4BD86ABA
:1018E40010F002002DD10C46DB6A002B2ADB164BCC
:1018F400D86A10F0804025D02846FFF775FF08B15C
:1019040028681FE0104B9B6A13F0FF0F0DD10E4B9C
:10191400986A10F47F400ED10B4B9B6AB3F5803F5D
:1019240010D32846FFF72EFF0CE02246012128465B
:10193400FFF778FF06E0224601212846FFF7E2FE82
:1019440000E0002038BD00BF00ED00E030B58BB0F2
:101954000C46264B5968C1F30801002383F3118810
:10196400BFF36F8F02F07F43B3F17F4F15D102F0C5
:101974000C03082B14D012F0080F0BD000250DF126
:101984002702204604F047F886469DF8273053B1D5
:101994000BB030BD04460125F1E700252C46EEE7E7
:1019A40000252C46EBE70DF1040C20686168A26861
:1019B400E368ACE80F0020696169A269E369ACE8F7
:1019C4000F0045B1C3F308025AB96FEA53236FEA13
:1019D4004323089305E0089B23F4FF7323F00103DA
:1019E400089301A9704603F0FCFFD1E700ED00E085
:1019F400044B5A6942F010025A615A6922F00802F3
:101A04005A61704700ED00E0EFF30880EFF30981BD
:101A140001B57246FFF79AFF01BD00BF0A4880F383
:101A24000888102080F3118808484FF40461401896
:101A340080F30988EFF314800221084380F31488AB
:101A4400BFF36F8F00F082F8804000200017002061
:101A540008B50A4B9B68834202D002F0DFFC08BD44
:101A6400EFF30583002BF8D0054B5A6842F08052FF
:101A74005A605A6A22F400425A62EEE7780600205D
:101A840000ED00E014498A684FF030001044EFF391
:101A9400098C80E8F01F102080F31288BFF36F8F49
:101AA4000E4F4FF000664A698A603E60506F0C4CDE
:101AB4002060906F0023936780F3118804B510466B
:101AC40000F0F8F8BDE8044002F1300090E8F01F9F
:101AD4008CF30988704700007806002004ED00E0CC
:101AE400B00400201EF0040F0CBFEFF30880EFF3E6
:101AF4000980816911F8021C0229FFD001B57246E0
:101B040003F078FF01BD00BF002807DB00F01F02CF
:101B1400400901239340024A42F82030704700BF35
:101B240000E100E0002808DB0901C9B200F16040CF
:101B340000F5614080F80013704700F00F000901C0
:101B4400C9B2014B1954704714ED00E008B5094BB4
:101B540023F0404323F07F03074A9360BFF34F8F82
:101B6400BFF36F8F01F0F2FC02F0B2FD00F06AF8EF
:101B740001F04AFD0000000800ED00E010B4A2F1FD
:101B840020040D4942F8081C21F0010142F8081C08
:101B940042F8203C019B42F81C3C029B42F8183C52
:101BA400039B42F8143C4FF0807342F8043C0465F4
:101BB4000023836710BC7047111600080E4B9B6806
:101BC400A3B110F1160F0AD05A6EA2F1400C84454D
:101BD4000ED882420ED98A4206D8002070475A6E27
:101BE4008A4201D800207047586E70470020704721
:101BF40000207047002070477806002008B50E4684
:101C04001546094A9060426F084B1A6000F052F87A
:101C14002C4686F309880020054B9847204600216E
:101C240000220023034C204778060020B004002043
:101C3400835A000811160008014B10221A617047DC
:101C440000ED00E0002206E003F00F030949194407
:101C540010230B760132502A0ADC53B2002BF3DB3B
:101C640003F1604303F56143102183F80013F1E7A6
:101C7400704700BFFCEC00E008B5EFF30583103BB0
:101C8400044A02EBC301496852F833008847FFF75E
:101C940029FD08BDF420010808B5034B034A0121BE
:101CA400034804F030F808BD0000022000000020C2
:101CB400AC29010808B5436E403B05480360402346
:101CC4004360044B8360012104F021F808BD00BF88
:101CD400B404002000000B15084AC2F898000B68F1
:101CE40023F01F03034343F01003C2F89C308B68B6
:101CF40043F00103C2F8A030704700BF00ED00E0DC
:101D0400084BD3F89030C3F30723013B984205D81E
:101D140010B50446FFF7E0FF204610BD6FF0150034
:101D2400704700BF00ED00E010B5034C012322789A
:101D340003F0E9FE207010BDF016002008B5002362
:101D44000B4A127803F0DFFE10F1160F0FD0024693
:101D540006E0084BC3F898200021C3F8A010013214
:101D6400044BD3F89030C3F307239342F1DC08BD4E
:101D7400F016002000ED00E0044B0522C3F8942087
:101D8400BFF34F8FBFF36F8F704700BF00ED00E0CC
:101D9400BFF35F8F024B0022C3F89420704700BF4B
:101DA40000ED00E038B51C4B1D681C4BD3F8903097
:101DB400C3F307239D422BD8FFF7EAFF002409E071
:101DC400154B5B6804EB440103EB81012046FFF7EC
:101DD40083FF0134A542F3D81148057003F0BBFE1C
:101DE40010F1160F13D00E4B1A780C4BD3F8903019
:101DF400C3F307239A4207DA084BC3F8982000215B
:101E0400C3F8A0100132F0E7FFF7B6FF002038BD99
:101E14004FF0FF30FBE700BFB829010800ED00E0F8
:101E2400F016002008B5024B1B689847002008BD37
:101E3400C0040020034B1860034A937843F0020364
:101E440093707047C0040020C400002008B5054802
:101E540003F0B8FD002383F31188BFF36F8F0423CD
:101E6400184602DFE829010808B54FF0FF324FF0A9
:101E7400FF33024803F054FF08BD00BFD400002024
:101E840008B5064921F00701C1F1005202F50032FC
:101E9400034803F053FD002008BD00BF074D002098
:101EA400C404002038B50446FFF7DEFF22460821AB
:101EB400084803F0CCFC054620B1074801F062FC59
:101EC400284638BD002CF8D00FF088FF034B0C22B5
:101ED4001A50F2E7C4040020D40000200C000000D3
:101EE40010B50446FFF7C0FF2146034803F06BFC1E
:101EF400024801F047FC10BDC4040020D4000020B7
:101F040070B50546002401E00134E4B26B78A342C5
:101F140015D32B782344DAB201209040084A526941
:101F240030EA0202F0D1064A5061064A52F83360A0
:101F3400002EE9D002EBC3035968B047E4E770BD53
:101F4400003C0140D004002000B583B0002300937E
:101F54000193BDF80030442262F30B03ADF8003066
:101F64004FF480430193044883681B68694698478B
:101F740003B05DF804FB00BF8C1F010800239942E5
:101F84000ADD10B400EB030C044C04F80C200133FC
:101F94009942F7DC10BC7047704700BFE80000208E
:101FA4005FFA81FC0CF102020A4B53F822200B0C5D
:101FB40022EA114193FAA3F34BB1B3FA83F39840A5
:101FC40001430CF1020C034A42F82C107047202301
:101FD400F5E700BF00380140C3B20233074A52F8A4
:101FE4002320030C02EA104093FAA3F31BB1B3FAC3
:101FF40083F3D84070472023FBE700BF003801403B
:1020040008B5034668B1B0FA80F2C2F11F02D2B239
:1020140005498856054A11680B43136003F01EFDF9
:1020240008BDFF22F4E700BFE8000020003C0140A7
:10203400024A136823EA000313607047003C01401E
:10204400032926D8DFE801F0020C151E114B9A680B
:1020540022EA00029A60DA6822EA0002DA60704733
:102064000C4B9A6802439A60DA6822EA0002DA604A
:102074007047084BDA680243DA609A6822EA000281
:102084009A607047034B9A6802439A60DA68104377
:10209400D8607047003C014010B498B1B0FA80F3A6
:1020A400C3F11F03DBB29C460D4850F8330088424D
:1020B4000AD088B90A4B43F83C1003EBCC035A60AE
:1020C40010BC7047FF23EEE7054C04EBC3035B68C9
:1020D4009342EED10020F3E76FF00F00F0E700BF6A
:1020E400D004002060B1B0FA80F3C3F11F03DBB267
:1020F400044A002142F8331002EBC30251607047D6
:10210400FF23F5E7D004002010B54468084883682D
:102114001B68A168984738B9236906494A6822F4BC
:10212400403213434B6010BD6FF00400FBE700BF67
:102134008C1F0108002301402DE9F0414768036921
:10214400D7F80080D3F8B85000260EE004EB440220
:102154001E3A44EA025297F92930012B1AD001237E
:10216400A34025EA03050136F6B225B395FAA5F492
:10217400B4FA84F40DB94FF0FF340134E4B2013CF5
:10218400E4B2092CE2D804EB440244EA025242F0DD
:102194000072E0E70C4B53F82610404603F005FFAD
:1021A4000A4B53F82630D8F82C2022F4700213433B
:1021B400C8F82C30D3E7D8F8043043F48073C8F857
:1021C40004300020BDE8F081DC2A01089C2A0108C3
:1021D40000B583B003460830D3F8903063332CBF86
:1021E4004FF0010C4FF0000CC3F31302190D41EA38
:1021F4000C311144104AA2FB01E2D20802EB820224
:1022040002EB82028A1A9B1A6CF1000C0B490C4AED
:1022140003FB02F201FB0C22A3FB01310A449B08DD
:1022240043EA82739208009301920022002302F091
:102234000DFC03B05DF804FB1F85EB51295C8FC2D4
:10224400F5285C8F08B5024804F090F808BD00BF7B
:102254009020010870B5044605694668114805F0E8
:1022640052FDD8B1C5F8A840FF2385F8BE3085F8E3
:10227400BF302046FFF748FF0021706904F09FF843
:10228400002807DB736803B19847284603F0DCFF96
:10229400002070BD10F1020FFBD1F3E76FF01200C4
:1022A400F7E700BF8C1F010838B5154644680A4695
:1022B400217D206904F0D6F8A06918B12A46217F4F
:1022C40004F0D0F8B4F87800054A002300F5C330D0
:1022D4009F300021FEF71AF802F034F838BD00BF31
:1022E400A086010070B54468012294F82410206A85
:1022F40004F0B8F8B4F8740000250E4E801945F1C6
:1023040000010D4A0023FEF701F802F01BF82A46EB
:1023140094F82410206A04F0A5F8B4F87600801923
:1023240045F10001044A0023FDF7F0FF02F00AF82A
:1023340070BD00BF9F860100A08601002DE9F84F03
:10234400824690464668012B03D083B904270224B1
:1023540001E000270124B2697AB1022B0AD04FF0C0
:10236400010B00225046FFF79FFF07251EE00427BC
:102374000124F0E74FF0000BF3E74FF0000BF0E718
:1023840028FA05F2631D06EBC30102F00102097984
:1023940056F8330004F066F8013D6DB2013C64B2B6
:1023A400BC42EDDA5046FFF79DFF4C4604F1FF397D
:1023B4004FFA89F90CB10724F2E7BBF1000F23D1DE
:1023C400B8F1010F22D025236333C3F3130202EBC8
:1023D4001351104AA2FB0102D20802EB820202EB63
:1023E40082028A1A9B1A60EB00000B490B4A03FB1A
:1023F40002F201FB0022A3FB01310A44980840EADF
:102404008270910801F09EFFBDE8F88F4FF4BE631F
:10241400DAE700BF1F85EB51295C8FC2F5285C8F7A
:1024240070B5456806692B7901220021FFF786FF04
:10243400002434807480B5F87A0063300E4BA3FB1B
:102444000013DB0803EB830303EB8303C31AC01AF3
:1024540062EB0202094B0A4900FB01F103FB021182
:10246400A0FB03031944800840EA8170890801F045
:1024740069FF204670BD00BF1F85EB51295C8FC2E8
:10248400F5285C8F0C4B1B6813F0020F09D10A4A24
:10249400136843F001031360074B1B6813F0020F2A
:1024A400FAD0054A936823F003039360024B9B68B8
:1024B40013F00C0FFAD17047003802400C4B1B6824
:1024C40013F0020F09D10A4A136843F001031360A1
:1024D400074B1B6813F0020FFAD0054A536F43F001
:1024E40001035367024B5B6F13F0020FFAD070477E
:1024F40000380240F8B50C4615463F4B1E680421CF
:10250400304604F0E7F907460221304604F0E2F9C8
:102514002388C3F30B021346442A29D812B2002A93
:1025240062D0013B432B62D8DFE803F03D5154589D
:102534005B3F4861616161616161616161616161C8
:102544006161616161616161616161616161616177
:1025540061616161616161616161612961616129D7
:102564006161613761616161616161396161613BCF
:10257400A82A01D12E6003E06FF0850039E02E60B7
:102584002368B3F5805F35D32A68C3F3133301336B
:10259400B2FBF3F22A6000202BE02E60F0E72F60FC
:1025A400EEE72860ECE72E60EAE700F0A9F80223E2
:1025B400F022102104F087F92860E1E700F0A0F888
:1025C4000523F022102104F07EF92860D8E70023C7
:1025D4002B60D5E74FF4FA432B60D1E7074B2B6010
:1025E400CEE700232B60CBE76FF0850001E06FF0AE
:1025F4008500F8BD0020FCE75C0100200024F40005
:1026040010B5174B9B6803F00C03082B20D0144A19
:10261400136823F080731360114B1B6813F0007F61
:10262400FAD10F4C636823F440336360636823F08A
:10263400706343F0A063636000F066F8236843F0BE
:1026440080732360064B1B6813F0007FFAD010BD23
:10265400FFF718FF024A936823F0F0039360D6E76C
:102664000038024038B500F06DF8214C204604F0E3
:10267400C4F900F0F9FD1F4B9B68C3F303131E4A12
:10268400D35C20FA03F513781C41A54228D3FFF745
:1026940015FFFFF7B5FF174A936823F0F003936023
:1026A400936823F0030343F002039360114B9B6888
:1026B40003F00C03082BF9D1A54215D20F4B0C4A99
:1026C4001A600C4A936823F4E05343F4A0539360D4
:1026D400936823F4604343F400439360002038BDBF
:1026E400204600F02FFED2E7204600F02BFEE5E75F
:1026F400000E270700380240882E01085C010020E4
:10270400004870470024F40008B504F077F9094A3A
:102714005168094B0B4040F4705141F010010B43D8
:1027240053605168054B0B40054901430B4353600B
:1027340008BD00BF003802400080BCFF0080BFF02D
:10274400103C000582B0064B1A6C42F080521A64A9
:102754001B6C03F080530193019B02B0704700BFD0
:102764000038024010B504460A2806D0E1B20648F3
:1027740083685B689847204610BD034883685B689C
:102784000D219847F2E700BF7C20010810B5044CE6
:102794002046FFF74FFB2046FEF70CFF10BD00BF9D
:1027A4006927000808B5054805F0ADFA18B1FFF728
:1027B400EDFF002008BD6FF01200FBE77C2001084C
:1027C40010B4036944681878884230D391B35878B8
:1027D400012383409A4230D2082804D00C2813D015
:1027E400002010BC704720680139154B53F8213084
:1027F40008301B0E9B0003F03C03C15821F0FF017D
:102804000A43C2500020ECE7206801390C4B53F80E
:10281400213008301B0C9B0003F03C03C15821F409
:102824007F6121F00F010A43C2500020D9E76FF005
:102834001500D6E76FF01500D3E76FF01500D0E769
:10284400EC2B010830B4026944680B781078834299
:102854002DD87BB34B78082B01D00C2B2DD1537082
:102864000B78013B184A52F823208B7813F0010FA0
:102874001BD0002025682B6802F010024FF0020CD8
:102884000CFA02FC23EA0C03904003432B608B7880
:1028940013F0020F14D120680368012101FA02F237
:1028A40013430360002030BC70470220E2E76FF05E
:1028B4001500F8E76FF01500F5E76FF08500F2E713
:1028C4006FF08500EFE700BFEC2B010838B54468D2
:1028D4000E4805F018FA98B10C4883681B68211D4E
:1028E4009847054678B90021E06804F089F8002883
:1028F40001DB284638BD10F1020FFAD00546F8E78F
:102904006FF01205F5E76FF00405F2E78C1F01087C
:1029140038B5836805699C697CB112F4000F06D050
:102924002D6801238B401D4201D082F0C062044B0C
:10293400134002F01662A04738BD6FF05700FBE762
:102944004000000638B544680569606805F0DBF9A5
:10295400F8B1E06800B305F0D6F9F8B14FF480316E
:1029640004F10C0004F0A7F8D8B9E068217C4FF01A
:10297400B862FFF7CDFFB8B9227C012393400D4A1A
:102984002A646B6405F13C01E06804F09FF870B9B7
:1029940038BD6FF01200FBE70020F9E76FF012007A
:1029A400F6E76FF00400F3E76FF00400F0E76FF070
:1029B4000400EDE70D6E000808B5436831B107481F
:1029C4008268126803F10C01904708BD03488268CD
:1029D400526803F10C019047F7E700BF8C1F010810
:1029E4002DE9F8430F4614461D46D0F80480D0F86C
:1029F4001090D8F8080003F0E1F90646B4F1026F2C
:102A040014D0B4F1046F15D0B4F5001F16D0B4F58A
:102A1400800F35D0B5F1806F2ED0B5F1C06F2DD0B9
:102A2400B5F1007F11D06FF0150422E0FFF700FB31
:102A340000241EE0FFF7E4FA00241AE03946D8F82F
:102A4400080004F0E2FB002413E002254A460F4983
:102A54003046FFF721FB0446A8B9D8F808103846D9
:102A640003F0AFF929463046FFF7EAFA3046FFF79C
:102A7400C7FA2046BDE8F8830125E7E70325E5E723
:102A84006FF08504F5E76FF00F04F2E7DD6E0008E0
:102A940010B5044603695860074805F034F938B1A5
:102AA40001212046FFF788FF002800DB002010BD2D
:102AB4006FF01200FBE700BF8C1F010830B52A4CF1
:102AC400A4FB014E4FEA9E4C446824F03F0444EAC0
:102AD4009E444460046A24F03F04244DAA421BD857
:102AE4000CF1010C44EA0C040462204CA24231D9DA
:102AF400F3B902EB4202B1FBF2F2C2F30B0119B3D8
:102B040042F400410B43C26922F44F4C2CF0FF0CF9
:102B14004CEA0303C36130BD4FF4967505FB0CFC0E
:102B2400134DA5FB0C5C4FEA9C1C0CF1010CD9E77E
:102B340002EB820202EB8202B1FBF2F2C2F30B015E
:102B440029B142F40041DDE748F20101DAE748F235
:102B54000101D7E75200B1FBF2F340F6FC721342D5
:102B6400D1D10423CFE700BF83DE1B43A08601003D
:102B7400D34D6210F0B583B00446154606690027AC
:102B8400009704F02DFD204604F09AFB41F28832B0
:102B94000023304600F092FE30B9064A294620460A
:102BA40004F0D1FB03B0F0BD204604F098FB6FF0B5
:102BB4000400F7E76C2D0108F0B583B00446154610
:102BC40046680769F6684FF0010CCDF800C004F0C0
:102BD40007FD204604F074FB736843F4C06373601C
:102BE40041F288320023384600F068FE30B9064AC4
:102BF4002946204604F0A7FB03B0F0BD204604F0AC
:102C04006EFB6FF00400F7E7582D010808B5426821
:102C14000369D0681B6BC3F34203012B04D0022B5E
:102C240008D06FF0150008BD0023054AFFF746FFE2
:102C34000020F8E70023034AFFF740FF0020F2E7F3
:102C4400A0860100801A0600104B984213D00AD9BE
:102C54000F4B984215D003F5C31303F52063984234
:102C640011D10A2070470B4B984206D00A4B984268
:102C740005D10420704706207047022070470020C9
:102C84007047082070470020704700BF40420F0083
:102C940040E13300A0860100801A060010B54468A4
:102CA4000021606904F0BCFD002805DB044883684A
:102CB4001B686168984700B910BD6FF00400FBE71A
:102CC4008C1F0108F0B583B00E4643680569DF68C0
:102CD400002201925968194B9B68DB6853B3044680
:102CE40001AA16489847002824DB2E6305F118062C
:102CF4004FF0FF324FF0FF33304600F0DFFD3B680A
:102D040023F001033B6095F85E10204604F098FD23
:102D140001992046FFF77AFF044695F85D301BB110
:102D24003B6843F001033B60304600F081FD2046E0
:102D340003B0F0BD6FF00404F9E700BF8C1F010875
:102D440070B50446466805694FF0FF3200212846F5
:102D540005F038F8336820469847002385F85C303E
:102D640085F85E3005F118000122114605F02AF8B5
:102D74000C4804F0C8FF88B12046FFF78FFF306984
:102D8400FFF762FF40F010012046FFF79BFF002889
:102D940003DB012385F85C30002070BD6FF0120066
:102DA400FBE700BF8C1F0108B0F5887F17D2F8B588
:102DB40004460D46164603090A4A52F823705FB1C9
:102DC400384604F0A0FF38B133462A4604F00F0118
:102DD400384604F032FAF8BD6FF01200FBE76FF0EA
:102DE40015007047D02D010810B4B2F5004F21D062
:102DF40001EB810101EB81019B00B1FBF3F11E4C5E
:102E0400A4FB01235B091A0192B24FF0640C0CFB82
:102E140013131B013233A4FB0343C3F34F1303F017
:102E2400F0010A4492B203F00F0313449BB283608F
:102E340010BC704701EB810101EB81015B00B1FB28
:102E4400F3F10D4CA4FB01235B091A0192B24FF07C
:102E5400640C0CFB1313DB003233A4FB0343C3F3F6
:102E64004F13590001F4F8710A4492B203F00703B6
:102E740013449BB28360DBE71F85EB512DE9F041DE
:102E84000C4643681D6803695E680B79012B58D0B2
:102E9400022B59D14FF480676279012A59D0022A52
:102EA40059D0002A52D04FF4005194F806E0BEF1F4
:102EB400040F53D0002B54D14FF00008A3F1030C9E
:102EC4005FFA8CFCBCF1010F5BD913B1BEF1040FA6
:102ED4005AD0B1F5805F49D0B1F5405F48D00029A0
:102EE40042D003239A4252D1B8F1000F42D1002FAD
:102EF40045D103239E454DD1E37983B1012B4CD1B8
:102F0400294B9D420BD0A3F54C439D4207D003F5BA
:102F140080639D4203D003F54C439D4240D1EB684E
:102F240023F40053EB60214604F03BFDEB6843F4CB
:102F34000053EB6094E8030086E803000020BDE83A
:102F4400F0814FF4C067A7E70027A5E74FF480514D
:102F5400ABE70021A9E74FF44051A6E74FF48058AE
:102F6400ACE74FF48058A9E70123BBE70023B9E796
:102F74000223B7E70FB90423BCE70323BAE702230C
:102F8400B8E76FF08500DAE76FF08500D7E76FF0F8
:102F94008500D4E76FF08500D1E76FF08500CEE7B8
:102FA4006FF08500CBE700BF0010014008B5024A6E
:102FB40004F0CBFD08BD00BFBD7B000808B5024A84
:102FC40004F0DDFD08BD00BFC37B000838B54568CB
:102FD40004690748206004F096FE28B120688368DD
:102FE4001B68E968984738BD6FF01200FBE700BF23
:102FF4008C1F01084FF0E023996918699A6909B98F
:103004000C4B19680AB90B4B1A6810F4803F01D1B4
:10301400914208D208490B680648006803440B60D3
:103024004FF0E0231B69034B1B689B1A024A10688C
:103034001844704774060020700600200A4B1022C2
:1030440083F82320094B42F6E0621A600020084B03
:1030540018604FF0E02342F6DF625A6198611A6902
:1030640042F007021A61704700ED00E07406002088
:1030740070060020684620F007018D4619B5FFF759
:10308400B9FF12480368124A516814681B1941F1C8
:10309400000113605160002202600E490A68981A08
:1030A4000D4BA3FB0030000A42F6E06300FB03F380
:1030B400D2184B6843F100030A604B6001F0CAFB6D
:1030C400FEF710FBBDE819408546704770060020E6
:1030D4001802002010020020F1197605F8B5002925
:1030E4004DD0B0F1FF3F3FD03F4B1C6801284EDD6F
:1030F40040F276539842A8BF1846461EEFF3118556
:10310400102383F31288BFF36F8FFFF773FF4FF021
:10311400E0239F69354A13685168C31841F10001DF
:10312400136051600021324A1160324A11685A1A00
:103134002FD442F6E06000FB062202F53B521F3218
:103144002D4EA6FB0262120AC91A00FB02110A469E
:10315400B1F5806F38BF4FF48062284B994236D95D
:10316400214B264A1A6018E04FF0E022136923F03D
:10317400010313611C4B4FF07F421A6026E01A4B87
:103184001C68B0F1FF3FB1D140F27550B0E70026A2
:10319400B4E7154B4FF480621A604FF0E02399694D
:1031A400114A1268013A5A6100229A618F4211D27F
:1031B400641A3C440D4A136851681B1941F100011B
:1031C4001360516085F31188BFF36F8FF8BD064B10
:1031D4001A60E2E77F1A054A13685168DB1941F166
:1031E400000113605160EDE774060020180200200E
:1031F4007006002010020020F119760560CCFF0053
:1032040038B5EFF31185102383F31288BFF36F8F62
:10321400084B1C68084B1B68E41AFFF7EBFE2044BC
:1032240085F31188BFF36F8F044BA3FB0030000AB2
:1032340038BD00BF1802002010020020F1197605E5
:1032440038B5EFF31185102383F31288BFF36F8F22
:10325400044B1C68FFF7CEFE204485F31188BFF3AE
:103264006F8F38BD1802002008B5334B9B6803F0FC
:103274000C03042B5BD0082B5BD12F4B5A6802F054
:103284003F025B6813F4800F2CD02B4B5868C0F3BB
:1032940088104FEA401CBCEB000C6EEB0E0E4FEA9C
:1032A4008E1343EA9C634FEA8C11B1EB0C0163EB80
:1032B4000E03DB0043EA5173C90011EB000C43F128
:1032C4000003590200234FEA4C2041EADC51FDF788
:1032D4001DF8194B5B68C3F3014301335B00B0FB7A
:1032E400F3F027E0144B5868C0F388104FEA401CF1
:1032F400BCEB000C6EEB0E0E4FEA8E1343EA9C639C
:103304004FEA8C11B1EB0C0163EB0E03DB0043EAD3
:103314005173C90011EB000C43F10003990200231F
:103324004FEA8C2041EA9C51FCF7F0FFD1E70348B7
:1033340000E0034808BD00BF0038024000127A00D4
:103344000024F40028B3144A904207D8134A904248
:1033540019D8134A904218D9012100E00321114AD7
:10336400136823F00F030B43136002220D4B1B68F9
:1033740003F00F03013A994201D0002AF6D1994291
:1033840005D0012070470221E9E70021E7E700208A
:1033940070470120704700BF804A5D050087930392
:1033A40080C3C901003C0240034B00E01433034ACC
:1033B4009342FBD3704700BF8C1F0108F42001081F
:1033C40038B5EFF31185102383F31288BFF36F8FA1
:1033D400054B9C6804F0AFFC85F31188BFF36F8F35
:1033E4002046FEF735FB38BD7806002038B5054683
:1033F4000A4B53F8204002E02368984708346B1CBA
:10340400064A52F82330A34206D96368002BF3D04E
:10341400204604F093FCF1E738BD00BFA02E01085C
:1034240010B586B00F4C04EBC01400EB800C0E4BAF
:1034340003EB8C0300220592012104910F210391D7
:10344400029201920093094B4FF48072084901EBF8
:103454008C11204600F0ECFB637B23F004036373C0
:1034640006B010BD2002002078060020837D0008ED
:10347400401F002008B553EA020102D100F0A4FF66
:1034840008BD0249183001F05FF9F9E74B810008E3
:1034940010B586B0184C14E0636A0593236A04934C
:1034A400E3690393A3690293636901932369009316
:1034B400E368A2686168206800F0BAFB23685C6571
:1034C40030340E4B9C42E7D300F04CFE0A4C00E033
:1034D40030340A4B9C420BD2A26AE36AB3F1FF3F39
:1034E40008BFB2F1FF3FF3D02068FFF7C3FFEFE757
:1034F40000F050FE06B010BD7C2301087C230108B7
:1035040008B50B4B01221A700320FFF76FFF01F07F
:1035140015FB04F033FC0420FFF768FFFFF7B8FF46
:1035240002F009F8034A137B23F00103137308BD67
:10353400F1160020A002002008B50146014A024805
:10354400FEF75CFB05350008A002002008B503481F
:10355400034A121A002104F009FC08BD10020020DD
:10356400F416002010B50446FFF75AFF0B4901EB8F
:10357400C4110B4A04EB840302EB8303D9601C746B
:1035840004EB4411074B03EB811303F5046304EBD1
:10359400840402EB8402536010BD00BF20020020AB
:1035A400780600200017002070B586B000F02AFECF
:1035B400104D114B5D61114B0593012304930024BD
:1035C40003940294019400940D4B4FF400520D495E
:1035D400284600F02DFB06466B7B23F004036B7337
:1035E400284604F048FD2046FFF7BCFF304606B0ED
:1035F40070BD00BFA002002078060020982E0108AC
:10360400053500088020002008B50020FFF7EEFEF5
:10361400194B83F30888194C636943F4007363619D
:10362400F02384F822300023E37723766376A376AD
:1036340084F82030636A43F4E0236362FEF7D8F928
:10364400FEF7FAFA4FF0FF33A362E362FEF7AAFB38
:10365400FEF722FB0A4800F01BFBFFF7A5FEFDF76F
:10366400F9FF0120FFF7C2FE0220FFF7BFFEFFF7BC
:103674009BFFFFF761FF00BF401F002000ED00E04B
:10368400200300202DE9F04182B00446EFF31187B6
:10369400102181F31288BFF36F8FC16899B9002993
:1036A40050D1364B9B6893F90E3023610131E160B0
:1036B400324B9B68A36087F31188BFF36F8F0020A0
:1036C40002B0BDE8F08116461D4682682B4B9B680C
:1036D4009A42E4D055EA060136D092F90E8041466A
:1036E40093F90E0004F058FB804534DC4FF00008D9
:1036F4000096019522463946214800F077FC0028BF
:10370400DED0EFF31185102383F31288BFF36F8F9C
:10371400A36843B323689C4223D013B3216993F96C
:103724000E0004F039FB0146204604F040FBE8B9E2
:10373400B8F1000F1AD185F31188BFF36F8F6FF0C2
:103744000A00BDE72369B0E787F31188BFF36F8FE1
:103754006FF00F00B4E70146204604F028FB8046D2
:10376400C6E72169E0E7B8F1000FE4D02946044830
:1037740000F0CCFC6FF00A00A2E700BF780600203E
:1037840098060020F8B58368002B46D00446264AE4
:103794009268934244D1C368012B04D9013BC360AE
:1037A40000252846F8BDEFF31186102383F3128811
:1037B400BFF36F8F016904F0FAFA2768BC420CD09A
:1037C4003D1E18BF012557B9A760CDB90023E3609A
:1037D40086F31188BFF36F8FE3E70027F0E77A6879
:1037E4003B6813605A6000233B607B607A7B22F065
:1037F40002027A73BB6007F1180004F068FDE3E786
:1038040097F90E3023610025FD67384604F033FC38
:103814003146064800F07AFCC3E76FF01505C0E7AF
:103824004FF0FF35BDE700BF780600209806002062
:10383400F8B50446EFF31186102383F31288BFF31F
:103844006F8F0568A84216D02F1E18BF0127A5B98F
:1038540027BBA368E268934227D001221344A360E4
:10386400022104F1100004F044FE00BB86F3118829
:10387400BFF36F8FF8BD0025E6E76A682B68136015
:103884005A6000232B606B606A7B22F002026A7329
:10389400AB6005F1180004F01AFDD9E70023EB67CB
:1038A400284604F0E8FB0120DFE70022D6E7314692
:1038B400014800F02BFCDDE79806002010B582B02B
:1038C400EFF31181102484F31288BFF36F8F84689F
:1038D40044B1013C846081F31188BFF36F8F0020F1
:1038E40002B010BD53EA020406D0009201930246CE
:1038F400054800F07BFBF3E781F31188BFF36F8F7A
:103904006FF00F00ECE700BF980600202DE9F041AE
:103914000546EFF31187102383F31288BFF36F8FEB
:10392400B846002618E0002419E062682368136092
:103934005A60002323606360627B22F00202627398
:10394400A36004F1180004F0C2FC6FF00A03E367FB
:10395400204604F090FB01262C68A542E3D0002CFD
:10396400E3D1002CF1D10023AB60022105F110005A
:1039740004F0BFFD28B926B988F31188BFF36F8F0F
:1039840003E03946024800F0C1FBBDE8F08100BF06
:103994009806002070B338B50D4604461B4B9B684F
:1039A40083421BD000231A46D4F89830C3F3800115
:1039B400C3F3C00013F0010F1FD001B102B300B173
:1039C40009B300232B60D4F8843073B11D60C4F8AC
:1039D4008450204604F01CFA012038BD04F0AEFAED
:1039E40008B90123DFE70023DDE7C4F88450C4F8F5
:1039F4008050EEE76FF0150070476FF01200ECE7AF
:103A04006FF00F00E9E76FF00F00E6E7780600209B
:103A140010B5C36823F00203C360134B1C687CB168
:103A2400236803B10CB100210FE02346FBE72246D3
:103A34000D4804F0DAF904F10800FFF7F9FE10BDAF
:103A44002346F0E71A461C461346002CF7D062685A
:103A54008242ECD02146002BF4D01A68002AF2D01E
:103A6400002BF0D11A46EEE79806002070B584B01A
:103A74000546EFF31186102383F31288BFF36F8F8B
:103A8400D5F88040002C3FD02368C5F88030D5F8A5
:103A9400842094424DD0D5F8983043F00203C5F801
:103AA4009830E36843F00102E26023F0040343F03A
:103AB4000103E360636886F31188BFF36F8F2046C8
:103AC4009847EFF31186102383F31288BFF36F8FA7
:103AD400E36823F00103E36013F0100F44D1E368BB
:103AE40013F0020F44D1D5F8983023F00203C5F83F
:103AF4009830C3F3002386F31188BFF36F8F002B34
:103B0400B7D100F087FBB4E7D5F8983023F004026E
:103B1400C5F8982013F0040F0ED112F0100F14D032
:103B24000023C5F8983086F31188BFF36F8F04B073
:103B340070BDC5F88430AEE705F190040022012180
:103B4400204604F05AFB0028F8D1002302934FF0DA
:103B5400FF324FF0FF33CDE9002305F188023146EF
:103B6400054800F00BFD84E7204604F096F9B6E71B
:103B74002046FFF74DFFB6E7A006002008B5014632
:103B8400014804F0AEF908BDC0030020F0B589B0C7
:103B940004460E9D0020C4F88000C4F8840004F19B
:103BA4008800C4F88800C4F88C0004F19000C4F8BC
:103BB4009000C4F894002DB3287928BB0120C4F8E0
:103BC40098004FF0FF364FF0FF37CDE9066700202D
:103BD400049003930290019000940D4B204604F04E
:103BE400C1F955B1296811B1204604F0ADF96B79DA
:103BF4001BB1237B43F001032373204600F0E4FB55
:103C040009B0F0BD0120DAE740F20110D7E700BFA8
:103C1400713A000808B553EA020102D100F0D4FB5E
:103C240008BD0249183000F08FFDF9E74B81000808
:103C3400F0B585B004460E4615461F4600F15803FC
:103C44008365C3650E9B04220D9904F080F92A460E
:103C54003146204604F04FF905460C9B02930B9B1A
:103C640001930A9B00933B46024631462046FDF7EA
:103C740085FF00236365054B9B6823B11B6F236796
:103C8400284605B0F0BD2367FAE700BF7806002098
:103C940010B504460123437303730023436683660C
:103CA40000F046FF014B9C6010BD00BF7806002069
:103CB400094A936898676FF00A01D96707494B6806
:103CC40043F080534B60002383F31188BFF36F8F5D
:103CD4009368D86F704700BF7806002000ED00E0BD
:103CE400437B90F90D20002A51DB13F01F0F4ED1B6
:103CF40010B563F07F034373254A52F8183F93428B
:103D04000ED100230CE05A684260036010605860D2
:103D14001EE01A461E49C9698A420FD01B687BB14E
:103D240073B190F90E1093F90E209142F1D0521A0A
:103D3400002AE8DC1A46002BECD1F0E70023EEE77A
:103D4400134BDA6903F11801016042601060D86115
:103D54000F4B53F8184F9C420ED06CB10C4B9B6820
:103D64005A7B12F01F0F0AD1DA897F2A07D9A26978
:103D74002AB9074A536109E0054BDC68EEE7A34220
:103D840002D0204600F044FC014B5C6110BD70473A
:103D94007806002010B5437B90F90D20002A14DB2F
:103DA400154B9A6853F8184F9C4219D0C4B18242FB
:103DB40019D0537B13F01F0F15D1D3897F2B12D940
:103DC400A36983B90C4B5A6114E003F07F03437376
:103DD4004268036813605A60002303604360DFE7AE
:103DE400054BDC68E3E7A24202D0204600F010FC59
:103DF400014B5C6110BD00BF780600202DE9F04145
:103E040005460C463D4B9E68737B13F0600F23D030
:103E140013F0200F25D008271F421DD13B43737395
:103E240013F0800F1FD1082F28D04FF00008334B18
:103E340053F8186F9E4246D0002E44D02F4B9B68F7
:103E4400B34202D0304600F0E3FB2C4B5E61102FEE
:103E540002D0B8F1000F39D184F31188BFF36F8F0A
:103E640045E01027D8E703F07F0373737268336863
:103E740013605A60002333607360D4E7B3685BB1A6
:103E84007268336813605A60002333607360727B16
:103E940022F002027273B360304604F0B9F806F1FE
:103EA400580004F0BAF8154B9B689E4202D04FF0BC
:103EB4000008BCE7EFF3058313B94FF00008B6E739
:103EC4004FF00108B3E70D4BDE68B7E70C48FFF786
:103ED400DFFEC1E7EFF31184102383F31288BFF3ED
:103EE4006F8F03F057FF84F31188BFF36F8F6B7BE1
:103EF40013F0600FEED1BDE8F08100BF780600201A
:103F040020030020B3F1FF3F08BFB2F1FF3F00D10F
:103F1400704708B50249183000F016FC08BD00BF10
:103F24004B81000810B5437B90F90D20002A0ADB71
:103F3400437B63F07F0343732B4A52F8183F934249
:103F440019D1002317E003F07F0343734268036829
:103F540013605A60002303604360E9E75A684260D3
:103F64000360106058601EE01A461F49C9698A42FE
:103F74000FD01B687BB173B190F90E1093F90E202A
:103F84009142F1D0521A002AE8DC1A46002BECD1F7
:103F9400F0E70023EEE7144BDA6903F1180101603E
:103FA40042601060D861104B9A6853F8184F9C42D5
:103FB4000ED06CB182420ED0537B13F01F0F0AD186
:103FC400D3897F2B07D9A3692BB9074B5A6109E021
:103FD400054BDC68EEE7A24202D0204600F018FB55
:103FE400014B5C6110BD00BF7806002010B50C4683
:103FF40011460A4882680A4B1A60EFF311831023B2
:1040040083F31288BFF36F8FDDE90223806804F025
:1040140026F82046FFF74CFE10BD00BF78060020AE
:10402400A00600202DE9F04104460E460023EFF3DC
:104034001185102282F31288BFF36F8F1F463FE071
:104044005A686260236014605C601CE01A462E4863
:10405400C06982420DD01B686BB163B193F90E2025
:104064009142F3D0521A002AEADC1A46002BEED110
:10407400F2E70023F0E7244BDA6903F11801216029
:1040840062601460DC61204B53F8188F98450DD0A2
:10409400B8F1000F0AD01C4B9B68984502D04046EB
:1040A40000F0B6FA184BC3F8148004E0164BD3F8AA
:1040B4000C80F0E7A67385F31188BFF36F8F01239B
:1040C400F3B9637B03F01F02002A0CBF012700270A
:1040D400F0D103F07F0363736268236813605A604E
:1040E40000232360636071B2A173637B63F07F0379
:1040F4006373054A52F8183F9342AED10023ACE7EC
:104104003846BDE8F08100BF7806002008B50B46AC
:1041140059B9EFF3058242B9064A50699268904250
:1041240003D00846FFF7C4FD03E083F31188BFF30F
:104134006F8F08BD7806002008B5034650B9EFF329
:1041440005823AB9064A51699268914202D0FFF752
:10415400AFFD03E083F31188BFF36F8F08BD00BF89
:10416400780600200023EFF31181102282F31288D5
:10417400BFF36F8F09E0064B9A68D37B013BD3737F
:1041840081F31188BFF36F8F0123002BF3D07047A5
:104194007806002038B50023EFF31185102282F34E
:1041A4001288BFF36F8F0EE0154BDC6817E0A24254
:1041B40002D0204600F02CFA114B5C6185F3118883
:1041C400BFF36F8F0123BBB90D4B9A68D17B0131CB
:1041D400D17353F8184F9C42E6D0002CE4D0537BA3
:1041E40013F01F0FE3D1D3897F2BE0D9A369002BF0
:1041F400DDD1034B5A61E1E703F0D9FF38BD00BFBD
:104204007806002008B5024803F0F3FF08BD00BF9C
:104214008C06002038B5EFF31184102383F3128841
:10422400BFF36F8F224B9A68DB699A4205D01368FB
:10423400516812680A60516006E00023F8E71C4ADE
:10424400D269934212D01B6893B1194A906890F9CD
:104254000E1093F90E209142F1D0521A002AEEDD8D
:104264005A6842600360106058600AE00023EBE77C
:104274000F4B9A68D96903F11800106051600A6005
:10428400DA610B4B53F8185F9D420DD065B1084BB2
:104294009B689D4202D0284600F0BAF9044B5D6148
:1042A4002046FFF705FD38BD014BDD68EFE700BF91
:1042B400780600202DE9F04150EA010333D004468A
:1042C4000D466FF001031B1A4FF0FF3262EB01023F
:1042D400012B72F100022ADB6FF00106361AEFF3AC
:1042E4001188102383F31288BFF36F8F124FB868BD
:1042F400124B1860FFF74EFDB86822462B46104952
:10430400183000F021FABA68537B43F00403537366
:104314004046FFF7CDFC04F002F8301A002800DC18
:104324000020BDE8F081FFF775FF0020F9E703F0F6
:10433400F6FF0619D3E700BF78060020A006002088
:104344004B81000870B505460E460446FFF7B2FFE0
:10435400B6F1FF3F08BFB5F1FF3F2DD0C3170930B9
:1043640043F100030A2873F1000224D36FF00A0218
:1043740082424FF004029A4120D30021C21818D27D
:104384000A441049A1FB024525F0030404EB9504FB
:10439400121B801A63F100034FF0CC3200FB02F2CF
:1043A40001FB0323A0FB01010B44440844EAC3744A
:1043B40002E00121E4E70024204670BD6FF00044D0
:1043C400FAE700BFCDCCCCCC38B5EFF31185102380
:1043D40083F31288BFF36F8F437B13F0040F04D170
:1043E40085F31188BFF36F8F38BD0446183003F08E
:1043F4006EFF637B23F0040363732046FFF770FCB6
:1044040029460248FFF782FEEEE700BFA00600201F
:10441400014B9868704700BF780600202DE9F843E7
:10442400037B03F00107EFF31186102383F3128853
:10443400BFF36F8F457B15F0080F1AD10446B146C0
:1044440000F1580803F0B0FD10B345F02005657382
:10445400EFF305839BB131462046FFF7CFFC67B1EC
:10446400002383F31188BFF36F8F0423184602DF00
:1044740003E086F31188BFF36F8FBDE8F8834146EC
:104484003C4B986803F092FD3046FFF711FCE6E7D9
:1044940045F00803637313F0800F30D1A3685BB158
:1044A4006268236813605A60002323606360627B40
:1044B40022F002026273A36004F1180003F007FF04
:1044C400404603F0AAFD2B4B9A68944224D0002660
:1044D400284B53F8185F9D4225D025B3AA4202D039
:1044E400284600F095F8234B5D61FEB9214B9B688B
:1044F4009C421FD089F31188BFF36F8FAFE705F09B
:104504007F0545F0080565736268236813605A6087
:10451400002323606360C1E7EFF305830BB9002632
:10452400D6E70126D4E7134BDD68D7E71248FFF737
:10453400AFFBDBE7EFF30583002BDBD1237B13F029
:10454400010F12D089F31188BFF36F8F002383F317
:104554001188BFF36F8F0423184602DFEFF311892C
:10456400102383F31288BFF36F8F4846FFF7A0FB35
:1045740075E700BF78060020200300202DE91048CD
:1045840083B0089CDDE906BCCDE900BCFFF72EFD35
:104594001CB1034B9B681B69236003B0BDE8108802
:1045A40078060020044BC01AC010044B03FB00F033
:1045B400034B01221A547047A0030020ABAAAAAAF5
:1045C400A4060020C3897F2B11D80E4B1B687BB136
:1045D40090F90E200C4B1B689A420CDB437B13F0C2
:1045E4001F0F0AD1094B984209D0012300E0002390
:1045F40003F0010070470023FAE70023F8E70023E3
:10460400F6E700BFAC060020A80600202002002028
:1046140070B505460D4B1E7C06EB46030C4C04EBB3
:10462400C304204603F053FE0A4B00229A55284641
:10463400FFF7C8FF00B970BD074B1A68013AD317DA
:104644000649204600F080F8F5E700BF7806002010
:10465400A0030020A4060020AC060020A945000801
:1046640038B5EFF31185102383F31288BFF36F8FEE
:10467400144B9C68144B1B68A34217D0124B0022A6
:104684001A60104B1B7C114AD35C53B12046FFF7D0
:1046940099FF30B1637B13F01F0F0FD02046FFF753
:1046A400B7FF85F31188BFF36F8F38BD2046FFF73E
:1046B400AFFF85F31188BFF36F8FF6E72046FFF74E
:1046C40031FCEBE778060020A0060020A4060020B9
:1046D40008B50648064A121A064903F04BFB064879
:1046E400064A121A064903F045FB08BD00000020E3
:1046F4000C020020C8500108000000200000002027
:10470400C8500108034B1868984200D07047002035
:10471400FCE700BF6001002030B1044A52689042B7
:1047240001D0006870470020704700BF600100207E
:1047340008B5044B1B680BB1002008BDFEF760FDF3
:10474400FBE700BFB0060020B3F1FF3F08BFB2F1A2
:10475400FF3F77D02DE9F047044692461D4681601D
:104764000023EFF31187102282F31288BFF36F8FB7
:1047740026E01AF1010845F10009FFF7D9FF18EB0B
:10478400000349EBE070236160613BE0521A66EB81
:104794000303026143614368636020601C604460FA
:1047A40005E0294B5A682360626014605C60FFF77F
:1047B400A9FF84423AD087F31188BFF36F8F012396
:1047C400002B3DD153466FF00101B1EB0A014FF0CC
:1047D400FF3060EB0502002ACBDB1C4A11685268EB
:1047E4005B1842EB05026FF00101C91A60EB02038A
:1047F40008461A46012973F1000301DA0120002258
:1048040020616261FFF77EFF0028CAD00269466911
:1048140021696369914273EB060EB7DB891A63EB76
:10482400060321616361FFF777FFEDE7084B1B681F
:10483400002BC0D103F02EFD0021FEF74FFCBAE798
:10484400BDE8F087704700BF60010020B803002076
:10485400B006002070B5EFF31186102383F312889D
:10486400BFF36F8F2A4B1860FFF74CFF044623E019
:10487400284A136851685B1941EBE5711360516074
:1048840000220023C4E90423204603F0ECFC86F351
:104894001188BFF36F8FA36820469847EFF3118602
:1048A400102383F31288BFF36F8F194A13685B1BBD
:1048B4001360FFF727FF04463CB125696169144B77
:1048C4001A68D317AA428B41D2DA44B123696269C8
:1048D4000F4909685B1A62EBE172236162610D4A58
:1048E4000B4D2868136851681B1841EBE071136085
:1048F400516000242C6003F0CDFC2146FEF7EEFB52
:1049040086F31188BFF36F8FFFF7AAFE70BD00BF57
:10491400B0060020B803002010B50022EFF3118484
:10492400102383F31288BFF36F8F134611460CE0F4
:10493400FFF7FEFE074A13685168C31841EBE071A4
:1049440084F31188BFF36F8F0122002AF0D0184638
:1049540010BD00BFB8030020F8B5EFF31183102297
:1049640082F31288BFF36F8F026822B183F3118838
:10497400BFF36F8FF8BD04461D46826AC36A52EACC
:10498400030105D0B3F1FF3F08BFB2F1FF3F26D1C9
:10499400236B01332363236A6BB185F31188BFF35F
:1049A4006F8F236A20469847EFF31185102383F312
:1049B4001288BFF36F8F04F11803A469A3423ED099
:1049C400002C3CD0204603F071FB0023E36785F301
:1049D4001188BFF36F8F204603F04DFBCAE71646DC
:1049E4001F46012A73F1000301DA01260027013E64
:1049F40047F1FF3703F097FC013041F100018019C2
:104A040047EB0101012871F1000108DA6FF001029E
:104A14004FF0FF330C492046FFF796FEB8E703F04A
:104A240082FC013041F10001801947EB01036FF072
:104A34000102121A4FF0FF3161EB0303EAE785F339
:104A44001188BFF36F8F95E75D490008F8B51D46DF
:104A5400EFF31187102383F31288BFF36F8FB5F13F
:104A6400FF3F08BFB2F1FF3F1FD006461446294658
:104A74006FF00102121B4FF0FF3262EB0502002AB5
:104A840018DB304603F023FCDDE90623C6E90A23DC
:104A94000023336322462B460B493046FFF754FE6E
:104AA40087F31188BFF36F8FF8BD87F31188BFF3C5
:104AB4006F8FF9E7012C71F1000101DA012400255F
:104AC400013C45F1FF35DCE75D49000838B5034694
:104AD400EFF31185102282F31288BFF36F8FC16048
:104AE400012282600068834210D042680368136028
:104AF4005A60002303604360012103F0D8FC04469C
:104B040029460548FFF702FB204638BD85F3118886
:104B1400BFF36F8F0024F7E7B406002008B50A46F8
:104B24000146024803F004FD08BD00BFF80100205F
:104B3400014B0367704700BFF801002008B5024825
:104B440000F040FF08BD00BFB82E010810B5064CA8
:104B540005E0A2686168204603F012FD1434034B9B
:104B64009C42F6D3002010BDF80100200C02002066
:104B740000B585B0094A02AB92E8030083E803005C
:104B840000934FF0FF334FF4806205490548FEF768
:104B9400FDFF002005B05DF804FB00BF8024010880
:104BA400C0400020C0030020B0B502AF92B004465C
:104BB40000F1440202E00020002850D1D2E84F3F27
:104BC4002BB90120C2E8450F002DF7D102E0BFF355
:104BD4002F8F0020BFF35F8F70BB2046DFE803F008
:104BE40002033F41EAE71078BFF35F8F012801BF5A
:104BF40010BF1078BFF35F8F012801BF10BF10787A
:104C0400BFF35F8F012807D110BF1078BFF35F8F08
:104C1400012801D110BFE6E70028CCD002282046A5
:104C2400CAD043F6B130C0F6010042F66C72C0F649
:104C34000102262109F003FF0868816C00228264C6
:104C4400D1B101AD284688472046294644220CF0BC
:104C540050F9BFF35F8F022084F84400204612B05D
:104C6400B0BD43F64330C0F6010042F65C72C0F6B4
:104C740001020D2109F0E3FE43F6B820C0F601005D
:104C840042F64C72C0F601022A2109F0D8FE000057
:104C9400B0B502AF0546021D02E0002000284BD14A
:104CA400D2E84F3F2BB90120C2E8440F002CF7D1C2
:104CB40002E0BFF32F8F0020BFF35F8F70BB284645
:104CC400DFE803F002033A3BEAE71078BFF35F8FB3
:104CD400012801BF10BF1078BFF35F8F012801BF07
:104CE40010BF1078BFF35F8F012807D110BF107871
:104CF400BFF35F8F012801D110BFE6E70028CCD0B5
:104D040002282846CAD043F6B130C0F6010042F664
:104D14006C72C0F60102262109F091FE09688868C8
:104D240000228A60A0B18047294641F8040BBFF3F2
:104D34005F8F022008702846B0BD43F64330C0F6AA
:104D4400010042F65C72C0F601020D2109F077FE03
:104D540043F6B820C0F6010042F64C72C0F60102D8
:104D64002A2109F06CFE0000B0B502AF0546021D11
:104D740002E0002000284BD1D2E84F3F2BB901209C
:104D8400C2E8440F002CF7D102E0BFF32F8F0020BC
:104D9400BFF35F8F70BB2846DFE803F002033A3BA2
:104DA400EAE71078BFF35F8F012801BF10BF1078C6
:104DB400BFF35F8F012801BF10BF1078BFF35F8F6F
:104DC400012807D110BF1078BFF35F8F012801D1EC
:104DD40010BFE6E70028CCD002282846CAD043F604
:104DE400B130C0F6010042F66C72C0F60102262111
:104DF40009F025FE0968886800228A60A0B180470E
:104E0400294641F8040BBFF35F8F0220087028463F
:104E1400B0BD43F64330C0F6010042F65C72C0F602
:104E240001020D2109F00BFE43F6B820C0F6010083
:104E340042F64C72C0F601022A2109F000FE00007D
:104E440080B56F468CB0CDE90001002006900220A9
:104E54000849029169460390059008A80490064801
:104E6400CDE9090111460B9001A8089002A809F0A8
:104E7400C7FD00BF4837010825050108FEB506AF88
:104E8400CDE90412B968044A0092CDE9013104A9BC
:104E940005AB00F013F800BF58370108FEB506AFA4
:104EA400CDE90412B968044A0092CDE9013104A99C
:104EB40005AB00F003F800BF6837010880B56F4602
:104EC4009AB0CDE90012B968D7F80CE0CDE9023107
:104ED400C1B219B1012905D1204900E0204904914A
:104EE400022202E01C49072204910592DEF8002008
:104EF400396982B900201F4A189003201590149232
:104F040017900CA816901848119002AACDE90F0228
:104F140068460E9019E00DF1180C9EE87501634681
:104F240083E875010020189004200E4A159014920D
:104F340017900CA816900C48139002AACDE9110200
:104F4400684610900948CDE90EC009480D9004A8A0
:104F54000C9014A809F054FDBF4C0108BD4C010885
:104F6400BB4C01089037010887090108D5EE0008F9
:104F74008F090108783701082DE9F04F43688DB097
:104F84000293837815469A07804640F10D810024E8
:104F94000E78002E00F00A81252E0BD04B1C0393B3
:104FA400013441463046029B98470028C0F2F680FF
:104FB4000399EDE74E788B1C252E0393F0D0002740
:104FC400B946BB46BBF11F0F38D8A6F12003102BFE
:104FD4000AD8DFE803F02A09093009090921090977
:104FE4000928092D09091F00A6F13003092B33D91B
:104FF4002A2E37D11BF0400F55F8043B40F0828035
:10500400002BA7BF99464BF0200BC3F100094BF0CE
:10501400280B01E04BF0010B039B13F8016B039386
:10502400002ECFD130E04BF0020B4BF0040BF3E732
:105034004BF0080BF0E74BF0100BEDE7BBF17F0FE3
:1050440019D8A6F13003092BD2D81BF0400F03D096
:105054000A2101FB0737DFE70A214BF0200B01FB94
:105064000939D9E72E2E06D11BF0400F40F09E805F
:105074004BF0400BD0E76C2E31D02BD8682E36D0B5
:105084006A2E3CD04C2E3AD0002F46F02003B8BFF5
:105094002BF04002A3F16501BCBF00271FFA82FB7D
:1050A400022901D9612B2FD10727073525F00705E0
:1050B400DFF8A8A208351BF0080F66D056460AEBA5
:1050C400070B5E4563D1A4EB0A0A06EB0A02A9EBBF
:1050D40007096FE1742E9FD07A2E9DD0D4E71BF080
:1050E400800F18BF4BF4007B4BF0800B94E71BF44C
:1050F400807F18BF4BF4007B4BF4807B8CE74BF430
:10510400207B89E71F4687E7A6F16301122900F295
:10511400F080DFE811F013004F00EE00EE00EE0027
:10512400EE004F00EE00EE00EE00EE00EE00FE009A
:10513400E900EE00EE001B00EE00AF0055F8043B62
:1051440001278DF818300DF1180AB4E755F804ABAF
:10515400834BBAF1000F08BF9A461BF0400F14BFEF
:1051640039464FF0FF3150460CF0D4FD0746A2E714
:1051740041462020029B984700280FDB013EB7429E
:10518400F6D34C44A41BB14698E74E46F7E7414694
:1051940016F8010B029B9847002892DA98F802301F
:1051A40043F0040388F802304FF0FF3420460DB07A
:1051B400BDE8F08F1BF0800F34D01BF4007F2CD09F
:1051C400073525F00705AA4669685AF8080B2BF03D
:1051D40010050029ADB237DA404261EB410145F4D4
:1051E40080650A230DF1180B5A460CF09FFDA0EBC5
:1051F4000B0301936B0662D5019B25F001019F42CD
:1052040089B240F3A180002E00F0998015F01002BD
:1052140040F09C80BB460D4623E0AA465AF8040B96
:10522400C117D4E7AA461BF4807F5AF8041B01D1A6
:105234000846F5E71BF4007F15BF48B208B241F3F6
:10524400C01141F3C031C2E750EA0103C9D11BF0D8
:10525400400FC6D0002FC4D12BF01102BB4695B22B
:10526400019740F2064115EA01021CBF00220BF12E
:10527400010B2CE00A232BF010021FFA82FB1BF017
:10528400800C49D01BF400711DBF073525F00705BC
:10529400AA46AA461ABF5AF8080B69685AF8040BBA
:1052A40050EA010545D12BF016051BF0400FADB2B5
:1052B40042D0002F40D12BF0170295B2019715F080
:1052C400100248D0019B002E42D103F1010B2907A3
:1052D4005AD4EB0706D5D9456FDDA9EB0B03CB46B2
:1052E40001995F185B4649E0102378264BF0100BB8
:1052F400C5E7782B04D1C6F1780343F01003BEE769
:1053040041462520029B98470028FFF647AF023408
:1053140047E608230026B2E7AA461BF480715AF830
:10532400040BBDD01BF400711ABF6146C0B280B239
:10533400B6E72BF0060295B20DF1180B54E725F0F1
:105344001105BB46ADB28CE70D46B8E73B460D46AA
:1053540003F1020BBBE7DDF804B082E7C05001089B
:10536400B9500108CDE9043241462020029B9847F8
:105374000028FFF613AF049B059A01339945F1DC2D
:10538400A4EB0B019B46CC180AB341463020029B88
:1053940098470028FFF602AF8EB901342744019BD9
:1053A400391B994223DC1D4655BB5546019AA9EB8E
:1053B4000B0922441446914434E0019F92E741468C
:1053C40030460234029B98470028E7DAE6E640F2CA
:1053D40006410D42E2D015F0020F14BF2B2020200D
:1053E40015F4806F414618BF2D200134EAE7414689
:1053F4003020029B9847002804F10104CFDACDE65F
:1054040006AB013D585D4146029B98470028CBDA24
:10541400C4E641462020029B9847002804F1010479
:10542400FFF6BCAEA9EB0403002BF2DCC0E500BF21
:10543400704708B5437933B1014651F8060B8368C8
:105444001B68984708BD6FF08500FBE738B50B680B
:105454009C68636A9A6A596A8A4204D26169B4F997
:10546400100021F8120094F82020022A22D0596A50
:10547400012914D09A6A01329A62914225D90022F4
:1054840084F82020E569E5B1996A626901F1004375
:10549400013B32F913200139A06AA8470AE001232D
:1054A40084F82030E36943B16269B2F90020002135
:1054B400A06A984794F8200038BD2046FEF75EFBAA
:1054C400F8E72046FEF75AFBF4E794F82020012A77
:1054D40006D0012284F820209A6A013A9A62E9E708
:1054E400002284F820209A62E56955B1596A6269FC
:1054F40001F10043013B32F913200139A06AA847A6
:10550400D8E72046FEF73AFBD4E70120704740B1C4
:1055140010B50446006C03F024F8204603F021F88B
:1055240010BD704708B583689B6B0BB1984708BDE5
:105534006FF05700FBE708B503F0C9FC002008BD75
:10554400002383F31188BFF36F8F0423184602DF0F
:1055540070472DE9004882B0DDE904BCCDE900BC08
:10556400FFF774FA02B0BDE8008808B502F0DBFE6C
:1055740008BD08B5FDF764FE08BD08B502F022FCBD
:1055840008BD08B5FEF79AF908BD08B5FEF750F94D
:1055940008BD08B5FCF72AF808BDEFF31180102305
:1055A40083F31288BFF36F8F704780F31188BFF3C2
:1055B4006F8F7047C9000431084470474FEAC10C2B
:1055C40000EBC103DB8899420CD08444BCF804107E
:1055D400043240F82230CA0006328352DB0004331E
:1055E400C1527047C3680121914023EA0103C3609B
:1055F4000432002340F82230704710B5131D50F8D0
:10560400234074B9C368012494402343C360043223
:1056140040F82210CB001A1D89B281520633C152C0
:1056240010BDE2000432835A4FEAC10C0CF1040E9F
:1056340020F80E300CF1060C20F80C40DB00063389
:1056440089B2C1528152EBE700B5CB00023330F886
:1056540003E0A2EB010C891A01EB5E014FEA4C0E48
:1056640020F803E04FEA410ED300023320F803E0B0
:1056740020F832C0C35A02EB530220F832105DF80E
:1056840004FB00B5C900023130F801E04FEAC20C56
:105694000CF1020C30F80C305B0803EB5E034FEAAC
:1056A400430E20F801E030F80C1002EB510220F810
:1056B40032305DF804FB0439081AC008704708B595
:1056C40000EBC1035A885208B2FA82F2C2F11F02F7
:1056D400FFF774FF08BD08B500EBC1035A885208F0
:1056E400B2FA82F2C2F11F02FFF787FF08BDF8B5D4
:1056F40004460D46CE00B71CC15B05EB510100EB1F
:10570400C1035B8813F0010F0CD0A15B691A04EB91
:10571400C1035B8813F0010F0ED029462046FFF722
:10572400DAFFF8BDFFF7CBFFE25B05EB5202294637
:105734002046FFF7A6FFE8E72046FFF7C0FFA15B7E
:105744002A46691A2046FFF79CFFA35BED1AE4E79B
:1057540070B5B1FA81F3C3F1230450F82450CDB1EC
:10576400C3F11F024FF0030E141D50F824404FEAFA
:10577400C40C00EBC4067688B1EB560F14D98444EC
:10578400BCF80640161D40F82640BEF1010E01D0BB
:10579400A542E9D1C468C3F12002012393405B42CE
:1057A4001C4005D1204670BD2146FFF707FFF9E7ED
:1057B40094FAA4F2B2FA82F2131D50F8234021465F
:1057C400FFF7FCFEEEE779B110B504682046FFF759
:1057D40072FF014604EBC002538823F00103538097
:1057E4002046FFF784FF10BD7047F8B5056841B344
:1057F4000B46AA68B2EBD10F25D90B33DC0821463E
:105804002846FFF7A5FF0746F8B1C60005EBC0031D
:105814005B88B4EB530F09D3AB195A8842F00102E9
:105824005A8039462846FFF7C5FEF8BD044422468F
:1058340001462846FFF708FF21462846FFF74BFF9D
:10584400EAE70020F1E70020EFE70020EDE72DE98B
:10585400F843154606684B420B4001F1FF3919EA3B
:10586400010904D0032B48D84C46994603E00C4662
:1058740004293DD90423002D57D0B268B2EBD50FCB
:1058840056D96119C91A0B31C9083046FFF760FFB0
:10589400074600284FD001463046FFF78BFE00EB49
:1058A4000908A04408F1FF38B8FBF4F804FB08F831
:1058B400A8EB090808EB0504073424F00704414663
:1058C4003046FFF7F8FE0546A41BE410874218D3C0
:1058D400EF0006EBC5035B8805EB53039C421AD328
:1058E4003E44738843F0010373804046BDE8F88367
:1058F4001146FFF77AFF8046F7E74C4699460423A2
:10590400B9E7024639463046FFF79EFE394630462F
:10591400FFF7E1FEDCE7224629463046FFF794FE16
:1059240021463046FFF7D7FEDAE74FF00008DCE700
:105934004FF00008D9E74FF00008D6E770B50346EA
:10594400043AC81D20F007000A4422F00702121A84
:10595400D508186085600023C360B5FA85F1C1F1EC
:10596400200EC1F124018900CE1DF10805E003F1E8
:10597400040C002440F82C4001337345F7DB4C0041
:10598400A4B244804FF0000CA0F800C044F001041D
:1059940044806B1A4FEA430E26F00704A51C20F836
:1059A40005E0015322F00704951C20F805C00244C9
:1059B4000353538843F001035380FFF78CFE70BDFB
:1059C400002070470FB400B583B004A951F8040B4C
:1059D4000191FBF7F5FD03B05DF804EB04B07047EB
:1059E400704708B5012802D0FDF7EAFC08BDEFF3C3
:1059F4000583F9E708B501460068FFF7F2FF08BD23
:105A040008B5FBF745FEFBF76DFE08BD00207047A7
:105A140000230B70704708B500231370CB1E092BAD
:105A24001AD8DFE803F005090D1119191919191409
:105A34001146FBF74FFF10E00021FBF7F3FE0CE0EB
:105A44000021FBF75FFE08E0FBF79CFE05E0114632
:105A5400FFF7DEFF002000E0002008BD08B540B2DB
:105A6400FCF752F808BD08B5013140B2FCF75AF80A
:105A740008BD08B500210120FFF7B3FF08BD61B6DA
:105A840062B680F31188BFF36F8F704772B600233C
:105A940083F31188BFF36F8FBFF34F8F30BF62B6AC
:105AA400BFF36F8F704743685A1E134206D11F2BF2
:105AB40006D903681A4205D00020704700207047B9
:105AC400002070470120704700B585B00B68019332
