:100000006F0000106F00C00F6F00800F6F00400F77
:100010006F00000F6F00C00E6F00800E6F00400E6B
:100020006F00000E6F00C00D6F00800D6F00400D5F
:100030006F00000D6F00C00C6F00800C6F00400C53
:100040006F00000C6F00C00B6F00800B6F00400B47
:100050006F00000B6F00C00A6F00800A6F00400A3B
:100060006F00000A6F00C0096F0080096F0040092F
:100070006F0000096F00C0086F0080086F00400823
:100080000000000000000000000000000000000070
:100090000000000000000000000000000000000060
:1000A0000000000000000000000000000000000050
:1000B0000000000000000000000000000000000040
:1000C0000000000000000000000000000000000030
:1000D0000000000000000000000000000000000020
:1000E0000000000000000000000000000000000010
:1000F0000000000000000000000000000000000000
:100100005D7116C21AC41EC672C876CA7ACC7ECE7B
:100110002AD02ED232D436D63AD83EDA42DC46DE67
:1001200006C0A2C417F490FF130484DAF32210343B
:1001300096C0F32300309EC2F322203493D2F20102
:10014000639E0204F3222034B7030080FD13B3F250
:1001500072002D43638962000A8597000000938036
:10016000600B6F2050618642910296C09242638478
:1001700002000D4511A002558A852644397122C41A
:1001800026C64AC84ECA52CC56CE5AD05ED262D487
:1001900066D66AD86EDA0A866F20104403230400FC
:1001A0009303130023207400631703008A82032142
:1001B0004400411116C073252034B7020080FD129F
:1001C00033755500EF00000897C290FF9382828834
:1001D0000E05AA9203A5020003A34200E700030054
:1001E00083230400FD132320740063930302024160
:1001F0000C4441112EC013050000EF40806A824577
:10020000410119C5EF20D03117F490FF130444CCFD
:100210008642964373901234739003302644924280
:100220002243B243424ED24E624FF24F0255925594
:100230002256B2564257D2576258F25882406161F4
:100240007300203082800000411106C697F0C8017B
:10025000E78000C997F0C801E780E0CBEF202007D6
:10026000EF304039411106C622C42A84A947630DE4
:10027000F5001375F40F9700C8FFE78020DF0145F4
:10028000B24022444101828035459700C8FFE78093
:10029000E0DDC5B7B7F7C83F23AEA79A828041110A
:1002A00006C622C426C24AC001440149814409A8A5
:1002B000814705473317A7003369E900DD8C050442
:1002C000954763E287022285EF9000639307F0036E
:1002D000E3E7A7FE130705FEE34C07FC8547B3974A
:1002E000E7000147D1BF4A85A685EF908070B240F4
:1002F00022449244024941018280411106C622C42F
:100300002A841C4591C79C4381C74845829711E5C3
:1003100008401C419C4382970145B2402244410160
:100320008280411106C622C42E841C4599C7DC4335
:1003300089C74845829711E02A842285B240224429
:1003400041018280011106CE22CC26CA4AC84EC67F
:10035000AA842E84B6893A8911E683A701479C4373
:1003600082971DE588401C41FC4391C74A86CE8593
:10037000829711E02A8483A70147DC43A285268562
:100380008297F2406244D2444249B2490561828078
:1003900011E02A842285F5B75C4199C30545828026
:1003A00001458280AA87084109C9411106C6ED3777
:1003B00011CD0145B2404101828037F7C83F032586
:1003C000879C88C37DF119650D05828019650D052F
:1003D000D5B7011106CE22CC26CA4AC84EC6AA8479
:1003E0008329850103A9418511A8110983A7014724
:1003F000DC43A285268582972A8429E1032409000B
:100400000DC42685513F15E1C0C083A701479C4319
:10041000268582972A841DE1DC409C47CE8526856F
:10042000829761D523A20400C9B72685B53721C1BB
:1004300003A74186894763EBE70001442285F24028
:100440006244D2444249B24905618280EF50404043
:10045000AA85DC4094431386414837B5C83F13054D
:1004600045789700C8FFE780E0BD0144C1BF130491
:100470005010E9B7797106D622D426D24AD04ECE92
:1004800052CC2A84AE84B289013F2A8983A70147CE
:100490009C432285829739E5630909005C4003A9E2
:1004A000070663040900228A39A0032A040083276F
:1004B0000A0003A98700A68552850299AA85638E42
:1004C000090001ED6C0052850299AA8519E5984052
:1004D000B2476304F70099658D0583A70147DC43A4
:1004E00022858297B250225492540259F249624AAC
:1004F00045618280797106D622D42AC62E8483A7CC
:1005000001479C476800829715ED32455C419C4B42
:1005100095CF21C083A701479C43829705E53245CB
:100520005C419C4B6C088297AA8501E9B247D84B85
:1005300019E37247D8CBF2471CC083A70147DC43BD
:1005400032458297B2502254456182801965150563
:10055000D5BF13052010FDB7797106D622D426D257
:100560004AD04ECE630A05182A891C4163890718B0
:10057000984363090718DC43638907188329050139
:1005800002C6BD4763FD3705B707CE3F83A707FF08
:100590009C433EC6B247232CF9004A85F53B09E54A
:1005A0004A85053D2A8461E52C004A85A1372A84C5
:1005B00029E983274900FC5BB5C74A8582970989E9
:1005C0003DE52247B707000163F3E70603A741862D
:1005D000854763E4E70CB70700013EC489A8A94436
:1005E00011A0BE846C004A85EF90F0162A849967AA
:1005F0008D076316F5009387F4FFE34490FE59D806
:10060000BDA083A74186A5C7EF508024AA85138685
:10061000414837B5C83F1305457A9700C8FFE780C2
:1006200060A2B1A003A74186854763EAE70403A758
:100630004186894763E1E70883A701479C434A85D0
:1006400082972A840DE5BD4763EC37018327490073
:10065000BC4F4A858297930780106307F5082A8468
:1006600083A70147DC43A2854A8582972A84228595
:10067000B250225492540259F24945618280EF509F
:10068000201DAA851386414837C5C83F1305C58874
:100690009700C8FFE780009B59BFEF50601BAA85F9
:1006A0001386414837B5C83F1305857C9700C8FFBE
:1006B000E78040990DB7EF50A019AA8503270901DB
:1006C00093172700BA978607B7C6C83F93868690C8
:1006D000BE961386414837C5C83F1305458397002A
:1006E000C8FFE780209689BF83270901F1170547D6
:1006F000E368F7F62A84ADB7130420108DBF130406
:100700002010B5B7130420109DB71304201085B72F
:10071000011106CE22CC26CAAA842E8423A005006D
:1007200002C66C00812619C50145F2406244D244DC
:100730000561828002C4B247858B99CB3800894617
:100740000546A685EF609036A2471CC00545F1BF5F
:10075000380085460546A6850145EF603035EDB782
:10076000797106D622D426D24AD04ECE52CC4177C9
:10077000B379E500330535412E95C167FD1733097F
:10078000F5003379E9004E84014A29A8014A5285CF
:10079000B250225492540259F249624A4561828011
:1007A000C1673E94B3872901E373F4FEB707CE3FD8
:1007B00083A707FFDC43E37BF4FC02C66C002285C1
:1007C000813FAA8471DD324561DDC165EF70E05380
:1007D000268AF9B7411106C62E859700C8FFE78023
:1007E00060870145B24041018280411106C609453A
:1007F000EF70404F0145B24041018280411106C671
:100800000945EF70004D0145B2404101828001452C
:100810008280411106C622C426C24AC02E84328973
:100820002E85EF409069954701A805800D047198C9
:100830002285EF409068A68709E59384F7FF91C36E
:100840006DF409C923208900B24022449244024930
:10085000410182800144FDB7411106C622C42A84A9
:10086000EF40502C81473387A5006365A7043E976E
:1008700095473377F7023307E5403335E500B38713
:10088000A540B7D6CCCC1386D6CCB387C702938607
:10089000C6CCB306D702B697B306C7023337C70232
:1008A000BA97FE0713D716005D8F18C4B2402244D2
:1008B00041018280854765BF411106C622C42A8452
:1008C000B7F7C83F83C7E7A289C705458145EF4011
:1008D000401C228551370145B240224441018280AB
:1008E00099E519C22320060013057010828041117A
:1008F00006C697F0C801E78000C2411106C62E85E2
:10090000EF40305AB24041018280411106C62E8527
:1009100097F0C7FFE78000740145B2404101828033
:10092000411106C63126B24041018280411106C6FE
:100930000145FD370145B24041018280411106C6A3
:10094000F924B24041018280411106C60145FD37BC
:100950000145B24041018280411106C637F7C83FC8
:1009600093172500AE978A07130707D33E970C43CA
:1009700097D0C801E780A0F9B240410182804111BF
:1009800006C685473707CE3FA308F7FC3707CE3F9B
:100990002308F7FC97F0C7FFE780406BB2404101A6
:1009A0008280411106C69700C8FFE780E0BDB747C7
:1009B0000F00938707243305F502B7B7C404938764
:1009C000F73F63D9A70037B5C40413050540B2400B
:1009D000410182809700C8FFE78000BBB7470F0046
:1009E000938707243305F502DDB7411106C6EF50A2
:1009F000301AB7470F00938707243305F502B2403A
:100A000041018280411106C622C4737404309710DC
:100A1000C8FFE780A0F4218873200430B24022444C
:100A200041018280411106C622C4737404309710BC
:100A3000C8FFE780E0F2218873200430B2402244EE
:100A400041018280411106C622C47374043097109C
:100A5000C8FFE78020F1218873200430B24022448F
:100A600041018280BDC5014601438148B1A0B7F76D
:100A7000C83F1317260032970E079387C7D6BA9739
:100A800003A84702C28711A0DC5395C7E38E07FF76
:100A900037F7C83F93162600B2968E061307C7D6BF
:100AA0003697185758431843E300F7FE984FE31D55
:100AB000A7FC3E8385480506B7F7C83F83A7C7D67E
:100AC000E367F6FA638A0800832743019CC1014566
:100AD000828013052010828013055010828001113E
:100AE00006CE22CC26CA4AC82E84B2844DE93709E4
:100AF000006013090900D1CC93D644019397C40038
:100B000033869740B3B7C7009D8E3305C400B33713
:100B10008500B697B335A000FD177D15BE959700EB
:100B2000C8FFE780E0D81307F5FF9307F00F63E2F3
:100B3000E7061204B384A402335694029357460086
:100B40008566FD16F58FC207C18303274901F58F1E
:100B5000FD76758FD98F232AF900832749013D8AB5
:100B60005206370710FF7D17F98FD18F232AF9001E
:100B7000832789073EC67D15B2471375F50F3205E9
:100B80003717F0FF7D17F98FC98F3EC6B247232C68
:100B9000F906F2406244D244424905618280370935
:100BA00001601309090081BF411106C622C419283A
:100BB000930740063304F50231282295B2402244BF
:100BC00041018280B797006093870780A84F6181B9
:100BD0000D89828037970060130707803C4FDD83C3
:100BE000858B8E07284B49811D893E958280411156
:100BF00006C60945EF70E00DB24041018280411107
:100C000006C60945EF70000EB240410182804111D5
:100C100006C673770430B7F7C83F23A0E7A0B7F53F
:100C2000C83F938545A00145D937B2404101828034
:100C3000411106C6B7F7C83F83A547A00145C13794
:100C4000B7F7C83F83A707A0A18B73A00730B240B6
:100C500041018280411106C60945EF70600AB24029
:100C600041018280135705011377F70F93578500D1
:100C700093F7F70F1375F50F930600026312D7046D
:100C800013070004638CE70013071004638EE7006A
:100C9000130700056380E702014582803515B547DB
:100CA00063F2A702014582802515A54763FEA700D0
:100CB000014582802D15854763FAA7000145828092
:100CC00001458280054582800545828005458280F8
:100CD000411106C69308000263E3E8189308000276
:100CE00063E30819B72800609388080083AE880082
:100CF00003AE880103A3C801370F200023A4E80135
:100D000003AF8801B70F0080336FFF0123ACE80108
:100D100003AF0802B70F0010FD1F337FFF01B70FAD
:100D20000070336FFF0123A0E80303AF0802C17F07
:100D3000337FFF013365AF0023A0A80203A588011C
:100D4000333FB0007A0FB70F00C0FD1F3375F501B8
:100D50003365E50123ACA800FD1503A5C801EA052C
:100D6000370F00047D1F3375E501C98D23AEB80030
:100D700023A2C8003686630908003706CE3F032643
:100D800006FF034696013696B72600609386060056
:100D90008C4E3335C0007605B70800E0FD18B3F57A
:100DA0001501C98D8CCE7D16CC4E1376F60393F5C6
:100DB00005FC4D8ED0CE904EB335E000EE053705E4
:100DC00000F87D15698E4D8E90CE55C37D17137733
:100DD000F73FB726006093860600D052137606C010
:100DE000518FD8D2BCCE9C4E3337000172073706E4
:100DF00000F07D16F18FD98F9CCE630C0806130787
:100E0000F8FF1377F73FB7270060938707009457E1
:100E100093F606C0558F98D79843B7060400558FB0
:100E200098C3B727006083A70700C983858BF5FBAC
:100E3000B72700609387070023A4D70123ACC7011D
:100E400023AE6700A84FFD4763E80701FD57B3973E
:100E5000070193C7F7FF7D8DB2404101828097E083
:100E6000C801E780406B97E0C801E780C06A01478E
:100E70008DB7014749BF411106C6AE873287368814
:100E8000814601468145A935B24041018280011168
:100E900006CE22CC26CA4AC84EC652C43704CE3F1C
:100EA000032504FF97F0C7FFE7808026832704FF10
:100EB00098439357070193F7F70F9306D009638977
:100EC000D7049306200C6385D7049306800C6381B6
:100ED000D706A146014681451545713F131405010A
:100EE0004180A1460146814513055003693722051B
:100EF00042054181498C93740420414A014981494A
:100F0000631A94068147639B29096389070C55A8D6
:100F1000A146014681451545B93F1314050141809D
:100F2000937434F4C204C180214A01498149C9BF84
:100F30009357870093F7F70F93060004E39BD7F8C6
:100F40001377F70FD547E3F6E7F8A1460146814549
:100F500015451537131405014180A1460146814509
:100F600013055003093F9379F50F13792500214AA2
:100F7000814479B7B707CE3F03A507FF97F0C7FFB6
:100F8000E78000198146014681451945ED358146C6
:100F90005286A6850545C5358547B5B7B707CE3F07
:100FA00003A507FF97F0C7FFE7808016814601463B
:100FB00081451945C93581462146CA851305100367
:100FC0005D3DB707CE3F03A507FF97F0C7FFE7805A
:100FD00020148146014681451145713D0145F2408D
:100FE0006244D2444249B249224A05618280411199
:100FF00006C6914763E0B7022A868E0513F8850F6F
:1010000081470147A146E1451305A005D131B24012
:101010004101828097E0C801E780E04F411106C698
:10102000E146014681451305F009B13593170501E5
:101030003707FF00F98F135705011377F70FD98F83
:101040004167130707F0798D5D8DB24041018280C1
:10105000411106C622C426C2B707CE3F83A707FFA9
:101060008843093119C50145B240224492444101E7
:10107000828085454145A53F1375F50F9307000212
:10108000631EF50803A74186894763E2E7068146A8
:10109000014681451305900BF93B81460146814588
:1010A00013059007C93B8146014681451305F00FA2
:1010B000D9331305007D97F0C7FFE780A0F981467B
:1010C000014681451305B00A7D33514597F0C7FFAE
:1010D000E78040F83704CE3F832404FF813788C07F
:1010E000832704FF8843BD3E01CD0145B5BF9385ED
:1010F00041611385415F97F0C7FFE780A0F441BFCE
:1011000083A7418699E37D5585B793854161138512
:10111000415D97F0C7FFE780E0F2F5B70145A9B759
:10112000411106C622C426C24041F374043029A0EE
:101130005C4408488297404801CC83570400858B63
:10114000FDFB5C40F5D79C431844F98FEDD7CDB734
:10115000A18873A00430B2402244924441018280AD
:1011600045C9411106C622C4737404305C41B5C33D
:1011700003D70700136717002390E7005C419443EF
:101180009E06C206C186A186B6851C41D84311E7DA
:1011900097E0C801E7802038584B11CF1C439E07C9
:1011A000C207C187A187E399F6FE83570700858BA5
:1011B000E5F7814711A0854763C305028DCF1C4128
:1011C00003D527001946058997F0C7FFE780C0427D
:1011D0001DA01C418C438A05E1858547F1BF18415C
:1011E00083572700858B85E3084345817D8997F0E8
:1011F000C801E780C0822188732004300145B240D5
:101200002244410182802188732004302955C5BFC2
:10121000295582805C4103280501D84719EFCC434A
:10122000F84DB7060004FD163376D700FC45B70627
:1012300000FCF58FD18FFCC511E28280411106C6FA
:10124000AA85130548009700C901E78040F3B24022
:1012500041018280411106C63795023C130505D92C
:10126000553FB24041018280011106CE22CC26CAF0
:101270004AC84EC652C4B2848329450003A7C90098
:1012800085476304F70A01442E94B7074000FD1711
:10129000B3D78700858B6385072873790430D547DA
:1012A00063EC8724B767023C1317240093874741F8
:1012B000BA979843B79700609387C7046308F7000D
:1012C000B7970060938707056319F7003736046006
:1012D0001C4EF176FD16F58F1CCE1C43E576FD16EF
:1012E000F58F8566D58F1CC393F70401B9C7B7671F
:1012F000023C1317240093874741BA9798431C4335
:1013000093E707101CC393F72400ADC393F7440081
:101310006381072083A749001307C4010A07BA970E
:10132000D84313674700D8C399A8FD4763F4B700B3
:10133000014499BF1304000281BFCD47630DF4003F
:10134000B727001893871740A2978A079843137707
:10135000F7EF98C34DBFB7370460984F1367071076
:1013600098CF984F1377F7DF98CFD9BF83A749005D
:101370001307C4010A07BA97D8436D9BD8C393F7E4
:101380000402B1C3B767023C131724009387474197
:10139000BA9798431C4393E707081CC3B70702009A
:1013A000E58FE5C3B7074000FD17B3D7B700858BBE
:1013B0006384071693F7046095C313070060638680
:1013C000E70829551DAAB727001893871740A29749
:1013D0008A0798431377F7F798C3C9B70D46A285D4
:1013E00003A549009700C901E78060CB054A331A7D
:1013F0008A00B7070004FD17337AFA00B746006089
:1014000093860600D852B377FA00370600FC718F36
:10141000D98FDCD28146014693050008228597F0DA
:10142000C7FFE7806018B7070800E58F85CB83A664
:1014300049009C46370700047D173377EA003706DA
:1014400000FCF18FD98F9CC695A80146A28503A503
:1014500049009700C901E78080C449BFB70704006D
:10146000E58FA9CF83A64900DC46370700047D1726
:10147000337AEA00370700FCF98FB3E74701DCC68F
:1014800035A88567E58F9DEB054733178700B7467D
:101490000060938606009C56370600047D16718F07
:1014A000370600FCF18FD98F9CD6B71700189387A9
:1014B0005715A2978A071307000898C3C167E58FDD
:1014C00089CFB727001893871740A2978A079843B8
:1014D0001367072098C301450DA08967FD8C9DEC1B
:1014E000B7270018938717403E940A041C4093F7CF
:1014F000F7DF1CC0014511A029551379890073201D
:101500000930F2406244D2444249B249224A05615C
:1015100082801305A0F7D5B72955C5B70145F1BF9E
:101520002955C5B7104918428327070893F717FCB8
:1015300093E727012320F7088327070893E717007D
:101540002320F7085C43856693860680D58F5CC3AD
:1015500083270708858BEDFF5443856793870780B2
:10156000DD8E54C31442D842D98FDCC28280104928
:101570001C42984F8966558F98CF984FF976FD1683
:10158000758F98CF1C42984F8566558F98CF984F8E
:10159000FD76FD16758F98CF828014499842DC5EE7
:1015A00013861700D0DED1078A07BA970D6798C750
:1015B000828014499842DC5E13861700D0DED10782
:1015C0008A07BA97056798C782805D7186C6A2C4EC
:1015D000A6C2CAC04EDE52DC56DA5AD85ED662D4F3
:1015E00066D26AD06ECE2A8D0449832D45009C4078
:1015F000805F1374F41F985F25831377F7073A947D
:1016000083A9070093F9F91F83AC470493FCFC1FDF
:1016100003A907041379F91F03ACC704137CFC1F4B
:1016200083AB870493FBFB1F03AB0703137BFB1FF9
:1016300083AA470393FAFA1FD8477D8B3AC603AAB9
:101640000705137AFA0083A5CD0003A54D00970086
:10165000C901E780C0376A85F13583A5CD0003A5B0
:101660004D009700C901E7800035268597C0C80165
:10167000E780A08D98401C57C176F58F1CD7984005
:10168000C167FD175CD39C40984393F9F91F13770A
:1016900007E03367370198C3130664FF985F13763A
:1016A000F61F137707E0518F98DF985F1377F71FC6
:1016B000198C985F1374F40726049386F61F758FB0
:1016C000418F98DF98407C4393F707E0B3ECFC0030
:1016D000232297053C431379F91F93F707E0B3E7FB
:1016E00027013CC39C40F847137707E0336CEC00BC
:1016F00023A68705B847137707E0B3EBEB0023A4D5
:1017000077059C40985B137707E0336BEB0023A8C9
:101710006703D85B137707E0B3EAEA0023AA57030D
:1017200098405C47819BB246D58F5CC79C40630C58
:101730000A04B84B419B3367EA00B8CBB84B120A96
:101740001377F7F033674701B8CBB84B136707102F
:10175000B8CBB84B13670720B8CB9440DC42056781
:1017600013070780D98FDCC2B64026449644064949
:10177000F259625AD25A425BB25B225C925C025DC1
:10178000F24D61618280B84B1377F7EFB8CBB84B5D
:101790001377F7DFB8CBD1B7411106C622C426C2F2
:1017A000AA8400491440DC42056713070780D98FDB
:1017B000DCC218405C4393E707025CC3232E04029B
:1017C000130544008565938585380146EF20201375
:1017D00011ED585895476300F70258588D4763013B
:1017E000F702B24022449244410182802685F13BB7
:1017F0001305C0F8FDB72685C93B1305C0F8D5B75A
:101800004955C5B7011106CE03280501A307B1004C
:101810008547232AF8028326080001470DA0DC4EE5
:101820003EC2930707013386270092470346F6FF1F
:1018300093F707F0D18F3EC29247DCCE0507E35005
:10184000E0FE83278803858BC9C7A181A307B10068
:101850008326080001476343E002DC4E3EC4930741
:10186000070133862700A2470346F6FF93F707F0E8
:10187000D18F3EC4A247DCCE0507F1BF09471367ED
:1018800007108567938707805D8F8326080083276D
:10189000C80313861700232EC802D1078A07B697FC
:1018A00098C7032708008327C80393861700232EB1
:1018B000D802D1078A07BA97096798C78327080013
:1018C0007D57D8D31307805A98D7F935F240056170
:1018D000828005476DB7797106D622D426D24AD0C8
:1018E0004ECE52CC56CA5AC8AA8A0329050103AA69
:1018F00045008441232A0902896993890980096B7B
:1019000015A093E90940054489A0584E3AC6B2464D
:101910003387F4002300D7008507E3C887FEA2942D
:10192000330A8A4063000A0852849307100263F462
:101930004701130410021374F40F7D141374F40F91
:101940008547E300FAFC93F9F9BF93F909F0B3E98D
:101950008900032709008327C90393861700232ED4
:10196000D902D1078A07BA9723A4370103270900B0
:101970008327C90393861700232ED902D1078A072C
:10198000BA9723A46701832709007D57D8D313078B
:10199000805A98D756850935634705000326090004
:1019A0008147A5BF0145B250225492540259F249D1
:1019B000624AD24A424B45618280411106C622C426
:1019C00026C24AC0AA842E8483C78500918B89CB06
:1019D00013691600D936CA8526852D35634C050056
:1019E000A2852685CD3D6347050083478400898B0A
:1019F00081EB0145B2402244924402494101828078
:101A00002685453E2685493BE34605FE0145DDB773
:101A1000797106D622D426D24AD04ECE52CC56CA9E
:101A20005AC8AA8A032A0501C44183A9050085472B
:101A3000232AFA0205691309098013690910096B41
:101A400021A89377F40F137909F03369F90091EF26
:101A50001374F40FA299818CC9C4268493070002E1
:101A6000E3F197FE13040002E9BF83260A00014751
:101A700039A8DC4E3EC63386E900B247034606006D
:101A800093F707F0D18F3EC6B247DCCE05079377B8
:101A9000F40FE340F7FE03270A008327CA03938667
:101AA0001700232EDA02D1078A07BA9723A4270149
:101AB00003270A008327CA0393861700232EDA021E
:101AC000D1078A07BA9723A4670183270A007D57A5
:101AD000D8D31307805A98D756857D39E35A05F62F
:101AE00011A00145B250225492540259F249624A5F
:101AF000D24A424B45618280411106C622C426C2A9
:101B00004AC0AA842E8483C78500918B89CB3289F1
:101B1000EFF0BFA8CA852685F531634C0500A28584
:101B20002685FD356347050083478400898B81EB5B
:101B30000145B240224492440249410182802685F7
:101B4000EFF03FA726858939E34505FE0145D5B766
:101B5000011106CE22CC26CA4AC84EC652C456C26D
:101B60005AC003290501630606102A8AAE89328409
:101B7000B68AB7A4070093840412832709009C4700
:101B80009183858B91CB0545EF1040679387F4FFD8
:101B9000638D040EBE84D5B783C7890093E74700E1
:101BA0002384F9004E87854729A0898AB9E6310741
:101BB0008507A2866340F402E3DBD7FE83468700F5
:101BC0008345470133C6B600058A65D29189F1FD88
:101BD000A95411A08144D9EC130BC901FD557D56C0
:101BE0005A85EF10D05183278903858B89CB9307C2
:101BF000F03FB3FA5701860AB1A0A954E9BF930791
:101C0000F007C5BF5285EFF05F9C5285EFF03F961D
:101C1000032709001C57C176F58F1CD7032709003D
:101C2000C167FD175CD383C78900858B8DCB568632
:101C3000CE8552855933AA8463C904027D14137476
:101C4000F40FB1091DC0032749039547E30CF7FAC8
:101C5000832709009C479183858BC5DB65B7568632
:101C6000CE855285513DAA84C1BF5A85EF10303FC1
:101C700011A081442685F2406244D2444249B249CF
:101C8000224A924A024B05618280C154E5B7011194
:101C900006CE22CC26CA4AC84EC652C4AE84032AF7
:101CA0004500032905012E859700C901E78020E83A
:101CB000AA899700C901E780C0E42A84AA864E86D3
:101CC000A6854A8597B0C801E780802383274A020A
:101CD000A1C737470F00130707243354E402B38723
:101CE00087027D476373F700FD4783260900D846C6
:101CF000FD8B019BD98FDCC683260900DC4205677A
:101D000013070780D98FDCC2F2406244D2444249B3
:101D1000B249224A05618280032709005C4793E7A4
:101D2000F7015CC7D1BF011106CE22CC004902C623
:101D3000585885476304F7025C5895C7B24709476E
:101D40006388E7020D47638FE7020547638FE70269
:101D500015476391E70291475CD829A86C0022855A
:101D6000EF50907DE1BF6C002285EF602006F9B74F
:101D70008D475CD813054400EF10702EF24062448A
:101D80000561828095475CD8F5B795475CD8DDB78B
:101D9000411106C622C426C24AC0AA844041032972
:101DA0000501814508449700C901E78080E6634545
:101DB00005084840EF10604951C14C444840970025
:101DC000C901E78040BF4848184C635EE002854780
:101DD000B397E70093F7E70F4C4C93F50510DD8DB3
:101DE0000147A68637263840130666D293E505409C
:101DF00097E0C801E780A0F809C9B24022449244A4
:101E00000249410182808147C1BF4A8597B0C8011C
:101E1000E780A01326859700C901E780E0C208503B
:101E20009700C901E78020BC9365050126859700CE
:101E3000C901E78080D4D1B72955C1B7355575BFE1
:101E4000397106DE22DC26DA4AD84ED652D456D272
:101E50005AD05ECE62CC66CA6AC8AA8CAE8483AB06
:101E60000500C177B3FBFB0003AA4500337AFA00F3
:101E700003ACC500337CFC0083AA0501B3FAFA0069
:101E80000149014D014B614451A083A7418689CF8F
:101E9000EF30101CAA85A2861386C19F138541A02E
:101EA00097E0C7FFE780001A97D0C801E780606B12
:101EB00003A74186894763EEE710A247D844638BA6
:101EC000E71C98406380E71E3747C8BF3E97B74678
:101ED0000600636FD700370738C03E97B706060085
:101EE0006368D700370700B0BA97096763F3E70064
:101EF0000509B247A29713848700B7F7C83F9387B5
:101F000087D183C717006387271B4E8D93091D0058
:101F1000BD4763EBA705854621462C002285EF705F
:101F2000704D25F52247B70700BEBA97B706800067
:101F3000E3E0D7F8B70700C4BA97E3EBD7F6B747A3
:101F4000C8BFBA97B7460600E3E4D7F6B70738C06C
:101F5000BA97B7060600E3EDD7F439DBB70700B050
:101F60003E978967E366F7F463800916C147638D7E
:101F7000F91403A74186894763EAE7160945EF503C
:101F8000705263820C1802C25C00D848D686628602
:101F900085456685EF50C02A5C009844D2865E86EF
:101FA00085456685EF50C029DC48E297FD17370765
:101FB00000426366EC003707804263E9E7143707A5
:101FC000003C6367EC143707803C63E8E7188147FF
:101FD00089A2EF30F007AA85A247370700BE3E97D7
:101FE000B7068000636ED702B70600C4BE963706F8
:101FF000800063E7C602B746C8BFBE9637460600F4
:1020000063E0C602B70638C0BE963706060063E92D
:10201000C60099C7B70600B0BE96096663F0C6064B
:10202000B70680006369D700B70600C4BE963706BE
:10203000800063F5C602B70680006374D7049386F8
:10204000419F3248C288130784001386C19F1385BD
:1020500041A397E0C7FFE780E0FE85B5370738C0AA
:102060003E97B70606006361D702370700B03E9778
:102070008966637ED7009386019FE1B79386C19DF1
:10208000C9B79386019E75BF9386419D5DBF9386B8
:10209000819E45BF930A840023A854014177B3FA77
:1020A000EA0005B5130A840023A244014177337A7C
:1020B000EA0019BDE31B0BE49347F4FFBD8BA29725
:1020C00013841700054B91B583A7418681CFEF306C
:1020D0002078AA851386C19F1385C1A697E0C7FF04
:1020E000E78040F697D0C801E780A047EF30407600
:1020F000AA85EA861386C19F138501A997E0C7FFC9
:10210000E78040F4A5BDEF50C00FB5BD854711A0D5
:10211000814713F6170037470C6054431346F6FF08
:10212000F18E54C38983544393C7F7FFF58F5CC383
:102130009C44DE97FD173707004263E6EB00370744
:10214000804263EEE7003707003C63ECEB003707A3
:10215000803C63E6E706814731A0A1475DBF854724
:1021600011A0814713F6170037470C6054431346FC
:10217000F6FFF18E54C38983544393C7F7FFF58F5D
:102180005CC30945EF5030338844C167FD173E9565
:1021900041810A0593050020898D97E0C7FFE780FC
:1021A000E03AF2506254D2544259B259225A925AE9
:1021B000025BF24B624CD24C424D21618280A147BE
:1021C00055B7411106C697E2FFFF9382A2E37390D1
:1021D0005230F3770430979190FF938121DAEF101A
:1021E000C031EF00B00D29E5B7A5C83F9385055F65
:1021F0000145B93103A74186894763EDE70403A789
:102200004186894763EFE706014597E0C7FFE7800E
:10221000A0E7EF0070290145EF00807A03A741860F
:10222000894763E7E708EFE02F82B24041018280EF
:1022300083A7418681CFEF30A061AA851386C19F15
:10224000138541AB97E0C7FFE780C0DF97D0C80197
:10225000E7802031EF30C05FAA8537A7C83F13075A
:10226000075F03288700C2881C4358439386C1AD8B
:102270001386C19F138541AE97E0C7FFE78080DCDE
:10228000BDBFEF30E05CAA8537A7C83F1307075FE3
:1022900003284701C2885C47184B9386C1B2138656
:1022A000C19F138541AE97E0C7FFE780A0D9A9BFC2
:1022B000EF30005AAA8583A681B5A9821386C19FF3
:1022C000138541B397E0C7FFE780C0D7A9BF41118D
:1022D00006C622C4EF70F059EF70904C19E9EFD0A8
:1022E0001FFC97D0C801E780E0A1B2402244410121
:1022F00082802A8483A7418689CFEF306055AA85E2
:10230000A2861386C1B5138581B697E0C7FFE78023
:1023100060D397D0C801E780C024411106C681462A
:10232000014681451305A007EFE0FFB4B707CE3F94
:1023300003A507FF97E0C7FFE78080DDB2404101BA
:102340008280411106C622C426C2AA848347350072
:10235000BD8B0947638DE7046365F704A1CF05478B
:10236000639DE7041384C1B903A74186894763ECE1
:10237000E704B73700609847B7070001F98FADE36E
:10238000B7071000F98FC1E3B7078000F98FBDEFE1
:102390009167F98FBDEF89677D8F3DCF1384C1BCF5
:1023A00091A03D47639EE7001384C1BA75BF1384B3
:1023B00041BA5DBF138441B945BF138441BA6DB7BB
:1023C000138441BA55B7EF30A048AA85A286138678
:1023D000C1B51385C1BF97E0C7FFE780A0C651BF55
:1023E000138441BB03A74186894763EAE70283C799
:1023F0003400918311476366F7068A071387C1C5C6
:10240000BA979C438287138481BBE9BF138401BCC4
:10241000D1BF138441BCF9B7138481BDE1B7EF305C
:102420002043AA85A2861386C1B51385C1C197E052
:10243000C7FFE78020C165BF138441BE03A7418663
:10244000894763E3E702B24022449244410182801B
:102450001384C1BEE5B7138401BFCDB7138441BF58
:10246000F1BF138481BED9BFEF30803EAA85A2861A
:102470001386C1B51385C1C397E0C7FFE78080BC51
:10248000D9B7011106CE83473500918311476360A8
:10249000F7068A07138701C7BA979C438287854747
:1024A0003EC60945EF501000B707CE3F03A507FF12
:1024B000B245C167FD171307001085664166D20556
:1024C000084197E0C7FFE78020C70945EF50A07E8D
:1024D000F2400561828089473EC6E1B791473EC61A
:1024E000C9B7A1473EC675BFC1473EC65DBF894754
:1024F0003EC645BF411106C622C4B707CE3F03A45E
:1025000007FFEFE0BFB108C0B24022444101828022
:10251000B7370060984F1367070C98CF984B137725
:10252000F7C198CB984B019B98CBB7270060984F89
:102530001367070C98CF984B1377F7C113670702FF
:1025400098CB984B019B98CB8280B7360060984619
:10255000B7070C00A1075D8F98C6B72600609846A4
:10256000D98F9CC68280011106CE22CC26CA4AC8C9
:102570004EC652C456C2AA8497E0C7FFE780401AED
:102580002A8497E0C7FFE780A01A35C81379F50FB2
:102590001375F403935A640093FAFA03135AC400B0
:1025A000137AFA039359240193F9F90361801374A0
:1025B000F403A68597E0C7FFE7808001A6855685CE
:1025C00097E0C7FFE780C000A685528597E0C7FF68
:1025D000E7800000A6854E8597E0C7FFE78040FFB3
:1025E000D54763F58702D54763F92703F240624474
:1025F000D2444249B249224A924A05618280354911
:102600003144B949414AC54A3D4565B7A685228549
:1026100097E0C7FFE780C0FBF9B7A6854A8597E03A
:10262000C7FFE780E0FAD9B7411106C60545253F47
:10263000293FB24041018280411106C637F5C83FAB
:10264000130585D1D537E935B2404101828041116A
:1026500006C622C4D537EFF05FCCEFE05F8337F4D6
:10266000C83F130584D1EFF0DFCD130584D1113DB0
:10267000EF70E0630145B240224441018280411184
:1026800006C6EFE0CFAF014597E0C7FFE780C09FE8
:10269000EF40800DEF30D04F716613060620B7472C
:1026A0000F0093870724B305F5020145EFE02FC320
:1026B000B24041018280011106CE22CC26CA4AC80E
:1026C0004EC652C456C22A840347C5008347D5006C
:1026D000A207D98F15476383E70483A7418699EB47
:1026E0006D55F2406244D2444249B249224A924A6C
:1026F00005618280EF30C015AA850347C400834777
:10270000D400A2075D8F9546138641C8138501C981
:1027100097E0C7FFE78000936D55E1B7AE84EFE027
:10272000AFC8AA8993074006B35AF502337AF50277
:102730000347F40083470401A20733E9E700854714
:1027400063F49700014571BF637C250383A741862D
:1027500099E37D553DA0EF30A00FAA859306400672
:102760005288D6873377D902B356D902138641C827
:10277000138541CC97E0C7FFE780C08C7D5511A041
:1027800001458547E39FF4F4834714010344240182
:1027900022045D8CC167FD17E305F4F439D0E372C0
:1027A00034F5B797006093870780BC43858B95FB12
:1027B00083A7418699E37D552DB7EF306009AA853F
:1027C000930640065288D6873377D402B356D40294
:1027D000138641C8138581D097E0C7FFE7808086C4
:1027E0007D5501B7411106C603A74186894763EAB3
:1027F000E70003A74186894763E1E702B240410150
:102800008280EF30E004AA85138641C81385C1D4C5
:1028100097E0C7FFE7800083E9BFEF306003AA8538
:10282000138641C8138581D697E0C7FFE780808172
:10283000F1B7411106C685466146B7F5C83F938595
:1028400085D10145EF70003B01E5B2404101828036
:1028500083A7418699E36D55CDBFEF20707FAA8590
:10286000138641C8138581D997D0C7FFE780807D43
:10287000DDB7011106CE02C4B78700609387070059
:102880003EC62800EF50C05D81452800EF50A06093
:102890002800EF50005F85473EC0B7F7016093877F
:1028A00007003EC20A85EF50A05B81450A85EF50C4
:1028B000805E0A85EF50E05CF24005618280411144
:1028C00006C622C426C2EFE02FAE93074006B354DB
:1028D000F5023374F50203A74186894763EEE700EA
:1028E000814537F5C83F130585D1F13305E5B24081
:1028F0002244924441018280EF209075AA8522876C
:10290000A686138641C81385C1DC97D0C7FFE78030
:102910006073F9B77D55E1BF411106C6EFE0CFA85E
:10292000894763F5A700B24041018280854711477E
:1029300091460146814513051006EFE0AF90B1477F
:1029400001478D46054681451305A006EFE08F8FB0
:10295000D9BF378700608327C710ED9B2326F71068
:1029600019C9B786006083A7C60A01777D17F98F5A
:1029700023A6F60A8280378700608327C70AB70636
:102980000200D58F2326F70A8280378700608327CD
:10299000C710F59B2326F71009C98327870DB706B3
:1029A0000010D58F232CF70C8280B786006083A798
:1029B000860D370700F07D17F98F23ACF60C828067
:1029C000378700608327C710F99B2326F71019C5A6
:1029D0005C5BB7061000D58F5CDB8280B786006039
:1029E000DC5A3707F0FF7D17F98FDCDA828041115E
:1029F00006C60545B93FEFE02F9B854763FAA70060
:102A00008947631EF500054549370145553F29A013
:102A10000145A53F01456D37B24041018280054522
:102A2000AD370545713FCDBFB787006037371D8F84
:102A30001307A71223A8E70A03A7C70AB70600804F
:102A4000558F23A6E70A23A8070A8280B7070C60E0
:102A500098431367070498C3D8431377F7FBD8C389
:102A6000B7E70C600D47F8C38280411106C60145E7
:102A700097D0C7FFE780805AA547630CF50065151E
:102A8000A94763EDA70093073045B3D7A700858B0F
:102A900091C703A74186854763E6E700453FB240FB
:102AA00041018280EF20D05AAA85138641C8138540
:102AB00001DF97D0C7FFE780E058CDB7411106C6C8
:102AC00022C4993D2D378D37EF701020EF6090763E
:102AD000EFF0FFBAEFF01FD1EF502019EF408074F4
:102AE000EFF05FA1EFE0CFD615C52A8483A741861A
:102AF00091E72285B240224441018280EF20505567
:102B0000AA851386C1E1138541E297D0C7FFE7800C
:102B10006053C5B7EFF0FFD12A8461FDEFF03FDAD3
:102B20002A8461F9EFF0BFB22A8461F53D3FEFF0EE
:102B30005FD411207DBF411106C622C4B787006053
:102B400003A7C711B70600C0558F23AEE710D85BA7
:102B500037044000418FD8DB8547194799461D4609
:102B6000814513059006EFD0FFED8147014785466B
:102B70001D46814513059006EFD0DFEC81470D47D8
:102B80008D461D46814513059006EFD0BFEB81476A
:102B9000094789461D46814513059006EFD09FEAF7
:102BA000B7070C60984BB7060010558F98CB984F1D
:102BB000B70600F0FD16758F98CFB7070460F84B85
:102BC000B706A0FFFD16758F418FF8CBF84BB706FF
:102BD0001000558FF8CB98431367070498C39843A8
:102BE000B7060018558F98C39843E1769386F60789
:102BF000758F1367070898C3D847C1769386F60F79
:102C0000758F856693860680558FD8C7D84713770A
:102C100007F013675700D8C7D847B70601FFFD165E
:102C2000758FB7066400558FD8C79843B7068000E4
:102C3000558F98C39843B70680FFFD16758F98C3CC
:102C40009843B786FCFFFD16758F98C3984FB7065B
:102C500000FF758FB7069D00FD16558F98CFD84F92
:102C6000370600019306F6FF558FD8CFD843B71625
:102C700000FFFD16758FB7460600558FD8C3F84B79
:102C8000137707F01367F700F8CBD843799BD8C3C5
:102C9000B84BB7060080558FB8CBD843518FD8C3F7
:102CA000B240224441018280411106C68147194742
:102CB00099461D46814513059006EFD0BFD8B7074A
:102CC0000460D843B70600FFFD16758FD8C3B84B14
:102CD000B7060080FD16758FB8CB944F37070001FB
:102CE0007D17D98E94CFD44F558FD8CFF84BB706D8
:102CF000F0FFFD16758FF8CB9843B70600E8FD1678
:102D0000758F98C3B786006083A7C6113707004048
:102D10007D17F98F23AEF610B2404101828000008A
:102D200023AA150280DDC4DD23A0250523A23505D5
:102D300023A4450523A6550523A8650523AA7505E3
:102D400023AC850523AE950523A0A50723A2B507CF
:102D500023A8250223A4B50803210503032205099E
:102D600083204503005D445D032905048329450450
:102D7000032A8504832AC504032B0505832B4505F7
:102D8000032C8505832CC505032D0506832D4506DB
:102D90008280411106C697A0C801E78040FC7300FD
:102DA000501097A0C801E780A0FBA14773A007308F
:102DB000B240410182800145828013050505828071
:102DC000C14763F3A7004145B777023C0A059387E3
:102DD00087A4AA9788438280011106CE22CC26CAF6
:102DE0004AC84EC6AA892E84B28473292034B707F4
:102DF0000080FD173379F9003775023C130585CD46
:102E0000EF20902B4A856D3F2A86CA853765023CA4
:102E10001305C56CEF20502AF32530343765023C8A
:102E20001305056EEF2050296305040C50400C502B
:102E30003765023C1305056FEF20102810444C50F5
:102E40003765023C13050571EF20102750440C54E0
:102E50003765023C13050573EF20102610484C54CB
:102E60003765023C13050575EF20102550480C58B6
:102E70003765023C13050577EF201024104C4C58A1
:102E80003765023C13050579EF201023504C0C5C8C
:102E90003765023C1305057BEF2010224C5C37653B
:102EA000023C1305057DEF20302122853937AA85A4
:102EB0003765023C1305057EEF2010200C40376576
:102EC000023C1305057FEF20301F2C403775023C74
:102ED00013050580EF20501E6C403775023C13052A
:102EE0000581EF20701D3775023C130585CDEF205D
:102EF000B01CBDC490508C443775023C130505824C
:102F0000EF20901BD050CC443775023C130505844C
:102F1000EF20901A90548C483775023C13050586B3
:102F2000EF209019D054CC483775023C1305058822
:102F3000EF20901890588C4C3775023C1305058A89
:102F4000EF209017D058CC4C3775023C1305058CF8
:102F5000EF2090163775023C130585CDEF20D01574
:102F6000A68522859124A2854E853926411106C663
:102F70000146EFF07FE6411106C622C42A84EFF035
:102F80009FE311C10945A285D537411106C6F32734
:102F9000203481450545D93F411106C622C42A8403
:102FA000B285368697C0C801E78040542285B2407A
:102FB000224441018280130606FB419A14D258D262
:102FC0001CD6232606038967938707887CC2B7D758
:102FD0000042938727D23CC210D9B7073840938765
:102FE00087205CD92324A50882801305A0F782805E
:102FF000411106C622C426C22A8493040000130687
:103000000000B795023C938505F797D0C7FFE7808E
:10301000E0341306800081453305940097D0C7FF44
:10302000E7808033B24022449244410182804111C2
:1030300006C622C426C24AC02A8913040000930788
:1030400080003E94B384854026855D372328990807
:103050002285B24022449244024941018280937702
:10306000350099EFB85DFC5DBA97C19B6366E500DA
:103070006366F500014582800145828005458280B6
:1030800001458280937735009DEF81CDB7F7C83F2A
:1030900083A7C7EC99E7411106C6D137B240410179
:1030A000828037C7C83F130707B8856793870780B3
:1030B000BA976366E5006366F500014582800145C5
:1030C00082800545828001458280797106D622D4AE
:1030D00026D24AD04ECE52CC56CA5AC85EC662C418
:1030E00066C2AA8B2E8CB28A368A3A8B91CA3685F2
:1030F000EFF0BFCC2A8403290A048149814C0DA832
:1031000091CF37F7C83F1307C7EC184713070703DA
:103110006306F700804303A94700C5B70A8437391F
:1031200038401309A90CD1BF03290400A68C11044F
:103130009D4763CD3703A2845286D6852285029BA4
:1031400015C563F58C02B707004293870700E36D4E
:10315000F9FCB73701429387C78DE377F9FC2686E0
:10316000CA856285829B19C185097DBFB2502254F0
:1031700092540259F249624AD24A424BB24B224C13
:10318000924C45618280411106C6AE860C41138780
:10319000150018C13775023C1305C5A8EF20C07192
:1031A0000545B24041018280011106CE22CC26CADB
:1031B0002A84AE8402C63775023C1305C5AAEF20E7
:1031C000A06F37F6C83FA687373738401307470840
:1031D000A2861306C6EC10466C003735384013053E
:1031E0006518EFF09FEE3775023C130585CDEF2093
:1031F000A06CF2406244D2440561828011E1828079
:10320000411106C622C426C22A8497F0C801E7806D
:10321000406BAA84120497F0C801E780806A058D8C
:10322000E36B85FEB240224492444101828037978D
:10323000023C130707D719A013070702B797023CF0
:10324000938707E7E36AF7FE828019CD58458347E5
:103250001700858B91C78347070089C70145828086
:10326000014582800545828001458280F3770430E4
:1032700001A0411106C6DD3F411106C622C426C287
:1032800073740430B7F7C83F9387C7EC8447D537CA
:103290002188732004302685EF10F02AB2402244A2
:1032A000924441018280411106C622C42A845C49AD
:1032B00085CF829701CD634605029307F00F63D453
:1032C000A7001305F00F5C442380A70058448347F0
:1032D000170093E71700A300F700B2402244410112
:1032E00082803305A040D1BF0145CDB7411106C64C
:1032F00022C426C2AA841317250093870188BA978F
:10330000804321A01C4082972104138714000A07E0
:1033100093870188BA979C43637AF40048407DD133
:103320008347C501858BEDF3BD3FF9BFB240224411
:10333000924441018280011106CE22CC13048009FF
:1033400033048502B7F7C83F938707A33E9413134E
:10335000950093162500AA968A0602C285473EC0AC
:10336000BD480148814737F7C83F1307C7EC369778
:10337000B73638409386466213060020B7C5C83F6B
:10338000938505389A952285EF0030208347D40035
:10339000ED9BA306F400F240624405618280411176
:1033A00006C6B286B367B60091E7EF106078B24008
:1033B000410182802E86B74538409385054A6105D4
:1033C000EF107043EDB7011106CE22CC3794023CCA
:1033D000130404E72DA05C503EC21C503EC083285D
:1033E000C401032884015C481848544410444C40EC
:1033F0000840EF0090191C40A0D713040403B797AE
:10340000023C938707E7E368F4FCEF10002637944B
:10341000023C130404E729A00840513713040403B5
:10342000B797023C938707E7637AF4000C54505433
:10343000FD57E393B7FEE303F6FEF9BFEF10C02F8D
:10344000F240624405618280411106C6B7F7C83F69
:1034500005472387E7A20D45EFF05FE9EF20E02C59
:103460001145EFF0BFE8EFF01FF69790C801E78035
:1034700080F1B7F7C83F938787AC03C7C700799B34
:103480002386E700B24041018280411106C622C472
:1034900026C24AC0F3740430B7F7C83F9387C7EC1D
:1034A00003A98700D5572322F908F3770430EF10DA
:1034B000601E630FA9002A84B7F7C83F9387C7EC43
:1034C00088C7EF10901ACA8503258408EFF05F853E
:1034D000A18873A00430B2402244924402494101C1
:1034E0008280411106C65537411106C697D0C7FFE5
:1034F000E78080E6B24041018280411106C637F57F
:10350000C83F13060598B707C93F938707FA338664
:10351000C740814513050598C13FB24041018280F3
:10352000411106C622C42A84EFF0FFE01306800989
:103530003306C402B7F7C83F938707A33E96B7F791
:10354000C83F9387C7EC13172400B30687008A0689
:10355000BE96D0C6238886009316B40037C6C83FEF
:10356000130606B8B296056613060680B296229731
:103570000A07BA97D4C3B2402244410182800111A4
:1035800006CE22CC26CA4AC8EF10E037B7F7C83FAC
:10359000B7F4C83F138984AC9387C7EC23AA2701EB
:1035A000938781873EC285473EC081480148814755
:1035B0000147B7363840938686440566B7C5C83F8D
:1035C00093850558138584ACEF00207C2A848347BB
:1035D000D900ED9BA306F900138584ACEF00D05E03
:1035E0000145EFF0FFF32285F2406244D2444249A4
:1035F00005618280411106C60145EFF03FCF0142CF
:1036000037F5C83F130505B6EF00B003EFF03FC232
:103610000545EFF0BFCD0945EFF05FCDEFF03FF688
:10362000EFF03FEC411106C6F3770430EFF06FF690
:10363000E5BF010082806353B500AA85930710F8A7
:1036400063C4F5002E858280130510F8828008453A
:103650008307E5006394B70001458280411106C6E7
:10366000EF00F066B240410182802324050023264A
:10367000050008C148C101458280011106CE22CC57
:1036800026CA4AC84EC652C42A84F37404305C4524
:1036900095EFC5EB37F7C83F1307C7EC184703078B
:1036A000E70018C885075CC4B7F7C83F9387C7EC25
:1036B0009C471CC4A18873A004300145F2406244B9
:1036C000D2444249B249224A05618280AE89328998
:1036D000144537F7C83F1307C7EC1847E38BE6FAE2
:1036E000B367B600ADC3038AE600D2850305E700E1
:1036F000EFF07FF4634E4505014ACE864A87228665
:10370000A68537F5C83F1305C5EEEF10E0125DD56D
:10371000F37404301C44A9C71C406301F4049DCF1A
:103720000C480385E700EFF01FF1AA852285EFF032
:103730001FF20DE963180A02A18873A004305555E1
:10374000B5BF1848B9BFA18873A004304155BDB7B3
:10375000AA852285EFF0BFEF2A8A45B70C48F9B752
:10376000E30C0AFCA68537F5C83F1305C5EEEF103C
:1037700000105555A1B7011106CE22CC26CA4AC861
:103780004EC6184545CB2A84B7F7C83F9387C7EC88
:103790009C476313F70A5C450547637DF700FD17F7
:1037A0005CC581442685F2406244D2444249B24914
:1037B00005618280F37904300C49EFF05FE9032959
:1037C000040063002403B3342001631E0900232492
:1037D0002401A1E02326040093F9890073A0093095
:1037E000D1B70149CDB703274900832709001CC37E
:1037F000D8C323200900232209008347D900F59B61
:10380000A306F9002324090013058901EF10F01421
:103810007DBF8307E9001CC8232209084A85EF0001
:10382000B03ACE8537F5C83F1305C5EEEF1020043A
:1038300081448DBFA954BDB7FD54ADB709CE636EA9
:10384000B6000CC550C508C148C1930705011CC985
:103850005CC90145828029558280295582800111E9
:1038600006CE22CC26CA4AC84EC62A8473790430B2
:103870000441630F9502B33990008DEC6390090603
:103880001C4458446383E7060547BA971CC489451E
:1038900013050401EF10F05839E9137989007320FA
:1038A0000930F2406244D2444249B2490561828003
:1038B0008144D1B7D8409C401CC3D8C323A0040086
:1038C00023A2040083C7D400F59BA386F40023A49D
:1038D000040013858401EF1050084DB723A204089B
:1038E0002685EF00702E054545BF014779BFCA8583
:1038F00037F5C83F1305C5EEEF0070775DB77378F5
:1039000004301C4589CBFD171CC513788800732033
:10391000083001458280B367B60085C3411106C6F1
:10392000AE8632872A86C28537F5C83F1305C5EEB5
:10393000EF009070B24041018280137888007320BC
:1039400008304155828089C91C429CC15C41630C8E
:10395000F6002320060082801C421CC15841E31A55
:10396000E6FE5CC1FDB74CC1EDB701CD411106C605
:10397000014681451305450AEF10C03DB2404101A3
:1039800082800145828025CD411106C622C426C20F
:103990002A84AE84B7F7C83F9387C7EC984783273C
:1039A00085096303F70481473E868327440B13D7B9
:1039B0002700058B93D63700858A858BB9C311C341
:1039C00039C291C239C323A004008327040A9DC3CE
:1039D00084C32320940A2285EFF03FF90545B240C5
:1039E0002244924441018280852E19E185476DBFB2
:1039F00081475DBF2320940A232E9408E9BF2955EF
:103A000082803555E9BF4155D9BF4155C9BF4111E4
:103A100006C622C426C24AC0AE845C4513D717002E
:103A2000058B21E72A848983858BA9EB9C419DC75F
:103A30005C44858B9DC71C449CC00949A285884075
:103A4000EFF07FF4634405025C4493E747005CC4F5
:103A50009C401CC4635920014A8519A81C459CC17F
:103A6000C1BF0549E1BF4A8511A0415523A004000B
:103A7000B240224492440249410182800145FDB78F
:103A8000411106C65C45BD9B5CC54105EFF03FDDBD
:103A9000B24041018280411106C622C45C45F59BBB
:103AA0005CC5B7F7C83F03A487A11DC41C4091C3E0
:103AB00019C081453DA0A287EDBF228637F5C83FDA
:103AC000130585A1EFF03FE813058400EFF03FD91F
:103AD000B240224441018280A287E1BF3E873E84FA
:103AE000BA877DD45840E30AA7FCA285E5DB98435A
:103AF0007DD7F5F73E87E5B7411106C622C426C239
:103B00004AC0AA847379043003A4C40925C81C40A0
:103B100023AEF40803A7040A630AE40883A7440B4E
:103B200093E7270023AAF40A5C4413E7170058C45C
:103B3000ED9B93E717005CC45C4013798900732008
:103B4000093022858297737904305C44F99B5CC408
:103B50009183858BC1E75C448583858BC1E783A70F
:103B6000440BF59B23AAF40AA183858B1379890062
:103B700073200930C1FBEF00705A69B783A7440B6B
:103B800013D72700058BED9B23AAF40A1DE391832D
:103B9000858B85CB23AA040A137989007320093009
:103BA000B2402244924402494101828023A0F40A97
:103BB000B5B71384C40A014685452285EF108019E4
:103BC0007DF98147FD567D571386440ACA8537F52E
:103BD000C83F1305C5EEEF10601F2DB72285EFF02B
:103BE0003FEA95BF2285EFF01FEB95BF232005002C
:103BF0002322050023240500232605004CC18280D2
:103C0000011106CE22CC2AC62E85737404306C00B6
:103C1000EFF0FFDF218873200430F2406244056139
:103C20008280411106C622C4EFF09FFD2A846347BB
:103C3000A0002285B2402244410182807375043085
:103C4000EF00502CFDB7411106C6AA8537F5C83FD5
:103C5000130505C1EFF0FFFCB24041018280011164
:103C600006CE22CC26CA2A84B688BA84232E05081A
:103C70002320050A9307450A2322F50A2324F50A7F
:103C80009307C50A2326F50A2328F50A29CF834777
:103C90004700A1EF8547232AF40A7D57FD573AC410
:103CA0003EC602C0014881472287B7463840938606
:103CB00086AF2285892A91CC8C4099C122856520C6
:103CC00083C7540099C78347C40093E717002306AE
:103CD000F4002285EF00D065232C8408F240624472
:103CE000D2440561828085477DB79307101065B780
:103CF000011106CE22CC26CA4AC84EC6AA842E89F5
:103D00001304F6004198B3898500CE85EFF02FB2F9
:103D10003D05419923AC2407E0DC23A0A4083385AA
:103D2000A940F2406244D2444249B24905618280CE
:103D3000411106C6B286B367B60091E7EF00505F47
:103D4000B240410182802E86B74538409385054AAE
:103D50006105EF10402AEDB7B7F7C83F03A5C7ECE0
:103D60003335A0008280130580FA82802324050069
:103D70002306D500A306C5002307B500A307050049
:103D8000232C0500232E05008280011106CE22CCB3
:103D900026CA4AC84EC652C456C25AC02A842E8960
:103DA000B284B6893A8ABE8A428BC6859307C50615
:103DB0007CD53CD982561146EFF05FFB2686CA853A
:103DC0002285EFF0FFF2AA845A88D6875287CE86E2
:103DD0002A86CA852285EFF00F9E23240406B7F7B2
:103DE000C83F9387C7EC9C4783A7C7082326F408DE
:103DF0002685F2406244D2444249B249224A924A5C
:103E0000024B05618280011106CE22CC26CA4AC827
:103E10002A842259B25402C202531AC0EFF0FFF6AC
:103E2000FD57639427016387F400CA85268622859F
:103E3000EFF01FF02285F2406244D244424905610E
:103E40008280411106C622C42A848547A306F50054
:103E50002306F500232C0506232E0506EF10100C73
:103E6000B7F7C83F9387C7EC80C7B24022444101EF
:103E70008280014582808347D5001397870161873F
:103E8000634A070E13F7F70175E7411106C622C40E
:103E900093E707F8A306F500B7F7C83F9387C7EC89
:103EA0009C4F37F7C83F130747EE6394E7028147FB
:103EB0000DA0D84358C11CC108C3C8C3B9A0BE8651
:103EC00037F7C83F1307C7EC584F6381E6029C439E
:103ED00085C399CF8306E5000387E700E381E6FE0B
:103EE000158FE348E0FCBE86E1FFDDB78147CDB723
:103EF000B7F7C83F9387C7ECD44F37F7C83F1307CE
:103F000047EE18C154C188C2C8CFB7F7C83F9387DE
:103F1000C7EC804FB7F7C83F938747EE6308F402BA
:103F200015C4B7F7C83F9387C7EC98478347D700B6
:103F3000FD8B9DE38356E7009307F00763FED700F0
:103F4000B7F7C83F9387C7ECD8CB0DA0B7F7C83FEA
:103F50009387C7ECC047F1B7630587002285EF0060
:103F6000D070B7F7C83F9387C7ECC0CBB2402244AC
:103F7000410182808280411106C622C48347D50058
:103F800013978701618763410704B7F7C83F938799
:103F9000C7EC9847804FB7F7C83F938747EE630257
:103FA000F40421C06305A7048347D700FD8BA1E378
:103FB0008356E7009307F00763FBD702B7F7C83FC4
:103FC0009387C7ECD8CB35A893F7F707A306F5007E
:103FD00058411C411CC3D8C32320050023220500DF
:103FE0006DB7B7F7C83F9387C7ECC04765BF630598
:103FF00087002285EF007067B7F7C83F9387C7EC4B
:10400000C0CBB240224441018280411106C622C485
:1040100026C22A84AE84EFF01FF68347D40093E7CC
:104020002700A306F400B9C404C49C406390F402C2
:10403000814729A8D84358C01CC000C3C0C31DA8CD
:104040003E87D4406301D7029C4385C399CF830642
:10405000E4000387E700E385E6FE158FE34CE0FC10
:104060003E87E5F3DDB78147CDB7DC4004C05CC0D7
:1040700080C3C0C0B24022449244410182804111B9
:1040800006C66105EF10600DB2404101828041110A
:1040900006C622C426C24AC0AA842A8900416300F7
:1040A000850421C058401C401CC3D8C323200400F1
:1040B000232204008347D400F59BA306F4002324A5
:1040C000040013058401EF1040092322040822850F
:1040D000EFF07FDA8040E31689FC0144D9B7014450
:1040E000C9B7B24022449244024941018280011181
:1040F00006CE22CC26CA4AC84EC652C456C2AA848C
:104100002E84B7F7C83F9387C7EC03A9870083477E
:10411000D90013F707063DCB13F7070225CFA149B6
:1041200033F7F90025E7B3E7F900A306F900139781
:104130008701618763420706A147638EF906814ABA
:10414000B7F7C83F9387C7EC03AA8701B7F7C83F03
:10415000938747EE630EFA0A630C0A0AB7F7C83F63
:104160009387C7EC9C47638547015285EF00F04F6A
:10417000B7F7C83F9387C7EC23AA4701C1476387B6
:10418000F9004A85EFE07FE6639B0A0821887320E7
:1041900004305DA8C14969B793F7F707A306F90092
:1041A00003274900832709001CC3D8C32320090023
:1041B0002322090051B78327890095C303274900AB
:1041C000832709001CC3D8C3232009002322090028
:1041D0008347D900F59BA306F900232409004A85EB
:1041E000EFF0FFE91305C906EFF07FEAB7F7C83F24
:1041F0009387C7EC9C476304F900814A91B7B7F7EE
:10420000C83F83A7C7EC99E3814A1DBF854A0DBF0C
:10421000B7F7C83F9387C7EC03AAC70081B7B7F7C2
:10422000C83F9387C7EC9C4723A4F70837F5C83FDE
:10423000130505B6EFF0FFC091BF73740430EFF0C3
:104240004FBF21887320043083C7D40093F707063B
:10425000EDF7F2406244D2444249B249224A924ABE
:1042600005618280B286FD576395B7006313F6003F
:104270008280411106C62E86B74538409385054A8F
:104280006105EF005057B24041018280411106C6DE
:1042900022C426C24AC02A843289B684EFF0FFD6EF
:1042A000CA8526862285EFF0FFFBB2402244924465
:1042B000024941018280411106C622C48347D500CC
:1042C000139787016187634507028347D50093E70A
:1042D00007F8A306F500B7F7C83F9387C7EC9C4FD4
:1042E00037F7C83F130747EE6391E704814735A8C6
:1042F00093F7F707A306F50058411C411CC3D8C328
:104300002320050023220500C9B7D84358C11CC18A
:1043100008C3C8C3B9A0BE8637F7C83F1307C7ECA8
:10432000584F6381E6029C4385C399CF8306E5001D
:104330000387E700E381E6FE158FE348E0FCBE86D5
:10434000E1FFDDB78147CDB7B7F7C83F9387C7EC2B
:10435000D44F37F7C83F130747EE18C154C188C27E
:10436000C8CFB7F7C83F9387C7EC9847804FB7F7D8
:10437000C83F938747EE6305F4021DC06308A70298
:104380008347D700FD8B9DE38356E7009307F00733
:1043900063FED700B7F7C83F9387C7ECD8CB0DA013
:1043A000B7F7C83F9387C7ECC047C9BF630587000D
:1043B0002285EF00902BB7F7C83F9387C7ECC0CB9F
:1043C000B240224441018280411106C622C426C265
:1043D0002A848147F374043031A093F7840073A0DA
:1043E0000730854789EB2285EFF0BFA87DF5228550
:1043F000EFF07FA8DDB7B2402244924441018280B1
:104400008147F37604302DA058411C411CC3D8C30A
:1044100023200500232205008347D500F59BA30632
:10442000F5002324050093F7860073A00730854725
:1044300081E71C45F1FBC5BF8280411106C622C43D
:1044400026C22A848147F374043031A88347D400FC
:10445000ED9BA306F4002285EFF0FFA193F7840003
:1044600073A00730854785EB8347D40093F7870215
:10447000F5F71C44E1DF58401C401CC3D8C323207F
:104480000400232204008347D400F59BA306F40014
:104490002324040065BFB24022449244410182803B
:1044A000411106C685452115EFF03FF9B2404101A3
:1044B0008280411106C622C42A84EFF07FF41305DE
:1044C0008401EF009049B2402244410182800111F1
:1044D00006CE22CC26CA4AC84EC652C42A84AE840E
:1044E0008147F37904300149D5A093F7F707A30674
:1044F000F40058401C401CC3D8C3232004002322CE
:10450000040093968401E1862307D4008347D400F6
:1045100093E707F8A306F400B7F7C83F9387C7EC03
:104520009C4F37F7C83F130747EE6394E702814774
:104530000DA0D84358C01CC000C3C0C3A9A03E866C
:1045400037F7C83F1307C7EC584F630FE6009C438B
:1045500091CF89CF0387E700E383E6FE158FE34A17
:10456000E0FC3E86F1FFEDB78147DDB7B7F7C83F06
:104570009387C7ECD44F37F7C83F130747EE18C0EF
:1045800054C080C2C0CFB7F7C83F9387C7EC03AA17
:104590008701B7F7C83F938747EE6306FA046304C1
:1045A0000A04B7F7C83F9387C7EC9C476305FA0036
:1045B0005285EF00900BB7F7C83F9387C7EC23AA4B
:1045C000470193F7890073A007308547D1E78347F8
:1045D000D40013F7F7011339170001DB898B99EB2E
:1045E00023079400F9BFB7F7C83F9387C7EC03AA26
:1045F000C70045BF144458401C401CC3D8C32320E7
:104600000400232204001396840161862307C4005A
:104610009C426390F602814729A8D84358C01CC029
:1046200000C3C0C379BF3E87CC42630FB7009C4331
:1046300091CF89CF0387E700E307E6FE118FE34EB2
:10464000E0FC3E87F5F3EDB78147DDB7DC4214C0EF
:104650005CC080C3C0C2B5B74A85F2406244D24450
:104660004249B249224A056182808147F37604308B
:1046700005A0B7F7C83F9387C7EC98478347F70073
:10468000FD17A307F70093F7860073A0073085474F
:10469000EDD38280B7F7C83F9387C7ECC84B8280C1
:1046A000411106C622C426C24AC02A84B7F7C83FB1
:1046B0009387C7EC03A98700D5572322F908F3771E
:1046C0000430EFF03FFD630FA900AA84B7F7C83F9D
:1046D0009387C7EC88C7EF004079CA8503A5840893
:1046E000EFE00FE4218873200430B7F7C83F9387C9
:1046F000C7EC9C4703A54708B240224492440249B4
:1047000041018280937785008DC737F7C83F032723
:10471000C7EC05E337F7C83F1307C7EC544B1847FE
:104720006389E600411106C6EFF09FF7B2404101F0
:10473000828073A007308280411106C622C426C23F
:104740008147F374043035A037F7C83F1307C7EC2F
:10475000404799A0638587002285EF000071B7F775
:10476000C83F9387C7ECC0CB93F7840073A0073092
:104770008547B9E337F7C83F1307C7EC1C4783C623
:10478000F7008506A387D700004F37F7C83F130708
:1047900047EEE30BE4FA4DD803C7D7007D8B5DFBF2
:1047A00083D6E7001307F007E376D7FA37F7C83F59
:1047B0001307C7EC5CCB4DBF73750430EFF09FF46B
:1047C000B2402244924441018280411106C622C473
:1047D00026C24AC02E84B7F7C83F9387C7EC03A907
:1047E0008700D5572322F908B7F7C83F9387C7EE4C
:1047F0006384A700F3770430EFF0DFE9AA84630D48
:10480000A900B7F7C83F9387C7EC88C7B92DCA85F9
:1048100003A58408EFE0CFD0218873200430B7F7D8
:10482000C83F9387C7EC9C4703A54708B240224482
:104830009244024941018280411106C622C42E845D
:10484000B2853686BA86F3770430B7F7C83F9387C8
:10485000C7EC8847EFF09FA3A28537F5C83F130543
:10486000C5EEEFF09FF6B24022444101828093F7FB
:1048700085008DC737F7C83F0327C7EC05E337F737
:10488000C83F1307C7EC544B18476389E600411132
:1048900006C6EFF09FF3B2404101828073A007305B
:1048A0008280B7F7C83F9387C7ECD84B944723A4BF
:1048B000A60898C7032587088280411106C622C42E
:1048C00026C24AC0AA842A8900416304A400014583
:1048D00021A00144EDBF054501CC2285EFF07FBD4D
:1048E0002285EFF07FAE8040E31789FE0144E5B7F3
:1048F000B24022449244024941018280930745001C
:104900005CC11CC58280411106C637F5C83F13053E
:1049100005EEEFF0BFFEB24041018280411106C6B4
:1049200022C426C2F3740430B7F7C83F9387C7EC9C
:104930009847DC4F6308F7001C435443184398C260
:1049400054C319A88147D5BF37F7C83F1307C7EC31
:10495000584F6388E7029C439DC737F7C83F13074A
:10496000C7EC10478306E6000387E700E38EE6FC0A
:10497000158FE35BE0FCD84358C21CC210C3D0C300
:104980000DA08147D1BFB7F7C83F9387C7EC9847C1
:10499000D04FB7F6C83F938646EE14C350C318C233
:1049A000D8CFB7F7C83F9387C7EC804FB7F7C83F5A
:1049B000938747EE630DF4021DC8B7F7C83F93878E
:1049C000C7EC9C476304F40022854521B7F7C83F34
:1049D0009387C7ECC0CBA68537F5C83F1305C5EE56
:1049E000EFF0BFDEB2402244924441018280B7F72B
:1049F000C83F9387C7ECC047C9B7011106CE22CC88
:104A000026CA4AC84EC6B3E7A500A5C7AA842E8405
:104A1000F379043037F9C83F1309C9EC032589003D
:104A2000EFF06FD5032589002686A286B74538406A
:104A30009385054A6105C1232A840327890083479A
:104A4000D70093E74700A306F700CE8537F5C83FA8
:104A50001305C5EEEFF07FD7832789009857DC5701
:104A600009CF0145F2406244D2444249B24905614E
:104A70008280EFF0BFEA0145F5B737070080E39287
:104A8000E7FEEF0050093305A440E34DA0FC0145CB
:104A9000D1BF411106C622C426C22A84AE84EFF0DB
:104AA000DFF5AA877D576305E40693D6F7411387A0
:104AB0009700B337F700B6973A86BE8689E7B9EF15
:104AC000A54563FDE504914563E0D5068145B30640
:104AD000F70063E3C604AE961546B3F6C602B30606
:104AE000D7403337D700998F37D7CCCC1306D7CCE4
:104AF000B387C7021307C7CC3387E602BA9733855B
:104B0000C602B3B6C602B697FE0705815D8D01A841
:104B10002285E39CE4F821A0854575BF0145B2409C
:104B20002244924441018280370500807D15C5BF33
:104B3000411106C622C426C2F37404308347D5004F
:104B4000918B89EBA18873A00430B2402244924437
:104B5000410182802A84610509258347D400ED9BA9
:104B6000A306F4002285EFF00FB1A68537F5C83F04
:104B70001305C5EEEFF0BFCFC9BFB7F7C83F9387A6
:104B8000C7EC88478280011106CE22CC26CA4AC8CB
:104B90004EC652C456C28347C50093F917007379B5
:104BA00004308344D50093F7840085EF2A84CA8AB1
:104BB000130AC506EFF0EFAB35C193E40402A30678
:104BC0009400B7F7C83F83A7C7EC8DCBCA85228571
:104BD000EFF0EFD1638B09001145814273000000B3
:104BE00029A01379890073200930F2406244D2442D
:104BF0004249B249224A924A05618280B7F7C83FCA
:104C0000D2859387C7EC8847EFF02FC0CA8537F568
:104C1000C83F1305C5EEEFF05FBB6DBF93E784009F
:104C2000A306F400E207E18763C707081C4485C3B5
:104C300058401C401CC3D8C3232004002322040076
:104C40008347D400F59BA306F40023240400130536
:104C5000840121235285EFF08FC3B7F7C83F9387B4
:104C6000C7EC98476308E406014AB7F7C83F938743
:104C7000C7EC844FB7F7C83F938747EE6385F406C8
:104C8000BDC0630497002685CD22B7F7C83F938740
:104C9000C7ECC4CB2285EFE04FB5631C0A04B7F71D
:104CA000C83F9387C7EC9C476303F40613798900D8
:104CB0007320093005B793F4F40793E48400A30646
:104CC000940058401C401CC3D8C323200400232256
:104CD0000400A9BFB7F7C83F83A7C7EC99E3014A0F
:104CE00069B7054A59B7B7F7C83F9387C7ECC447B8
:104CF00049BFB7F7C83F9387C7EC9C4723A4F70881
:104D000037F5C83F130505B6EFF0AF9349BFB7F7C6
:104D1000C83F83A7C7ECD9FB8347C400858B89EBC9
:104D2000D68537F5C83F1305C5EEEFF01FAA5DB570
:104D30001379890073200930114581427300000006
:104D4000F37A0430F1BF411106C6EFF0DFE3B24061
:104D500041018280011106CE22CC26CA4AC84EC625
:104D600052C4AA842E8AB2898147737904300145DE
:104D700031A09377890073A007308547A1E3804075
:104D8000E38984FE7DD4232244092328340158403A
:104D90001C401CC3D8C323200400232204008347E3
:104DA000D400F59BA306F40023240400130584011A
:104DB0006D262285EFF02F8C054565BFF2406244D9
:104DC000D2444249B249224A05618280411106C655
:104DD00022C43E84EFF05FA601C8B7F7C83F9387AF
:104DE000C7EC9C479C4B1CC0B240224441018280CE
:104DF000B7F7C83F938787BFB307F5408D8737B7AD
:104E0000AAAA1307B7AAB387E70237F7C83F130761
:104E100007A2BA9705472380E70082800357E50081
:104E20009307F00763E9E70283A7C18695C70307E5
:104E3000E500B7F7C83F83A747A26342F70283475D
:104E4000D500FD8B99EFB7F7C83F938707A3630C95
:104E5000F500854711A0814713F51700828081472F
:104E6000E5BF8147D5BF8147C5BF411106C622C4F2
:104E700026C24AC02A89B7F7C83F9387C7EC83C4C4
:104E800007011394140026940E04B7F7C83F9387C4
:104E900087BF3E942285D124B7F7C83F938707A2E6
:104EA000BE94238004004A85EFF05FF719E5B24015
:104EB0002244924402494101828003A6C1867D16A4
:104EC0009356F641B7553840938505DF2285252254
:104ED000F9BF411106C622C426C273740430B7F765
:104EE000C83F9387C7EC844783C7070137F7C83F9C
:104EF000130707A2BA9783C7070081CF2685EFF073
:104F0000FFF101C983C7D400FD8B81CF2685EFF067
:104F1000DFF5218873200430B240224492444101DD
:104F200082802685EFF02FB9D5B793870187884314
:104F30006303F50082800145F5BF09C91387018726
:104F400058436304E5000841828001458280411195
:104F500006C622C42A84EFF05FFE01CD1C495449E5
:104F6000184850483E97B337F700B296B69718C91D
:104F70005CC958401C401CC3D8C323200400232212
:104F80000400B240224441018280411106C622C47D
:104F90002A84EFF09FF905CD18495C499356F441F6
:104FA000330587403337A700958F998F634BF00007
:104FB00099C763CC0700B240224441018280E35A82
:104FC00005FE370500807D15FDB70145EDB73705B6
:104FD00000807D15CDB7B7F7C83F83A787A299C3D7
:104FE00001458280411106C697E0C801E780808AAA
:104FF000B24041018280797106D622D426D24AD0AD
:105000004ECE52CC56CA5AC85EC62A84B289B68AD7
:10501000FD576389C7000CC48147F37B0430014905
:105020008144C1A8E399F6FE014981444A85A685D9
:10503000B250225492540259F249624AD24A424B27
:10504000B24B45618280EFF01FF92A8A93841900E0
:10505000B3B63401D6961357F541AA94B3B7A4005A
:105060003697BA9704C85CC837F7C83F0329079B2F
:105070000327479B2699B3349900BA97BE94054BF2
:1050800075A011E3CDE38547014771A8B306D7406A
:105090003337D700918F998F14C85CC8EFF0FFE9C0
:1050A0000DC91449504918485C4863C6C700E31F3E
:1050B000F6FCE37DD7FC3387E640B3B6E6001D8EF1
:1050C000158E18C950C95C415CC008C080C340C17E
:1050D00001A893870187D8431CC058C000C3C0C330
:1050E000EFF0BFE46307A40493F78B0073A00730CD
:1050F00085478DFF4E89D684E3D70AF437F7C83F3A
:105100008327079B8326479BCE9733B73701D696D5
:105110003697F956B387F640B3B6F6001347F7FF54
:10512000158FE350E0F61CC858C8014BEFF0FFDFC5
:1051300085BFB7F7C83F83A787A2DDF7630B0B00D6
:105140005285EFF09FE4814597D0C801E780806ADF
:1051500061BFEFF05FE82A8AE5B7011106CE22CCE5
:1051600026CA4AC84EC6AA840144F3790430295598
:1051700005A0EFF05FE6EFF05FE1814597D0C80151
:10518000E7804067228593F7890073A007300544C4
:1051900015E09C40EDDBEFF05FD92A892685EFF022
:1051A0001FDB0147B707008098C8DCC8E30399FC00
:1051B0002285D1BFF2406244D2444249B2490561DE
:1051C0008280411106C622C426C24AC0F37404304C
:1051D000B7F7C83F23A4A7A2EFF03FD52A84B1A810
:1051E00037F7C83F9355F9418327079B8326479B91
:1051F00033862701B337F600AE96B6972328C79AB1
:10520000232AF79A814701481CC8232A04012285D2
:10521000EFF0FFD3A18873A004301C44228582974D
:10522000F374043037F7C83F832787A2B387274139
:105230002324F7A2EFF07FCF2A8405C003290401BD
:105240005848B7F7C83F83A687A293D7F64163C6ED
:10525000E700E317F7F8E3F526F90DC014485C48BA
:1052600037F7C83F032787A21356F7413387E64035
:10527000B3B6E600918F958F18C85CC8B7F6C83FE3
:10528000B7F5C83F03A785A21355F74183A7069B2F
:1052900003A6469B3E97B337F7002A96B29723A8FA
:1052A000E69A23AAF69A23A405A20145EFF0FFCDC2
:1052B000814597D0C801E780E053A18873A00430EE
:1052C000EFF03FC1B2402244924402494101828042
:1052D000411106C622C401477374043081478145D9
:1052E0002DA0EFF05FCF1357F541B7F6C83F83A766
:1052F000069B83A6469BAA97B3B5A7003697BA9597
:105300001377840073200730054761DF3E85B24084
:10531000224441018280411106C6EFF07FFBB2407A
:1053200041018280411106C6EFF09FFAB24041016F
:105330008280011106CE22CC26CA4AC84EC652C46B
:10534000F37404301C4181CFA18873A00430F24073
:105350006244D2444249B249224A056182802A8489
:1053600026891C555855B3E6E700A1CAFD5663943B
:10537000D7006304D7046352E008138AF7FFB337FA
:10538000F0007D17B389E700EFF0DFF99307150010
:1053900033B5A7002E9533874701B337F7004E95F5
:1053A000AA976342F006B9CF7956FD56B7553840F3
:1053B000938525332285EFF01FC41C5885071CD820
:1053C0001C5089CBA18873A004301C502285829781
:1053D0007379043093078401004C6386870841C4C5
:1053E0002285EFF0EF8123220408137989007320CE
:1053F00009302285EFE05FFD99BF11E3BDFF8547CE
:105400000147A5BF55D3EFF0FFF19307150033B562
:10541000A7002E9533874701B337F7004E95AA971B
:10542000B7060080FD166399D700F55763F6E700CD
:105430000146B70600809DBFEFF0DFEE9307150031
:1054400033B5A7002E9533864701B336F600B30770
:105450003501BE96F9573386C740B3B7C70093C628
:10546000F6FF9D8EA1B71379890073200930C5B569
:105470000CD150D123280502930785011CCD5CCDAA
:105480002320050023220500232A05028280011122
:1054900006CE22CC26CA4AC84EC652C456C22A8458
:1054A000AE843289B68A3A8AF37904302E87B2877D
:1054B000FD56638BD50463CA0700635EF00433397D
:1054C000E000FD179304F7FF3E992285EFF0FFC837
:1054D0002324540323264403232804022686CA8651
:1054E000B7553840938525332285EFF0DFB093F927
:1054F000890073A00930F2406244D2444249B24963
:10550000224A924A05618280E317D6FA93F989000C
:1055100073A00930CDB791E35DF30547814745B7E7
:1055200019C11305C5F88280411106C622C426C2DE
:10553000AE840845EFF0DFFE8347D500898B99E7FD
:105540000145B24022449244410182802A84EFE026
:105550005FF6A147638DF40081472322F408834757
:10556000D400FD8BF1FF2285EFE01FE6D1BFF1579C
:10557000EDB7411106C622C426C24AC00045834782
:10558000040085C38324C4FF89CC1309C4FE13051A
:105590004401EFF09FBC23260402CA852685EFE074
:1055A0002FE60145B24022449244024941018280E3
:1055B000411106C622C426C24AC02A84AE840329E9
:1055C0008500630E0904834719000547638FE702CE
:1055D00009476383E70423000900014523240400ED
:1055E00058449357E70093F7F707C58F93F7F707EA
:1055F000BA07B746E0FFFD16758F5D8F58C4B240FD
:1056000022449244024941018280EFF0FFF12300DD
:105610000900E35505FCE5B7EFF0BFF5CDBF014547
:1056200075BF411106C622C426C2F374043000417E
:105630006307850258401C401CC3D8C323200400C4
:10564000232204002285EFF0BFF6A18873A0043066
:1056500033358000B24022449244410182800144AB
:10566000EDB7411106C622C426C22A84B28701477B
:1056700011066364F60205E793E54500F374043010
:1056800022858296A18873A0043019C100C111053A
:10569000B24022449244410182800547E9BF01455E
:1056A000C5BF19C9411106C69305C5FF0325C5FF2E
:1056B000E928B240410182808280411106C62A86D3
:1056C000B7D600429386E6A4814537C5C83F130587
:1056D00005B6EFF01FF9B24041018280411106C6C4
:1056E00022C426C281473337B5023304B5021DE315
:1056F00085E72285EFF07FFCAA8419C522868145C3
:1057000097B0C7FFE78040C52685B2402244924447
:10571000410182808547E9BF8144FDB7B7C7C83FD3
:10572000938707B62326F5088280411106C6377590
:10573000023C130505CA4922B24041018280411151
:1057400006C61307C50058C518C99770C801E78079
:105750006046B24041018280411106C622C437C46E
:10576000C83F130404B639A010444C402285EFF022
:105770001FFD5104B7C7C83F938747B7E366F4FEE0
:105780000145B240224441018280411106C622C433
:1057900026C24AC02A8413094501F3740430977065
:1057A000C801E780A01E1305C400EFF00F9111E9B6
:1057B000A18873A00430B2402244924402494101BE
:1057C0008280A6854A85EFF08F8AF5B7411106C61B
:1057D0003777023C130787CEFD5613060040B7D536
:1057E000C83F9385055837F5C83F130505C1EFE05D
:1057F0000FC70145B24041018280B7F7C83F83A778
:10580000879E99E7B7F7C83F054723A4E79E8280A4
:10581000411106C697A0C801E780E0CF411106C636
:10582000EFF0BFFD0545B24041018280B7F7C83FA8
:1058300003A7879E85476317F700B7F7C83F23A4E0
:10584000079E8280411106C697A0C801E780A0CCC0
:10585000411106C622C47324207E97B0C7FFE7809B
:10586000A0D29307803E3305F5023355A402B2401F
:10587000224441018280411106C683A7818082971C
:10588000B24041018280797106D62E8602C602C8D6
:1058900002CA02CC02CE89472308F100B76738401C
:1058A000938767873ECAAA8568009760C801E7802A
:1058B00060FFB25045618280397106CE2ED232D45B
:1058C00036D63AD83EDA42DC46DE4C102EC6EFF031
:1058D0009FFBF24021618280411106C622C42A84C6
:1058E000A9476302F5029375F40F3795023C9307BD
:1058F00005DD9C47DC43130505DD82972285B24018
:105900002244410182803795023C930705DD9C4784
:10591000DC43B545130505DD8297F1B7411106C695
:105920008547631EF502B797006093870780FC5791
:10593000B18393F7F70F01479D461946814513053B
:105940001006EFB02F9085471947994615468145B7
:1059500013051006EFB00F8FB2404101828097A06F
:10596000C801E78040BB894763FAA700B79700608A
:1059700093870780A84F15817D898280411106C6D3
:1059800097A0C801E78020B9797106D622D426D223
:105990004AD04ECEEF00D01885476303F5068947FD
:1059A0006302F506014593054006EF10E0272A86BD
:1059B0000965130505718145EF10802F2A892E8412
:1059C000EF1040384A95333925012E94AA8922993F
:1059D0000A85EF007028EF00904381470147814618
:1059E0000146814513051006EFB0CF858547014775
:1059F00081460146814513051006EFB0AF8439A0FA
:105A0000094555B7054545B763F925030147814663
:105A10000D46814513051006EFA0DFFE2A840D47D1
:105A20008D460D46814513051006EFA0BFFDAA84E3
:105A3000EF10403171D8E9D811A86314B900E367B9
:105A400035FD03A74186854763ECE7000A85EF0033
:105A50007048B250225492540259F24945618280F2
:105A6000EFF01FDFAA853766023C130646573765FD
:105A7000023C1305055897A0C7FFE780A05CF9B763
:105A8000894763F3A70CB79800609388088003A642
:105A900048051D821376F607328803A74805398327
:105AA0001377F707BA8603A5480555811375F50FD7
:105AB0002A8383A78805FD8B8E0783A8480593D882
:105AC000D801C6979308F00363F6C8001376F6036F
:105AD0003308C0401306F0036376E6001377F7033C
